:0200000270008C
:108000000000022019820700018207000382070096
:1080100005820700078207000982070000000000B0
:108020000000000000000000000000002DD3070049
:108030000D820700000000000F8207001182070078
:1080400013820700138207001382070013820700C0
:1080500013820700138207001382070013820700B0
:1080600013820700138207001382070013820700A0
:108070001382070013820700138207001382070090
:10808000B5960700138207001382070013820700CA
:108090001382070013820700D9D00700138207005C
:1080A0001382070013820700138207001382070060
:1080B0001382070013820700000000000000000088
:1080C0001382070013820700138207001382070040
:1080D0001382070013820700138207001382070030
:1080E00013820700000000000000000000000000F4
:1080F0000000000013820700000000001382070048
:10810000000000000000000000000000000000006F
:10811000000000000000000000000000000000005F
:10812000000000000000000000000000000000004F
:10813000000000000000000000000000000000003F
:10814000000000000000000000000000000000002F
:10815000000000000000000000000000000000001F
:10816000000000000000000000000000000000000F
:1081700000000000000000000000000000000000FF
:1081800000000000000000000000000000000000EF
:1081900000000000000000000000000000000000DF
:1081A00000000000000000000000000000000000CF
:1081B00000000000000000000000000000000000BF
:1081C00000000000000000000000000000000000AF
:1081D000000000000000000000000000000000009F
:1081E000000000000000000000000000000000008F
:1081F000000000000000000000000000000000007F
:10820000FEE7FEE7FEE7FEE7FEE7FEE7FEE7FEE746
:10821000FEE7FEE700F002B8FFF7FCBF0F484FF0A3
:108220000701884385460E4880470E48016841F49F
:1082300070010160BFF34F8FBFF36F8F00F01AB86A
:1082400009480A490A4A884207D0521A05D00378D9
:1082500001300B700131013AF9D170470000022062
:10826000BD8E070088ED00E040D70700E82A002017
:10827000FC2A0020384939480A1A02D007229143C3
:108280008D46374937480A1A06D00722914381F3B1
:108290000988022282F3148833483449344A00F0B2
:1082A0003CF834483449354A00F037F83448354909
:1082B000354A00F032F835483549364A00F02DF895
:1082C00035483649364A00F028F836483649374AA4
:1082D00000F023F836483749374A00F01EF837488F
:1082E0003749002200F031F836483749002200F0C3
:1082F0002CF8364A904726482649884205D002681D
:10830000043003B4904703BCF7E700208646EC46F0
:10831000002000212E4A9047FEE7884214D0521ACE
:1083200012D003460B4313430324234206D10368B0
:1083300004300B600431043AF9D1704703780130FE
:108340000B700131013AF9D17047884202D00270B6
:108350000130FAE7704700000000022000F8012019
:10836000000002200000022084DC0700FC2A00201C
:10837000402B0020D4830700D4830700E8D60700F1
:1083800084DC0700FC2A0020FC2A002054D70700C8
:1083900054D7070054D7070054D7070054D7070015
:1083A00054D7070054D7070054D7070082DC0700D2
:1083B000C8DC0700402B0020402B0020402B002071
:1083C000A4550020A4550020A45500204182070098
:0483D00045840700D9
:1083D400BFF34F8F0549064BCA6802F4E0621343AA
:1083E400CB60BFF34F8F00BFFDE700BF00ED00E09F
:1083F4000400FA0508B507281BD8DFE800F00412CA
:108404001A1A1A041A04012000F07DF8002000F062
:1084140043F8012000F040F8BDE80840022000F0D5
:108424004FB8012000F04CF8BDE80840022000F0ED
:1084340033B808BD08B5FFF7CBFF08B5FFF7C8FF91
:1084440008B5104804F092FF01F0FCF84FF4805195
:10845400002000F017FF08B1FFF7BAFF0A48C0F583
:10846400FC2100F00FFF0028F6D1084804F07EFF3D
:10847400074800F02DFE0028EED1064804F076FFF0
:10848400EAE700BF54D70700008007006ED7070053
:10849400F98307007AD70700074B1B5C1F2B86BFA5
:1084A400064903F01F034FF0A041012202FA03F32F
:1084B400C1F80C35704700BFF0D707000003005027
:1084C400074B1B5C1F2B86BF064903F01F034FF0AD
:1084D400A041012202FA03F3C1F80835704700BF36
:1084E400F0D707000003005008B50020FFF7E8FFAD
:1084F4000120FFF7E5FF0220FFF7E2FFBDE8084097
:108504000320FFF7DDBFC20710B504460CD54FF0BA
:10851400A0430322C3F83427C3F83827C3F83C2701
:10852400C3F84027FFF7E0FFA3070AD54FF0A043A5
:108534000C22C3F82C27C3F83027C3F86027C3F8EC
:10854400642710BD0023C0E902328B881A44B1F9B4
:10855400063002611A44C0E90011426108880038FB
:1085640018BF012070474268118870B5034641B1B5
:1085740002F110014160118A29B9C2680168FFF74C
:10858400E1FF002070BD907811891C6900F030066D
:10859400302E13D1957C05F03005302D15D19188FE
:1085A400611A19610021908AB2F9162008441969E8
:1085B40001441961114459610120E3E700F0F0041A
:1085C400202C02D150894143EDE700F0C0008028FF
:1085D40008BF0421002EE6D1986801309860E2E7D4
:1085E40070B5466804460D4663681A88AA4204D1E9
:1085F4009B7803F00F03082B07D12046FFF7B3FF46
:108604006368B342F0D1002070BD0120FCE74368E9
:108614001A44426011B101399A4201D101207047D4
:1086240013F8010B01F8010FF6E7836810B504464F
:108634000BB9002010BD0368012298470028F8D028
:10864400A368013BA360F5E72DE9F3410F460DF163
:1086540007018046FFF7E9FF054620B900252846B3
:1086640002B0BDE8F0819DF907309DF80740002B6A
:1086740013DA04F07F0407260DF107014046FFF7E3
:10868400D4FF0028EAD09DF8072002F07F03B3400E
:108694001C43130606F1070601D43C60DFE7232ED2
:1086A400EAD1DBE770B541688A7802F00F05082D3E
:1086B40086B003461FD103691C6800260CB906B0B6
:1086C40070BD236862689D68267329466846FFF773
:1086D40039FF6368049304F10C030593AB7803F04A
:1086E400C003802B08BF231D684608BF0493FFF70F
:1086F400D9FFA468E2E73F2A24D802F0300010280A
:108704000DD15A6900201070072DCC6818690CD15E
:108714000146204606B0BDE8704000F01FB8900640
:10872400F2D55B6900221A80C9E70A89214624B17F
:1087340006B0BDE8704004F073BF06B0BDE87040F9
:1087440004F0A0BF02F0C0018029B8D10069002163
:108754000160920644BF5B691980B0E77FB50A46A1
:1087640001466846FFF7EEFE30B16846FFF79AFF10
:108774006846FFF7F8FEF7E707B05DF804FB000072
:1087840030B5044685B01546A9B90268114B9A4222
:1087940011D0102D06D82A4669462046FFF7F0FF6F
:1087A40005B030BD102269462046FFF7E9FF0028D6
:1087B400F6D0103DEDE7A368AB4201D20020EFE70D
:1087C40023682A46204698470028F7D0A3685B1BF5
:1087D400A360E5E7138607002DE9F3410F4601A9DD
:1087E40080461646FFF730FFA0B1019C621C4FF093
:1087F400000504D2BB7803F0C003802B01D12846C6
:1088040008E03B899342FAD3224631464046FFF7BB
:10881400B7FF355502B0BDE8F08173B50D4601A927
:1088240006461446FFF710FFB0B1019AB2F5803F37
:1088340012D2AB7803F0C003802B02F102010BD0FB
:108844002B898B4208D32146304621F8022B02B0F3
:10885400BDE87040FFF794BF002002B070BD000077
:1088640010B5034C82600022C0E90041C26010BD13
:10887400138607002DE9F341002506460F46A84656
:108884002C460DF107013046FFF7CFFEC0B19DF82D
:1088940007C0A4F120030CF07F02C4F1200102FA06
:1088A40003F322FA01F10B43A2401CF0800F45EAC6
:1088B400020543EA080804F1070404D1C7E9005893
:1088C40002B0BDE8F081462CDBD10020F8E737B5D3
:1088D4000D4669461446FFF7CDFFA8B12B89013B2D
:1088E400072B20D8DFE803F01A161F121F1F1F04DE
:1088F400DDE90032C4E90032DDE90001914208BF3C
:1089040098420CBF0120002003B030BD009B2360BF
:108914000022F1E7009B23809BB2F9E7009B2370C0
:1089240003F0FF03F4E70020EEE737B50D46694690
:108934001446FFF79FFF30B12B89082BDDE90012A5
:1089440003D1C4E9001203B030BD022B4FEAE17039
:108954000FD0042B03D0012B0FD00020F3E72160AC
:108964000B460246824208BF8B420CBF0120002006
:10897400E9E70BB22380DA17F4E74BB22370FAE786
:10898400F7B51F4600233B700D460B70136001A919
:1089940004461646FFF758FE38B9A36813B1002001
:1089A40003B0F0BD01233B70F9E7019C002CF9D022
:1089B400E30804F0070433602C70F1E713B50446B0
:1089C400052921D8DFE801F0030F1720201E01221A
:1089D40001A92046FFF7D4FE18B19DF90430002BFD
:1089E400F5DB02B010BD08220021204602B0BDE82C
:1089F4001040FFF7C5BE01A9FFF726FE0028F0D0FE
:108A0400019AF1E70422EFE70020EAE773B50D4687
:108A140001A90446FFF718FE064618B90026304699
:108A240002B070BD94E80F0085E80F0001998A42F6
:108A3400F4D3A960A3685B1AA360F0E72DE9F043BF
:108A4400536815469A7812F0C00C89B006460C4655
:108A540004D0BCF1400F66D0002442E002F00F01C4
:108A64005D4F02F03002202A57F8217020D007D839
:108A7400D2B92A6919463B4609B0BDE8F043184704
:108A8400302AE9D16A6918881080072909D11A891E
:108A94002869614604F0F6FD6B682969D868FFF718
:108AA4005DFE2A6969683CE06A6901211170E0E7AA
:108AB400022CD5F8148027D1042925D804A9FFF75E
:108AC400A5FF04460028C7D0069B2BB16968B8F8F7
:108AD40000304A899A4208D8059B7360069B002B94
:108AE400BAD1204609B0BDE8F08308892A6903FB9E
:108AF400002204A8B84728B1B8F800300133A8F818
:108B04000030E1E70446E7E7B8F800105A898A42E2
:108B1400A2D92A6918894C1C01FB0022A8F800403C
:108B240019463046A7E7D5F81080474657F8043B66
:108B340023B909B0BDE8F043FFF740BF022914D1BF
:108B440004A9FFF763FF002886D0D8F800306968CD
:108B54003A4604A89847044600283FF47DAF069B94
:108B6400002BF2D1059B7360BBE7012925D00529B1
:108B74002BD000297FF470AF0DF1040901340B2CC4
:108B84003FF46AAF012249463046FFF7F9FD002859
:108B94003FF462AF19F9013B002BEFDB0F4B049359
:108BA40001ABCDE90534002307936968D8F8003098
:108BB4003A4604A89847044693E7082201A9FFF718
:108BC400DFFD08240028E9D146E704220DEB020169
:108BD400FFF7D6FD0424F5E7F4D707001386070052
:108BE4002DE9F04790B00446002604A8CDE90266BA
:108BF400FFF7A8FCA3683BBBDDE9053404A89D7816
:108C0400FFF7B1FC0028F7D115F0300F03D1059B15
:108C14001B8803B10134002C00F0B480630902A95D
:108C24000022934240F0A78010AA02EB830304F0D1
:108C34001F0453F8383CC4F120044FF0FF30E040E7
:108C4400C31A584258410DE00DF1030301AA0DF176
:108C540002012046FFF794FE38B99DF80330002B3B
:108C6400CAD1002010B0BDE8F087019F04A839469E
:108C7400FFF7B6FC002857D1B7424CD3059D059A9F
:108C8400937803F00F03082B7ED004A8FFF76BFC46
:108C9400059B9D42F3D14FF0FF36B7429DF80290F9
:108CA40039D3089BD4F808801D68A36885B3984518
:108CB400A0D12B68D3F800A0BAF1000F08D04B461E
:108CC4003A4629462046D0470028CAD0AD68ECE78A
:108CD400D3F808A0BAF800309F42F7D16A68514629
:108CE4000AA8FFF72FFC6B680E9305F10C030F9392
:108CF4009AF8023003F0C003802B04BF2B1D0E939F
:108D040001232B730AAA49462046FFF797FEDBE7A7
:108D140098457FF46FAF9DF802102046FFF74EFE92
:108D240000287FF467AF9CE7059B9B7813F0300F16
:108D34000FD1069A3F2A0CD8510910AB03EB8101DD
:108D440002F01F020123934051F8382C134341F8D9
:108D5400383CD4F80C809DF80250B8F1000F04D0D0
:108D640004AB2A4639462046C04704AA2946204671
:108D7400FFF764FED4E751F8040B01307FF471AFC0
:108D840001324EE701206DE7168886E770B50C4680
:108D94000646154611462046FFF7E0FC2A462146C2
:108DA4003046BDE87040FFF71BBFF0B585B0CF6813
:108DB4000C46694605461646FFF728FE68B1E0688A
:108DC40058B1A37803F03003202B32463946684665
:108DD40005D1FFF7DBFF019B6B6005B0F0BDFFF72A
:108DE400FFFEF8E713B50C466946FFF743FD60B193
:108DF400DDE900134A0842EAC372C9074FEA530384
:108E040044BFD243DB43C4E9002302B010BD37B5ED
:108E14000D4669461446FFF7E5FFA8B12B89013BCF
:108E2400072B1FD8DFE803F01A161E121E1E1E049D
:108E3400DDE90032C4E90032DDE90001914208BFF6
:108E440098420CBF0120002003B030BD009B23607A
:108E5400DA17F1E7BDF900302380F9E79DF9003016
:108E64002370F5E70020EFE713B504220C460DEB61
:108E74000201FFF785FC08B1019B236002B010BD1D
:108E84001146FFF7F1BF13B508220C466946FFF7F8
:108E940077FC18B1DDE90023C4E9002302B010BD5A
:108EA4001146FFF7F0BF0000024AD2F80034002B4D
:108EB400FBD0704700E001404FF0805310B5D3F869
:108EC40030210D2A55D14FF080410022C1F80C21E8
:108ED400C1F81021C1F838254D4AD3F80404C2F86A
:108EE4002005D3F80804C2F82405D3F80C04C2F80A
:108EF4002805D3F81004C2F82C05D3F81404C2F8DA
:108F04003005D3F81804C2F83405D3F81C04C2F8A9
:108F14004005D3F82004C2F84405D3F82404C2F869
:108F24004805D3F82804C2F84C05D3F82C04C2F839
:108F34005005D3F83004C2F85405D3F83404C2F809
:108F44006005D3F83804C2F86405D3F83C04C2F8C9
:108F54006805D3F84004C2F86C05D3F84434C2F869
:108F64007035D1F80034DB0744BF6FF00103C1F85A
:108F74000034284AD2F8883043F47003C2F88830A9
:108F8400BFF34F8FBFF36F8F4FF08053D3F830216F
:108F94000D2A0BD1D3F83431012B81BF4FF01023AC
:108FA400D3F808224FF08043C3F858254FF010231C
:108FB400D3F80022002A03DBD3F80432002B22DA90
:108FC400154901234FF01020C1F804351224FFF78E
:108FD4006BFFC0F80042FFF767FFC0F80442FFF7D9
:108FE40063FF0023C1F80435FFF75EFFBFF34F8F23
:108FF40008490A4BCA6802F4E0621343CB60BFF32A
:109004004F8F00BFFDE7064B064A1A6010BD00BF34
:1090140000C0004000ED00E000E001400400FA055B
:10902400FC2A00200090D003008800F00100704763
:1090340041DF7047014B01221A707047602F0020F6
:10904400BFF34F8F0549064BCA6802F4E06213432D
:10905400CB60BFF34F8F00BFFDE700BF00ED00E022
:109064000400FA05024B034800221A7001F0BCBB4D
:10907400602F002045900700042810B5044609D845
:10908400022811D816D00D4B1B68B3B12046BDE899
:1090940010401847831F012BF5D8094B09480022BB
:1090A4001A7001F0A1FBEEE707494FF4701000F0CD
:1090B400A5F9E8E701F0DEFAE5E710BD642F00202A
:1090C400602F00204590070069900700002070473A
:1090D40038B5554B554A18604FF0A0430020C3F8EB
:1090E400642701F097FB0446002840F0978000F0C5
:1090F40051FA012800F08D80022800F091800028A8
:1091040040F08C804FF08043D3F80024D20336D54E
:109114004FF48032C3F800240025454C236A012B08
:109124003CD04FF4701400F0D1FA424A20211820A8
:1091340002F00CF908B1FFF780F94FF08043D3F83F
:109144001C2502F0F902B12A02BFD3F81C2502F053
:109154004E02C3F81C25FFF7B9FF00285ED1204654
:10916400354900F04BF9354800F054FC002855D13E
:1091740000F0D2FA02F072F9FFF75AFFF8E7D3F8D9
:10918400202502F0F902A92A06D1D3F8202502F0FD
:109194005602C3F82025BFE70125BEE74FF440532C
:1091A4005A68274B9A4209D001F0E8FBA2690146AC
:1091B40095B1244801F0ACFE90B9B2E7626B1DB9D9
:1091C40094F86032012BEFD01F484FF4805101F026
:1091D4009FFE0028E8D1A4E794F8A132012BE8D13E
:1091E4004FF0A043D3F810359B019AD54FF080433C
:1091F400D3F81C3503F0F903B12B92D001F06CFBCA
:1092040060B9124B1870124801F0EEFA00F024F81D
:1092140004E00E4B0F481C7001F0E6FA032038BD41
:109224004FF4A0247FE700BF642F00200C0003004C
:1092340030470020402B0020699007007D900700F4
:10924400DBE5B151D149002090490020602F002076
:10925400399007004590070008B5074B4FF0FF32DF
:10926400C3F88020C3F8802101F02AF8BDE8084043
:109274004FF4805000F028B800E100E080F3088843
:109284000847000070B50546C1F30B00A8B9B5F551
:10929400FE2F12D80B4E3268072A10D8130103F19F
:1092A400804404F5F0340132C4F80058C4F80418BA
:1092B4000221C4F80818326070BD0720FCE70420BE
:1092C400FAE700BF682F002010B504461348C0F524
:1092D400FE21FFF7D7FF08B1FFF7AFF801F04EFB0F
:1092E4000F4B996901F6FF716FF30B0101440020E4
:1092F400FFF7C8FF08B1FFF7A0F8EFF305830023D9
:10930400D4E9000183F3148883F3108883F311886C
:1093140083F31388BDE81040FFF7B0BF0080070057
:109324003047002037B56FF07F42154C057BD4F8E9
:1093340004358A4228BF0A46891A13444A1E942ACD
:1093440023F07F4305F5A8729CBF963B963141609C
:1093540044F822300B4B4FF4F86043F00103984774
:10936400094BAA00134400221A601B680193019B55
:109374004FF48033AB40C4F8043303B030BD00BFB6
:109384000040024020D80700404102401FB5184960
:109394000B7853BB4FF08043A024D3F81824D20396
:1093A4005CBF01229A60134B0022C3F80021D3F85A
:1093B400000103900398C3F84021D3F840010290C0
:1093C4000298C3F84421D3F84401019001980A4853
:1093D40080F82443102444600220C3F808250122A5
:1093E4009A601A60C3F804030A7004B010BD00BF89
:1093F4006C2F00200040024000E100E070B50B4BF0
:109404001D682A7B4FF480339340094A0E46C2F804
:109414000833044640B1FFF7B9FF2E6021462846C1
:10942400BDE87040FFF77EBF70BD00BF042B002075
:109434000040024070B5074B1D6804460E46A86004
:10944400FFF7A4FF2E6021462846BDE87040FFF7D1
:1094540069BF00BF002B0020014B01221A70704726
:109464006D2F002081422DE9F74F04460F46154623
:1094740004D10023184603B0BDE8F08F3E1B360B21
:1094840002F6FF7800F022F9082E28BF08263303DD
:10949400DFF864B001934FEA1838002DE9D046454F
:1094A4002CBFC246B2464FF000025146204634BF9C
:1094B400DDF80490A94600F0CDFE03460028D9D17A
:1094C40009F1030222F003023946204600F0B4FEFB
:1094D40003460028CED1DBF830304B44CBF8303093
:1094E40001F088F9A8EB0A08A5EB09054C444F44A0
:1094F40003460028D1D0BDE73047002010B501F065
:109504005BFA104A916C01F500535C680E4B9C4267
:1095140012D1D2E90C32934211D0D21A02F6FF7260
:10952400194418446FF30B02FFF79CFF034620B95C
:10953400BDE8104001F05EB90323184610BD0023B6
:10954400FBE700BF30470020DBE5B15138B50F4BD6
:10955400DA6A5D6A9C6CAC2A10D15B6B1C44ED1A10
:109564000B482A46214604F021F868B100F0D4F8EB
:1095740029462046BDE8384000F084BE002CEFD1D7
:1095840001F00CFA0446EBE738BD00BF3047002079
:109594000080070070B5274CE36AAA2B43D005D896
:1095A400012B0CD0A52B3AD0002070BDAC2BFBD1E5
:1095B400FFF7A4FF002834D1FFF7C8FF31E0A56C02
:1095C400666A01F0DBF9226B03469D4205EB02015A
:1095D400104414BFB21A0022FFF744FF054660B9D5
:1095E40001F0CCF92A46314601F0A0FFA36A984263
:1095F40003D10123C4E90703A66100250E4801F045
:10960400B3F90E4B0E4800221A7001F0F3F868B952
:1096140075B1236A012B0CBF02200120C5E7FFF7B7
:109624006DFF0125EAE7FFF791FFE6E70320BCE7BA
:109634000120BAE730470020544700206D2F002056
:109644005D94070010B50024D4F8F83F013304D129
:10965400084940F6F87001F043FED4F8FC3F0133AA
:1096640007D1BDE810404FF4FC2140F6FC7001F036
:1096740037BE10BD008007000A4AD2F800347BB11F
:1096840009480023D2F80815D940C90748BF03F593
:10969400C07103F1010348BF42F82100072BF1D147
:1096A400704700BF000001403546526EFFF7E4BF2B
:1096B400054B002282B0C3F80021D3F80031019396
:1096C400019B02B0704700BF0000014038B50E4C4A
:1096D4002378BBB90D4BD3F800248AB1D3F80455D1
:1096E400FFF7CAFF40F61650A842B8BF28460849FB
:1096F400A0F54860FFF79EFE064B4FF480321A60D7
:109704000123237038BD00BF6E2F002000000140EC
:10971400B196070000E100E0034BD3F800340BB12D
:10972400FFF7AABF704700BF00000140034620B105
:1097340031B10020C1E90003704748F2105070476E
:1097440048F21350704730B1036848F240508B42DE
:1097540008BF0020704748F21050704728B148F203
:109764001150914208BF0020704748F210507047D2
:1097740070B506460C461D46FFF7D8FF50B9B379BD
:109784004AB1AB420AD11146204600F0FCF808B9B0
:10979400044B236070BD48F21050FBE748F21150AF
:1097A400F8E700BF7052464D2DE9F0470C460646D7
:1097B4000F492046DDE9088915461F46FFF7C3FF18
:1097C400A0B963685A79494652004046FFF7C6FF7C
:1097D40060B94DB1CDF820803B462A46214630463B
:1097E400BDE8F04700F0D7B848F21050BDE8F08764
:1097F4007052464D10B5044638B149B10B6841600A
:10980400984708B9044B236010BD48F20150FBE7A8
:1098140048F21050F8E700BF6E524648F0B41346C1
:1098240048B10768094EB7420AD161B12AB1436809
:10983400F0BC5B68184748F201531846F0BC704707
:1098440048F20253F9E748F21053F6E76E524648DD
:10985400F0B460B107680C4EB7420CD171B14368E3
:109864001568DC68A5420CD3F0BC9B68184748F225
:109874000150F0BC704748F20250FAE748F2135026
:10988400F7E748F21450F4E76E5246482DE9F041E8
:109894000446DDE9067815461E46FFF7ABFF60B9BE
:1098A400324629462046FFF7B9FF30B942463946C9
:1098B4002046BDE8F041FFF7CBBFBDE8F0810000D2
:1098C400F8B50A4F0A4C0B4E0123E41B3370E4082D
:1098D4000025AC4203D1022333700020F8BD57F8B1
:1098E400353098470028F9D10135F2E7E8D607006A
:1098F400E8D607006F2F002001390144814200D2CD
:10990400704703780A7800F8012B01F80139F5E76C
:10991400013A02440139824200D2704711F8013FF2
:1099240002F80139F7E770B516460D46FFF7F0FF68
:109934003246A9193044BDE87040FFF7E9BF38B595
:109944000D460446FFF7D8FF29466019BDE83840A4
:10995400FFF7D2BF13681F2B10B5144607D9002296
:10996400083002F05CFA08B92023236010BD48F2E5
:109974001450FBE7083002F02FBA083002F0FCB9AB
:1099840043689B68184708B5436808305A79FFF75D
:10999400CAFF002008BD2DE9F0430C469BB00846E1
:1099A40098461746FFF7ECFFD4F8049099F8055051
:1099B400454528BF454606462A46394602A8FFF7CC
:1099C400A7FF99F8052022990AA8FFF7ACFF009693
:1099D4000AAB2A4602A904F1080003F00FF9002893
:1099E40048F2425018BF00201BB0BDE8F0830000CD
:1099F400831F012B10B5044602D8002000F09CFF01
:109A0400034B1B681BB12046BDE81040184710BD2E
:109A1400702F002008B5074B18600020FFF7E8FFFF
:109A2400054800F071FF20B9BDE80840024800F085
:109A3400D7BD08BD702F0020F59907006CDF704773
:109A44006DDF704772DF704773DF704774DF7047F4
:109A540075DF704776DF70477ADF70477CDF7047C9
:109A64007DDF70477FDF704786DF70478FDF704789
:109A740090DF704713DF7047A8DF7047AADF704795
:109A8400ADDF7047AEDF7047B0DF7047B1DF7047BE
:109A9400B5DF704762DF704766DF704701460148F3
:109AA40001F063BEF0D6070070B518228CB0002117
:109AB4000DEB020003F0E6FD2823089316231F4C48
:109AC400ADF806300023CDF80E30CDF81230ADF8E5
:109AD40016300223092606222370237159230125F7
:109AE400A27063710322FE230DF10601A0198DF803
:109AF40018508DF82D500294ADF80C606570E2702A
:109B0400A371FFF7ADFFB8B9BDF8063026725A1934
:109B1400E271BDF80C200A4C134402A906AA20469F
:109B2400ADF80C30FFF78EFF30B92078FFF78EFFC9
:109B340020782946FFF788FF0CB070BD742F0020F1
:109B4400282B0020154938B50B68024613F0010094
:109B540022D0134882421ED0124A10884FF6FF7258
:109B6400904213D043F004030B601321FFF772FFFC
:109B740090B90D4DC82445F001054FF47A40A8472B
:109B8400013CFAD1BDE8384003F04ABA074B1878D3
:109B9400FFF75CFFF6E7002038BD00BF004000205F
:109BA400E8D607002A2B002000DA0700282B002023
:109BB400F0B50388232B8BB0044635D80F2B04D87B
:109BC400012B00F0F7800BB0F0BD103B132BFAD83B
:109BD40001A252F823F000BF5D9C07007B9C0700A4
:109BE400CB9B07005D9D07009F9E0700CB9B070052
:109BF400CB9B0700CB9B0700CB9B0700CB9B0700AD
:109C0400AD9E0700CB9B0700CB9B0700CB9B0700B7
:109C1400CB9B0700879D0700CB9B0700959D070002
:109C2400CB9B0700439D0700503B9AB2062ACAD833
:109C3400062BC8D801A252F823F000BFA79C070046
:109C4400C59D0700AD9E0700CB9B0700CB9B07007B
:109C5400FF9C0700A59D0700974D83882B80974B99
:109C64001B680BB101209847954928880BB0BDE8C3
:109C7400F040FFF7EDBE904B4FF6FF721A80914B08
:109C84001B685A0704D4FFF70FFF08B1FEF7D5FB92
:109C94008A4B1B68002B96D002200BB0BDE8F04025
:109CA4001847894EE288B3889A428CD1874801F0DC
:109CB40038FD0546002886D0228A04F1120103F0FB
:109CC400AFFC1822002104A803F0DCFC08238DF863
:109CD40010307F4B06937F4B0596CDE9073504A8DA
:109CE400238AADF8243000F071FC00283FF46BAFF8
:109CF4007648294601F039FD65E7E188F6291CD844
:109D0400CB1E9B070DD0CB1F9BB2013B5A4202F0E6
:109D1400030203F0030301F1FF3158BF5342C91A90
:109D240089B2654B1888FFF7B3FE00283FF44BAFA8
:109D34000BB0BDE8F040FEF780BBF721F1E700224D
:109D4400808804A9CDE90422FFF792FE00283FF49D
:109D54003AAFFEF772FB36E7574C02230493208890
:109D640002AB04AA42F605210593FFF789FE08B168
:109D7400FEF763FB002320881A468521FFF772FE55
:109D8400E4E74D4B00F108011888FFF761FECCE7CA
:109D9400002304A98088ADF81030FFF767FED5E7EB
:109DA400A379002B7FF40FAF434B13211888FFF7DF
:109DB40051FEBAE7404B00211888FFF76DFEB4E767
:109DC400A379002B3FF4FFAE022B7FF4FCAE3E4D93
:109DD4002189AA8991427FF4F6AEA27B012A7FF4FD
:109DE400F2AE4FF480320592228A334EADF8182039
:109DF400628AADF81A2004F11402079201AF298A8D
:109E04003088049302AA02930397FFF739FE60B9DE
:109E14003846FFF709F940B940F2FD133088ADF830
:109E2400143004A9FFF730FECDE6002304A93088DE
:109E3400ADF81430FFF728FE014600287FF4C3AEC6
:109E4400182204A803F01EFC237D214A8DF810304B
:109E5400022B0595069219D0062B05D0012B06D0AE
:109E640004A800F0B3FBAEE6637D0893F8E71A4B51
:109E74001A881A4B1A80637DD4F816200893012B94
:109E84000992EDD1164800F057FDE9E7124AB4F8FB
:109E940015301380114A1380E2E700231A4619464D
:109EA4008088FFF7E1FD40E70023A0881A461946A1
:109EB400FFF7ECFD39E700BF2A2B0020E43F002028
:109EC40006DA070000400020EC3F0020F0D607002F
:109ED400299F0700A19A0700EA3F0020E83F0020DD
:109EE400E8D607007FB50023CDF80B308DF80F308E
:109EF4000A4BADF806109B89ADF8083001238DF8A4
:109F04000A300DF10603CDE90430054B02A9188887
:109F1400FFF7B8FD07B05DF804FB00BFEC3F00207D
:109F24002A2B002010B5044686B01122002101A876
:109F340003F0A8FB2378082B0BD1374A3749138841
:109F44000988013B9BB21380D9B1D3B90323118093
:109F54002370627823788DF805306021012A8DF80A
:109F640004108DF806200ED00B2A12D100F080F9CF
:109F74008DF80700002000F075F9042101A8FFF70F
:109F8400B1FF06B010BD062B05D0082B29D0032B3A
:109F940027D00321F2E7E1688DF80710D4E9012303
:109FA400080A8DF80800080C090E8DF80A10110A29
:109FB4008DF80B208DF80C10110C120E8DF80E205C
:109FC4001A0A8DF80F308DF810201A0C1B0E8DF81C
:109FD4000D108DF809008DF811208DF812300F2125
:109FE400CCE7D4E90123110A8DF807208DF8081075
:109FF400110C120E8DF80A201A0A8DF80B308DF808
:10A004000C201A0C1B0E8DF809108DF80D208DF8FC
:10A014000E300B21B2E700BFE83F0020EA3F0020EA
:10A024002DE9F0413C4B94B005464FF6FF721A807F
:10A0340001204FF659632A4602A98DF80A00ADF8AB
:10A044000830FFF719FD0446002861D1334B04AAF8
:10A0540003F11007164618685968144603C40833F8
:10A06400BB422246F7D1A91C3046FFF713FD044634
:10A0740000284DD101461C220DA803F003FB9DF8D6
:10A0840034300C9443F004038DF834300223ADF8DB
:10A094000C30AB788DF80E3003238DF80630F423A2
:10A0A400CDE90A44ADF82C302B464FF4885833F8E8
:10A0B400040BADF8048003AF01AE08AA0DA90897FC
:10A0C4000996FFF7DBFC044610BB01461C220DA8D1
:10A0D40003F0D8FA18238DF834300123ADF80C308E
:10A0E400AB788DF80E3013238DF806301723CDE9A5
:10A0F4000A44ADF82C302B4608AA33F80C0B0C9408
:10A104000DA9CDE90876ADF80480FFF7B7FC044645
:10A11400204614B0BDE8F0812A2B00200EDA070097
:10A1240030B5324C236813F0010585B05BD1304B58
:10A134001860304801F0DEFA029500F0B4F8002807
:10A144004FD12D48FFF796FC00284AD102F02AFF90
:10A15400002846D102A802F0F7FF002841D102A945
:10A16400012002F0FBFF00283BD102A803F048F8CD
:10A17400002836D100F0A0FB30B1204800F08CFB61
:10A18400236843F002032360112302A88DF80430EE
:10A19400FFF756FC28BB9DF8093002A801338DF85F
:10A1A4000930FFF74BFCE0B923689B074BBF134909
:10A1B40013498A690D2248BF043192B201A8FFF7FE
:10A1C4004DFC70B90F48FFF747FC50B90E48FFF734
:10A1D40027FF30B9FFF768FC18B9236843F001037F
:10A1E400236005B030BD0020FBE700BF0040002025
:10A1F400E43F0020F0D60700008007000440002060
:10A204009FD7070006DA0700EC3F002043690BB133
:10A21400C0681847704700000449054B002290426B
:10A2240018BF1946034801F0BABA00BF20DA070084
:10A234004CDA0700E82A002007B5009313460A46C3
:10A244000146034801F0AFFA03B05DF804FB00BF18
:10A25400E82A002013460A460146014801F0AABA3A
:10A26400E82A0020014B18700B2070472040002082
:10A27400024B002218781A70704700BF204000205B
:10A2840018DF704730B585B0054610220C46684685
:10A29400002103F0F7F9A408684601950294FFF73A
:10A2A400EFFF05B030BD1FB50023CDE901330393A3
:10A2B400684602230093FFF7E3FF05B05DF804FB53
:10A2C4004FF000534FF480521A6000207047000092
:10A2D400014B06201B681847244000200A2803D994
:10A2E4000B38C0B2FFF7BEBF7047000010B504467C
:10A2F40086B0002001F066FA014638B1174A1821E9
:10A30400204606B0BDE8104001F044B81822684663
:10A3140003F0B8F90423124A8DF80030114B116D83
:10A324001B68994212D1104B186800F05BFF8DF83E
:10A334000100FFF7D3FFD4E901138DF8010068464B
:10A3440098470A4800F056FA06B010BD01238DF86C
:10A3540001306846D4E901139847F5E7F1A20700F4
:10A3640030470020284000202C400020D5A20700C0
:10A37400F0B5044687B0162200210DF1020003F067
:10A3840081F923788DF8003001220C2B8DF80120FF
:10A3940000F210819A4012F4AD7F15D1022B06D041
:10A3A4000C2B40F00781844B07201B689847D4E9A5
:10A3B4000113684698479DF80130012B00F0EF80A7
:10A3C4007D4B05201B68E9E0062B7C4A01D0012B5C
:10A3D40001D1216911701178012904D0022954D0C6
:10A3E4000023137096E0013B072BE0D801A252F83A
:10A3F40023F000BF19A40700B3A3070083A4070038
:10A4040057A40700B3A307007DA40700B3A3070064
:10A4140031A40700684B03201B689847606900F06B
:10A42400C5FCFFF75BFF8DF80100C0E7A18A206936
:10A4340000F0D4FCFFF752FF614B8DF80100DA6B9A
:10A444001B6C0293E3680192002BB0D020699847FB
:10A45400ADE75C495C4800F00FFDFFF73FFF0128C2
:10A464008DF80100A3D1002000F0C4F900289ED08B
:10A474000A238DF801309AE74FF400730393504B8D
:10A48400DA6B1B6C0192029391E7013B072B8ED888
:10A4940001A252F823F000BFBDA40700B3A3070034
:10A4A40073A507007DA50700B3A30700A7A50700B0
:10A4B400B3A307001DA5070000F0B0FC08B90823EA
:10A4C400D7E762690AB90323D3E7C2F30B0333B1B5
:10A4D4003B4B3C495B6D096813448B42F3D1B2F5A5
:10A4E400805F01D90423C4E7354B3649586D0968A8
:10A4F40015188D42E3D85A64DA6C9A6418651863A7
:10A50400314B1B68002201211844FFF7A3FE0028E9
:10A514003FF44DAF0523ACE700F080FC0028CED01B
:10A52400274DA18AD5E914329B1A6A6C0B449342D5
:10A53400C9D8254B2F6B1B68206905F148021F44BD
:10A5440000F0F4FFE368A28A216906463846FFF763
:10A5540073FE08B1E36879E7A38A2A6BAE641A44F0
:10A564002A632A6D029613442B6501931FE7144B4B
:10A574009A6C02921B6DF8E7114BD3E91402596CE3
:10A58400821A8A429BD19A6C5865002120465964EC
:10A59400DA64FFF7ABFE084B1B680420984707B04A
:10A5A400F0BD074B9A6C1B6D01934FF480530292DC
:10A5B4000393FCE602235CE7244000202C2B0020BC
:10A5C40030470020284000202C40002083681BB125
:10A5D400024A182100F0DEBE0720704775A3070069
:10A5E40038B50546C0B10120FFF716FE044648B948
:10A5F40000F0CEFB00F012FC30B9084B00201D60C7
:10A60400FFF730FE204638BD0549064800F034FC0B
:10A614000128F2D00324F5E70724F3E724400020BF
:10A62400284000202C400020F8B514464FF46072F6
:10A6340005460F461E4602F0B9FF18B904B1A047FB
:10A64400002006E0002201212846FFF703FE08B19E
:10A654000320F8BD4FF460723946304602F0E0FF43
:10A6640023464FF4607231462846FFF7E5FD002883
:10A67400E6D0EDE72DE9F0413F4C2368013362D089
:10A6840000225821201D00F051FF27683A1A574232
:10A694005741DFF8F880394ED8F800502B68013361
:10A6A40066D000225821281D00F040FF2B68834209
:10A6B4004BD16C68012C0AD00022C32105F5187017
:10A6C40000F034FFD5F85C42231A5C425C41002F51
:10A6D4003DD0294929484FF4607202F0A1FF6CB1C2
:10A6E400D8F8004026485422211D02F099FF25483D
:10A6F4004FF4327204F15C0102F092FF7768012F8B
:10A7040034D1214CA4F5E4750FCD0FC40FCD0FC483
:10A714000FCD0FC495E80F0084E80F0004F1100575
:10A72400A4F5DC740FCC0FC594E80700002386F869
:10A73400603286F8E232F36986F8A17285E8070090
:10A74400C6F8A23210E00027A3E70024BFE72CB12B
:10A75400D8F8001009484FF46072CDE707484FF469
:10A764006072002102F08EFF02237360BDE8F08165
:10A77400002FF3D00024ACE700F00700304700209E
:10A78400344700208C470020544A0020302B0020FE
:10A7940070B50D4C054600225821204600F0C6FE37
:10A7A400002244F8040CC32104F5177000F0BEFE27
:10A7B400261FC4F858022A463146044B0448BDE813
:10A7C4007040FFF731BF00BF34470020B043002082
:10A7D40000F0070002460248024B0068FFF724BF5E
:10A7E400302B0020304000200149FFF7F3BF00BFA9
:10A7F40000F0070038B505460020FFF7C9FF0446FE
:10A8040018B903492846FFF7E5FF204638BD00BFC5
:10A814003047002010B5FFF7FFFC044608B10320C1
:10A8240010BDFFF727FF2046FFF7E4FF0028F7D00D
:10A83400F5E7000010B5084C4FF40072FF212046E4
:10A8440002F020FF20220021A4F1240002F01AFFCC
:10A85400002344F82C3C10BD8C47002029DF7047AE
:10A8640038B50C4D0446D5F8643378B101330FD1B3
:10A8740000221821043000F059FE214620600722EE
:10A8840005F55970BDE83840FFF7E8BF0E2038BD24
:10A894000820FCE700F0070050B1064B03F11C024E
:10A8A40053F8041B40F8041B9342F9D1002070476D
:10A8B4000E20704764F3070010B5064C00221821DF
:10A8C400204600F033FE54F8043C1B1A5842584109
:10A8D40010BD00BF68F3070010B50A4CD4F8243348
:10A8E400D4F864231340013309D04FF4FE2000F060
:10A8F400DFFCC92221464FF4FE2000F007FD0020B2
:10A9040010BD00BF30470020F8B5094F094CE41BC7
:10A914000646E4080025A54201D10020F8BD57F8F9
:10A924003530304698470028F8D10135F3E700BFA9
:10A93400E8D60700F0D60700F8B5094F094CE41B28
:10A944000646E40800250437A54201D10020F8BDDD
:10A9540057F83530304698470028F8D10135F3E7E9
:10A96400E8D60700F0D60700034A002303604360DB
:10A9740083601363704700BF304700204FF4405397
:10A98400054A5968914203BF986800F6FF706FF357
:10A994000B004FF480507047DBE5B15108B5FFF769
:10A9A400EDFF044B9B69184400F6FF706FF30B0036
:10A9B40008BD00BF304700204FF4805070470000AE
:10A9C4002DE9F047DFF8989005460F46164698465D
:10A9D4004FF0000ABAF1010F1DD0BAF1020F29D0CD
:10A9E400FFF7DCFFAEB11B4B1C6A631E5C425C418B
:10A9F400A9EB0000A84200D317B3FCB90AF1010A7D
:10AA0400BAF1030FE6D1A84221D31348FFF7ACFFF4
:10AA14001AE03446ECE7FFF7B1FFB8F1000F07D1B5
:10AA24004FF440535C680D4BE41A18BF0124DFE770
:10AA34005446DDE701244FF48050D9E7A84206D3F9
:10AA44005FFA8AF3002BE0D10020BDE8F0870420F0
:10AA5400FBE700BF3047002048470020DBE5B15149
:10AA64000060070090F8552012F0FB0F07D190F812
:10AA740064305BB1836ECBB10B600120704712F080
:10AA8400010303D090F8563003B1836D9207F2D5D9
:10AA940090F85C20002AEED0054A006EC2F5FC2234
:10AAA400904201D80344E6E7042070470F20704722
:10AAB400008007002DE9FF472F49304D8A6B304C49
:10AAC400304FDFF8D490DFF8D4A06E465C313046C6
:10AAD400FDF7C6FE96E80F0085E80F0000212A4B1B
:10AAE40039704FF447722046C9F80010CAF80010B4
:10AAF400EB6002F0C7FD254922462846FEF746F9D9
:10AB040020B90027384604B0BDE8F0873F78002F0D
:10AB1400F7D094F86C3194F800801BB3B8F1000FAF
:10AB2400EFD194F87231002BEBD0DAF80020D9F889
:10AB340000103046FDF794FE96E80F0085E80F00FC
:10AB44004FF4B272414604F5BA7002F09BFD10490D
:10AB540004F5BA722846FEF719F90028D1D004F595
:10AB6400BA7406E0B8F1000FCBD0A379002BC8D09B
:10AB74000834084B1C60C5E730470020804B002098
:10AB8400984B0020B04A0020A5AB07004CD8070022
:10AB9400ECD807007C4B0020944B0020904B002005
:10ABA4005B68DA680D4B9A4230B50AD1D0E90134BA
:10ABB4000B48026812B90B490A681AB10A4B002201
:10ABC4001A7030BD1A4612F9015B002DFBDB2344D9
:10ABD4009B1A02600B600122034BF1E7ECD80700DB
:10ABE400944B0020904B0020B04A00204FF4405278
:10ABF40010B55168114C00F50053A142586803D0B8
:10AC0400031B5842584110BD884214D111781429AD
:10AC140082BF50690A4AB0FBF2F01A7898BF00204C
:10AC2400142A83BF5B69064AB3FBF2F30023C01AFC
:10AC340018BF0120E7E70020E5E700BFDBE5B151DD
:10AC440040420F0000B591B0FEF73AFE684608494D
:10AC54002022FEF768FE6A46064907484023FEF7AD
:10AC640087FD064B01221A7011B05DF804FB00BF8A
:10AC7400B0D70700344B002040D80700B14A002069
:10AC8400F0B5A3B007460C4615461E46782220238D
:10AC9400002104A8029302F0F5FC002303931C4B4B
:10ACA4001B780BB9FFF7CEFF5CB367BB02AB019314
:10ACB400184B00931849289B324604A8FEF7E6FD7A
:10ACC40018BB402D21D1154B214604F140021C46EE
:10ACD40051F8040B43F8040B9142F9D10F48202199
:10ACE400FEF72DFE4023CDE900430A4A029B0C499E
:10ACF40003A8FEF759FD002814BF0520012023B046
:10AD0400F0BD1320FBE71620F9E70A20F7E700BFA0
:10AD1400B14A0020D24A002028D80700F24A002075
:10AD2400344B0020F0B5ABB004460D4616461F4622
:10AD34007822202300210CA8039302F0A3FC114BDA
:10AD44001B780BB9FFF77EFF2FB12146202204A800
:10AD5400FEF7DEFD04AC03AB0B4F01930B490097E8
:10AD640033462A460CA8FEF791FD48B92022214615
:10AD7400384602F01BFCB0FA80F040092BB0F0BD5D
:10AD84000020FBE7B14A0020B24A002028D807007F
:10AD940008B5044B986B08B1FFF78CFE024B187092
:10ADA40008BD00BF30470020B44E002010B5044653
:10ADB40058B1B0F5007F0AD8064B00221A70FFF78D
:10ADC40039FD054B01209C6310BD0320FCE70420E2
:10ADD400FAE700BFB44E00203047002070B50E4C97
:10ADE4000646E06BA36B42189A420D4611D85C30BC
:10ADF4000A462044314602F013FCE36B04F140029E
:10AE04002B4429463046E36300F090FB2064012084
:10AE140070BD0320FCE700BF30470020014B1878C9
:10AE2400704700BFB44E002013B5104C94F86C2149
:10AE3400B2B194F8D802B4F8DA2204F5377104F503
:10AE4400B8740B4B1B6800930A4B1B68FFF718FF81
:10AE5400012809D1201D02B0BDE8104000F0C6B998
:10AE6400114610460434ECE702B010BD984B0020A4
:10AE7400904B0020944B0020204BD3E90E329A4291
:10AE84002DE9F04106460D4633D1DFF8788098F875
:10AE940000704FB1FFF782FD194B306029461868E6
:10AEA400BDE8F041FFF7DEBDFFF704FE18B3FFF77E
:10AEB400BBFF0128376004462F6017D1104B294689
:10AEC4001868FFF7CFFD012804460FD103463A4620
:10AED40028683946FFF774FD38B9FFF75FFD88F835
:10AEE400004030602046BDE8F0810424FFF7A2FC56
:10AEF400F8E70824F6E70524F4E700BF304700200C
:10AF04007C4B0020B44E002001237230FFF70ABFAF
:10AF140013B50446084623781146032B22D8DFE8EC
:10AF240003F002050F18012002B010BD0022D4F86E
:10AF3400014000F0FBFA844214BF00200120F3E733
:10AF44000A4600230146601C02B0BDE81040FFF72A
:10AF5400E9BE009103464022611C0020FFF790FEE9
:10AF64000128E9E70020DFE72DE9F043A3B0054617
:10AF74000E461446002178221F4604A820239DF87B
:10AF8400AC900393DDF8A88002F07CFB4122002101
:10AF9400284602F077FBB6F89430A34282BF4423DC
:10AFA40003FB046393F8969085F80090B9F1030FBE
:10AFB4001CD8DFE809F009020F1F00224146384679
:10AFC40000F0B4FAC5F80100424639462846FFF7B6
:10AFD4009FFF0CE003AB01936B1C00930C494346A9
:10AFE4003A4604A8FEF752FC0028EDD0002023B016
:10AFF400BDE8F083442303FB0463644204F0440487
:10B004009A34B3F898203119681C02F009FBDBE785
:10B0140028D807002DE9F0476C4B1D68A4B00446FE
:10B024000F4690460A4601462846FFF76DFF002862
:10B0340000F0C98095F8556096BB4FF00109CDE941
:10B04400007923463246294613A8FFF78DFF50B9ED
:10B054000525B8F1000F40F0AA80FFF7EBFB284666
:10B0640024B0BDE8F087B8F1000F00F0A880DFF845
:10B074006081412213A908F2A12002F0D1FA6B6881
:10B08400C8F82C90C8F82060C8F808300022394667
:10B09400204600F04BFA4E4B0125C3E9097089E0C4
:10B0A4004122002102A802F0EDFA06F00109412232
:10B0B400002113A806F0020602F0E4FAB9F1000F29
:10B0C4006ED004F50052434B5068D5F858A098420E
:10B0D400BED10AF5FF530AF6FF71C1F30B011F330A
:10B0E4005B1A91689942B3D34FF440535968814233
:10B0F4000CD11978102988BF1969137898BF0021D9
:10B10400102B8CBF136900239942A1D12046FFF76D
:10B114006DFD002841D10123CDE900A3002223467F
:10B12400294602A8FFF720FF002891D0AA6DA31892
:10B13400BA1A4EB10021CDE9002113A84A46294686
:10B14400FFF712FF002883D0B8F1000F37D0DFF8E3
:10B154008080B9F1000F26D02046FFF747FD18B1D3
:10B1640008F11800FFF700FC1B48412202A902F075
:10B1740057FA002E0CBFA523AC23C8F82C30AB6DB6
:10B18400C8F83430002E81D01448412213A902F0AB
:10B1940047FA6B68C8F80C3078E7002EBBD157E744
:10B1A4003A462346C5E7AA23C8F82C30EAE70C48F8
:10B1B400FFF7DAFBFFF73EFB054B9C644FE7044BBC
:10B1C40001255D614BE7172543E700BF7C4B002059
:10B1D40030470020DBE5B15190490020124A00209D
:10B1E400544700200122FFF715BF000090F85430A7
:10B1F400F0B5002B49D090F85530032B45D890F882
:10B204006E20032A3FD1027A002A3ED0C268342A33
:10B214003DD14FF4405520496C68028A8C4221D1BB
:10B2240042B14169D9B1D2B200F110040021CEB2C9
:10B23400B24201D8122020E0AE8954F8047FB7420C
:10B2440001F10101F3D10278C2B1012B21D9134BD1
:10B254004068DB68984294BF102001200DE0012B68
:10B26400F1D1E7E712B14269002AE3D1012BEAD117
:10B274000378002B14BF01201220F0BD022B34BF31
:10B2840001200F20F9E71420F7E70F20F5E711203C
:10B29400F3E70120F1E700BFDBE5B15130470020BF
:10B2A400024AD2F80034002BFBD0704700E0014082
:10B2B4000A4908B50223C1F80435BFF36F8FBFF301
:10B2C4004F8FC1F80805FFF7EBFF0023C1F80435E1
:10B2D400BFF36F8FBFF34F8F08BD00BF00E0014085
:10B2E40010B5094C0123C4F80435BFF36F8FBFF3C5
:10B2F4004F8F0160FFF7D4FF0023C4F80435BFF378
:10B304006F8FBFF34F8F10BD00E0014070B50E4E3C
:10B3140001231546C6F80435BFF36F8FBFF34F8F73
:10B324000024AC4207D10023C6F80435BFF36F8F65
:10B33400BFF34F8F70BD51F8243040F82430FFF72D
:10B34400AFFF0134EDE700BF00E001404B1C30B516
:10B35400DB00044612F003009BB20DD1074D2A60B6
:10B364001A44074B1A60074B1870074B1870074BA9
:10B374001C80074B198030BD0720FCE7C04E00201D
:10B38400BC4E0020BA4E0020BB4E0020B84E002018
:10B39400B64E00202DE9F743DFF8BC80B8F8003042
:10B3A4008B4206460D46174648D300240DF107008C
:10B3B4008DF8074000F080F8224B234A23481B787D
:10B3C400008892F800C084455FFA8CF138BF0131DF
:10B3D400DBB238BFCCB2A34229D014781178CBB2F7
:10B3E400884286BF0133DBB20023E4B213709DF8B8
:10B3F400070000F085F84FF6FF739C4220D0144BF1
:10B404001B6843F8347003EBC4099EB195B1114B2A
:10B41400B8F800001B682A46314604FB003002F0ED
:10B42400FFF8A9F80450002003B0BDE8F0834FF6FC
:10B43400FF74DCE70023A9F80430F4E70920F3E7FC
:10B444000420F1E7BB4E0020BA4E0020B64E002087
:10B45400C04E0020BC4E0020B84E002070B5104CE9
:10B46400104D22782B789A4200D170BD0E480F4AB5
:10B474002378126806880E4802EBC301006852F86C
:10B484003320898803FB060090470A4922780988FB
:10B49400D3B2914286BF0133DBB200232370E0E7CD
:10B4A400BB4E0020BA4E0020B84E0020C04E0020F3
:10B4B400BC4E0020B64E002070B5EFF3108672B675
:10B4C4000C4A9468012384B993600B4B0B4DD3F859
:10B4D400801029401160C3F88050D3F88410516063
:10B4E4004FF0FF32C3F884202346037006B962B6D6
:10B4F40070BD00BFC44E002000E100E0FC06FFBDAB
:10B50400084B9A6810B55AB150B9EFF3108172B66E
:10B51400054A1C6814605C685460986001B962B69E
:10B5240010BD00BFC44E002000E100E030B53AB1C8
:10B534001368DB430A4D0144884204D1D84330BD2B
:10B544004FF0FF33F6E710F8012B5340082213F0B5
:10B55400010418BF2C46013A84EA5303F7D1EBE700
:10B564002083B8ED10B561B1B2FBF3F403FB1424EE
:10B57400A4B244B9C0E9001484608281C381204626
:10B5840010BD0E20FCE70920FAE782B050E8022F34
:10B59400C188B2EB324F4FF0000317BF92B241EAB9
:10B5A400014142EA014104E04268B2EB324F08BF74
:10B5B400012340E80212002AE8D18DF807309DF8F3
:10B5C4000730002B0CBF1120002002B0704737B5A4
:10B5D40050E8013F9DB2C48925448489A54228BF0F
:10B5E4002D1B0489A54202BFBFF32F8F002207E061
:10B5F400C5EA030540E80154002CE9D14FF00102EB
:10B604008DF803200193019A0A609DF8031001F05C
:10B61400FF0321B1006810FA82F003B030BD184670
:10B62400FBE70A884B889A4209D150E8012FC2EA05
:10B63400024240E80123002BF7D10120704700208B
:10B64400704737B550E8023F1FFAA3F5C488A542F6
:10B6540002BFBFF32F8F00220DE0C48925448489E3
:10B66400A54228BF2D1BC3EA054540E80254002C1F
:10B67400E8D14FF001028DF803200193019A0A608A
:10B684009DF8031001F0FF0321B1006800EB1240A4
:10B6940003B030BD1846FBE70A884B889A4209D1AB
:10B6A40050E8022FC2EA224240E80223002BF7D1DD
:10B6B400012070470020704710B5034653E8000F7F
:10B6C40040EA010243E8002494F0000FF6D110BDD3
:10B6D40010B5034653E8002F02EA010043E80004D2
:10B6E40094F0000FF6D110BD0121FFF7E5BF002152
:10B6F400FFF7EEBF10B590B1D0E9012301689B1AA2
:10B70400DBB20A60013BDBB2FF2B026802D10020EE
:10B71400107110BD11684C1C14600B70F2E70E2000
:10B72400F7E737B5054600240DF107008DF807400B
:10B73400FFF7C2FE2A68696813688B420ED9591E46
:10B74400116013F8013C288AEC6800FB0344AB68E1
:10B754005B1A1179DBB2994238BF13719DF8070067
:10B76400FFF7CEFE204603B030BD37B505460023B3
:10B774000DF107000C468DF80730FFF79DFE2A688F
:10B784001368591C1160EA68A41A2A8AB4FBF2F4FB
:10B794001C709DF80700FFF7B3FE03B030BD0B68C3
:10B7A40001601146184710B40468E468A4465DF8C3
:10B7B400044B604710B404682469A4465DF8044B44
:10B7C4006047000070B550B90E4D0F4C0026641B45
:10B7D4001423B4FBF3F4B44208D1002010E003684E
:10B7E400002BF1D0BDE87040DB6918472B6813B912
:10B7F40001361435EFE7DB69284698470028F7D06F
:10B8040070BD00BFE82A0020FC2A0020014B4360E1
:10B814000020704740DA0700084670470020704750
:10B82400024B1868003818BF01207047D04E002022
:10B8340008B50248FFF75BFF002008BDD04E00208A
:10B8440008B510461A4601F0EBFE002008BD0000C2
:10B854002DE9F041804686B011480F4616461D4634
:10B86400FFF742FF0446C8B9AA0831463846FFF735
:10B874004DFD0B48FFF73BFFD8F8083053B10122C8
:10B884008DF800200C9A0592CDE90147CDE90365B6
:10B8940068469847204606B0BDE8F0811124F9E7D0
:10B8A400D04E00202DE9F043814687B014480E465F
:10B8B40015469846FFF718FF0446F0B90746BD42FF
:10B8C40015D10F48FFF713FFD9F808305BB10222F6
:10B8D4008DF800200022CDE90126CDE90325CDF81D
:10B8E400148068469847204607B0BDE8F08306EB0D
:10B8F4000730FFF7DDFC0137E1E71124F3E700BF70
:10B90400D04E002029DF704728DF704770B50368E8
:10B914009E6886B004460D466EB114220021684626
:10B9240001F0B0FEA3680593237901952BB1012B97
:10B934000DD06846B04706B070BD01238DF80030C5
:10B9440023690293E368039363690493F1E7022391
:10B954008DF80030E3681B030293F5E7084670474F
:10B9640000207047024B187A003818BF0120704736
:10B97400DC4E0020034B187A0122B0FA80F05A748E
:10B9840040097047DC4E002008B510461A4601F005
:10B9940047FE002008BD000008B514220021044819
:10B9A40001F070FE0348FFF7F0FD002008BD00BF62
:10B9B400DC4E0020F04E002010B5094C094B4360CA
:10B9C4002046FFF791FE48B901F06AFB064920744E
:10B9D4001C2306484FF4EE72FFF7C4FD002010BD8F
:10B9E400DC4E00206CDA0700004F0020F04E0020EF
:10B9F40038B5224C224D237A3BB922492248FFF71D
:10BA040020FE286008B9606038BD022323722B68C9
:10BA14001A7972B1012A22D028680321FFF776FF30
:10BA240000232372636017491748BDE83840FFF7C5
:10BA340033BED3E90520121A142AD3E9031328BF0D
:10BA440014229208012A014438BF01221844FFF746
:10BA540059FF50B11128DFD101232372D4E7D3E970
:10BA640003031844FFF750FFF3E7237C002BCBD1EB
:10BA7400BDE83840022000F009B800BFDC4E0020C9
:10BA8400D84E0020D44E0020F04E002038B5224C71
:10BA9400237A002B3FD0022B09D103282ED01F4B31
:10BAA40000221B68E2601A793AB1012A20D0637C33
:10BAB4006BBBBDE83840FFF79BBFD3E905128D1A75
:10BAC400142D94BF521914329A619142EFD1022875
:10BAD4004FF0000308BF19462372104B18BF0D2105
:10BAE4001868FFF713FF0E490E48FFF7D5FDDEE790
:10BAF4001A6901321A615B699A42E7E7E368013324
:10BB0400082B01D8E360D2E70023E360DFE7BDE858
:10BB1400384001F0B5BA38BDDC4E0020D84E0020C4
:10BB2400D44E0020F04E0020831E012B01D8FFF7D5
:10BB3400ADBF704700F0FD03012B08D1044B002278
:10BB44005A74421E504250411874FFF751BF704757
:10BB5400DC4E002008B50648FFF7C6FD30B9054B9A
:10BB64005B7C1BB9BDE80840FFF742BF08BD00BFBE
:10BB7400E04E0020DC4E00202DE9F34180460D46C6
:10BB8400104801A916461F46FFF721FD0446B0B12F
:10BB940017220021053001F075FD2D0B01232371BF
:10BBA40001A90848C4F80080A760E5606661FFF752
:10BBB40038FDFFF7CFFF002002B0BDE8F08104207C
:10BBC400FAE700BFF04E00202DE9F34180460F460E
:10BBD4000F4801A916461D46FFF7F9FC0446A8B113
:10BBE40018220021043001F04DFD089BA36001A937
:10BBF400C4E903670648C4F800806561FFF711FDD6
:10BC0400FFF7A8FF002002B0BDE8F0810420FAE7A6
:10BC1400F04E0020D1E90032934208BF00230160B6
:10BC240043607047436843B10268916852680B44AB
:10BC34009342436004BF0023436070472DE9F04FF3
:10BC4400C9B008AA01F1400514464B780E781B04CC
:10BC540043EA0663CE7833438E78043143EA0623FD
:10BC64008D4244F8043BF0D11024916B16464FEA00
:10BC7400F14383EA714383EA9123716A366852F887
:10BC8400045F31440B444FEAB54181EAF51181EA7E
:10BC9400D50101340B44402CD363E6D1D0E914E33D
:10BCA4000093836D0193C36D0293036E0393436EFC
:10BCB4000493836E0593C36E0693DDE9057ADDE98B
:10BCC400031CDDE901592B4B009E079374464FF08A
:10BCD4000008079A08AB52F804BB53F828300792BF
:10BCE4004FEAF12282EAB1129B4482EA71625A4419
:10BCF40027EA010301EA0C0B83EA0B031A445244BA
:10BD040086EA05034FEA743A06EA050B8AEAB40A9E
:10BD140023408AEAB45A83EA0B0308F10108534426
:10BD2400B8F1400F02EB090B1344A946BA4619D1E6
:10BD340073440365009B23444365019B334483653B
:10BD4400029B2B44C365039B5B440366049B0B4427
:10BD54004366059B63448366069B3B44C36649B0C4
:10BD6400BDE8F08F674635468C46264659461C4644
:10BD7400AFE700BF78DA070030B5E0B10F4A1049E9
:10BD840000240025C0E91245C0E914120D4C0E4AE6
:10BD94000E4DC0E916420E4AC0E918520D4A826699
:10BDA40002F17452A2F523020023A2F69242036424
:10BDB400C266184630BD0E20FCE700BF85AE67BBE7
:10BDC40067E6096A72F36E3C3AF54FA57F520E514D
:10BDD4008C68059BABD9831F70B50C4640B12AB95A
:10BDE400A5180026AC4205D1002070BD0029F7D16A
:10BDF4000E20FAE7036C14F8012BC2540133402BD4
:10BE04000364EFD10146FFF719FFD0E9123213F5AD
:10BE1400007342F10002C0E912320664E2E7F8B5A9
:10BE24000D4617460446002875D0002973D0066CC9
:10BE34008022731C372EA25518443ED8C6F137020F
:10BE4400002101F01FFCD4E912230821E6FB0123A1
:10BE5400C4E9122312BAE26323FA01F284F83B30F4
:10BE640084F83A201A0C1B0E214684F8392084F8F1
:10BE740038302046FFF7E2FE691E6FB30023E26EFE
:10BE8400DA4001F8012FA26EDA400A71626EDA40DC
:10BE94000A72226EDA400A73E26DDA400A74A26D05
:10BEA400DA400A75626DDA400A76226DDA400833A8
:10BEB400202B0A77E3D10020F8BD402BC6F13F02C6
:10BEC4004FF0000188BF002201F0DCFB2146204630
:10BED400FFF7B4FE3822B3E71823226DDA4001F8E5
:10BEE400012F626DDA400A71A26DDA400A72E26DC6
:10BEF400DA400A73226EDA400A74626EDA400A7516
:10BF0400A26EDA400A76E26EDA40083B13F1080FBB
:10BF14000A77E2D1CFE70E20CEE78B1802448B429A
:10BF240004D013F8010D02F8010DF8E77047000082
:10BF3400000000000000000000000000C3F108033E
:10BF4400DB0070B50133002403A500BF5B1920C9D1
:10BF540040CAAD1920C0184720C940CA754120C045
:10BF640020C940CA754120C020C940CA754120C0BB
:10BF740020C940CA754120C020C940CA754120C0AB
:10BF840020C940CA754120C020C940CA754120C09B
:10BF94006441204670BD00BF00000000C3F10803E7
:10BFA400DB0070B50133002403A500BF5B1920C971
:10BFB40040CAAD1B20C0184720C940CAB54120C0A3
:10BFC40020C940CAB54120C020C940CAB54120C0DB
:10BFD40020C940CAB54120C020C940CAB54120C0CB
:10BFE40020C940CAB54120C020C940CAB54120C0BB
:10BFF4006441B4FA84F0400970BD00BF2DE9F04FEC
:10C0040008B4F8CA04B451F8042BA3FB028940F81D
:10C01400048B4FF0000AE4FB629A4FF0000BE5FB3F
:10C0240062AB4FF0000CE6FB62BC4FF0000EE7FB86
:10C0340062CE51F8042B4FF00008E3FB628940F80C
:10C04400048BE4FB629AE5FB62ABE6FB62BCE7FBB4
:10C0540062CE51F8042B4FF00008E3FB628940F8EC
:10C06400048BE4FB629AE5FB62ABE6FB62BCE7FB94
:10C0740062CE51F8042B4FF00008E3FB628940F8CC
:10C08400048BE4FB629AE5FB62ABE6FB62BCE7FB74
:10C0940062CE51F8042B4FF00008E3FB628940F8AC
:10C0A400048BE4FB629AE5FB62ABE6FB62BCE7FB54
:10C0B40062CE40F8049B40F804AB40F804BB40F85F
:10C0C40004CB40F804EB0CBC052B00F01E810C687B
:10C0D400A0F11400A1F11401A2F1140252F804EB2E
:10C0E4004FF0000550F8046BE4FB6E5652F804EB75
:10C0F40050F8047BE4FB6E6752F804EB50F8048BB1
:10C10400E4FB6E7852F804EB50F8049BE4FB6E8970
:10C1140052F804EB50F804ABE4FB6E9AA0F114005F
:10C1240052F8044B51F804EB4FF0000CE4FB6EC5DD
:10C1340040F804CB51F804EBE4FB6E5640F8045B82
:10C1440051F804EBE4FB6E6740F8046B51F804EB20
:10C15400E4FB6E7840F8047B51F804EBE4FB6E8951
:10C1640040F8048B51F804EBE4FB6E9AA0E8000657
:10C17400062B00F0CA800C68A0F11800A1F1180188
:10C18400A2F1180252F804EB4FF0000550F8046BCA
:10C19400E4FB6E5652F804EB50F8047BE4FB6E6744
:10C1A40052F804EB50F8048BE4FB6E7852F804EB7D
:10C1B40050F8049BE4FB6E8952F804EB50F804AB8E
:10C1C400E4FB6E9A52F804EB50F804BBE4FB6EAB4C
:10C1D400A0F1180052F8044B51F804EB4FF0000C96
:10C1E400E4FB6EC540F804CB51F804EBE4FB6E5657
:10C1F40040F8045B51F804EBE4FB6E6740F8046B11
:10C2040051F804EBE4FB6E7840F8047B51F804EB3E
:10C21400E4FB6E8940F8048B51F804EBE4FB6E9A5E
:10C2240040F8049B51F804EBE4FB6EABA0E8000C6F
:10C23400072B6AD008B40C68A0F11C00A1F11C0102
:10C24400A2F11C0252F804EB4FF0000550F8046B05
:10C25400E4FB6E5652F804EB50F8047BE4FB6E6783
:10C2640052F804EB50F8048BE4FB6E7852F804EBBC
:10C2740050F8049BE4FB6E8952F804EB50F804ABCD
:10C28400E4FB6E9A52F804EB50F804BBE4FB6EAB8B
:10C2940052F804EB50F804CBE4FB6EBCA0F11C0094
:10C2A40052F8044B51F804EB4FF00003E4FB6E35F5
:10C2B40040F8043B51F804EBE4FB6E5640F8045B91
:10C2C40051F804EBE4FB6E6740F8046B51F804EB9F
:10C2D400E4FB6E7840F8047B51F804EBE4FB6E89D0
:10C2E40040F8048B51F804EBE4FB6E9A40F8049B8D
:10C2F40051F804EBE4FB6EAB40F804AB51F804EBEB
:10C30400E4FB6EBCA0E8001808BCBDE8F08F002276
:10C3140010B5144653B28B4204DA1BB2013240F812
:10C324002340F7E710BD10B500231A465CB28C42D7
:10C3340004DA50F8244001332243F7E7B2FA82F0DA
:10C34400400910BD4A11012350F8220001F01F01D9
:10C3540003FA01F108407047013949B2002909DAAA
:10C36400013149B2A1B101F18043013B50F82330BE
:10C37400002004E050F82130002BEDD0F0E713B199
:10C384005B080130FBE7013900EB411108B270474B
:10C394000846704730B5002463B2934206DA1BB2F4
:10C3A400013451F8235040F82350F5E730BD10B55F
:10C3B400013A52B2002A0ADB13B250F8234051F872
:10C3C40023309C4205D8F3D24FF0FF3010BD00203B
:10C3D40010BD012010BD00EB81010023884206D26C
:10C3E40051F8042D43EA52030B60D307F6E7704774
:10C3F40070B59DF910401E4623460546FFF79EFD85
:10C4040030B9224629463046FFF7D1FF012807D02C
:10C414002346324629462846BDE87040FFF7BEBD94
:10C4240070BD70B59DF910401E4623460546FFF7C2
:10C43400B5FD38B12346324629462846BDE870404A
:10C44400FFF77CBD70BD00002DE9F04FB5B004AD21
:10C454009DF9F8401F46804623462846FFF7CEFD47
:10C4640024AB2146384602930395FFF775FF494BE9
:10C47400C0EB841005B22B40002BBEBF03F1FF3389
:10C4840063F01F030133202695FBF6F676B20FFA0C
:10C4940083F914A83146FFF73AFFB9F1000F30B21F
:10C4A40014DD14AB002203EB8000C9F1200613460F
:10C4B400A34212D257F8231001FA09FE4EEA0202EF
:10C4C40040F8232021FA06F20133F1E714AB2246A7
:10C4D400394603EB8000FFF75DFF27B27B00019331
:10C4E40014AB03EB870704F1FF3934AB012603EBEC
:10C4F4008909002D42DB34AB0022C6F101009646C7
:10C5040003EB860A03EB8000019B51B299421BDACC
:10C514000FFA81FC5AF8C83C53F82CB034AB03EB47
:10C52400810151F8803CC3EB0B03CEEB03039B4525
:10C5340004D034BF4FF0010E4FF0000E50F8C81C69
:10C54400013241F82C30DFE7CEEB06035E42214690
:10C5540014A85E41FFF73FFF34AB03EB840321468D
:10C5640053F8802C59F8803C384643EAC273013DA5
:10C5740049F8803C2DB2FFF72EFFBAE734AB03EB4A
:10C584008606224656F8C81C4046FFF703FF35B01E
:10C59400BDE8F08F1F00008030B51C4691B0054601
:10C5A40093F900306846FFF729FDD4F8AC306946AA
:10C5B4002846984711B030BD13460A46FFF7ECBF32
:10C5C4002DE9F04793F9006092B00446894610467D
:10C5D400314615469846FFF7A6FE002840F098809D
:10C5E4004246494602A8FFF7E7FF434602AA21460E
:10C5F4000AA8FFF7D1FF02A908464246FFF7DCFF6D
:10C6040043462A4649464846FFF7C6FF08F1040751
:10C61400424629462846FFF7CFFF3B462A46214695
:10C6240020460096FFF7E4FE3B462A462946284664
:10C634000096FFF7DDFE3B462A4621462846009633
:10C64400FFF7EFFE43462A4621462046FFF7A4FFA4
:10C654003B462246214628460096FFF7C9FE3B4644
:10C6640000962A4621462046FFF7C2FE2368DB07D0
:10C6740014D533463A4621462046FFF75FFC31463F
:10C6840082462046FFF7A7FE06F18043013B54F89B
:10C69400230040EACA7044F8230003E031462046F0
:10C6A400FFF799FE424621462846FFF785FF3B46A1
:10C6B4000AAA294628460096FFF7B3FE3B460AAA73
:10C6C400294628460096FFF7ACFE0AA908463B46D1
:10C6D4002A460096FFF7A5FE43460AAA21462046AD
:10C6E400FFF75AFF02AA3B46104621460096FFF781
:10C6F40098FE324629462046FFF74CFE324649460C
:10C704002846FFF747FE324602A94846FFF742FE95
:10C7140012B0BDE8F0872DE9F04115468AB0044611
:10C7240088462022002102A800F0ACFF2E1D95F9B6
:10C73400007003232A46414620460293FFF73CFF3C
:10C74400334602AA214620460097FFF76AFE2B468D
:10C75400424621462046FFF71FFF0097334605F166
:10C76400840221462046FFF743FE0AB0BDE8F0816B
:10C77400F0B5082289B00C460646FFF70BFECB6ADB
:10C7840003930B6B04934B6B05938B6B0693CB6BEF
:10C794000793002708236A4669466846029701976B
:10C7A4000097FFF7CBFB082305466A46314630461F
:10C7B400FFF7C4FB236B0393636B0493A36B059391
:10C7C400E36B0693054408236A466946684607975F
:10C7D400FFF7B4FB082305446A4631463046FFF7A9
:10C7E400ADFB236A0093636A0193A36A0293A36B6C
:10C7F4000693E36B0793054408236A4631463046A3
:10C80400059704970397FFF799FB636A0093A36A5C
:10C814000193E36AA26B0293636B039304920693FE
:10C82400E26B236A0592054407936A46082331465E
:10C834003046FFF783FBE36A0093236B0193636B3A
:10C844000293236A0693A36A0793054408236A465E
:10C8540031463046059704970397FFF79FFB236BF8
:10C864000093636B0193A36B0293E36B0393636A7B
:10C874000693E36A07932D1A08236A463146304625
:10C8840005970497FFF78AFB636B0093A36B0193EF
:10C89400E36B0293236A0393636A0493A36A059385
:10C8A400236B07932D1A08236A46314630460697B0
:10C8B400FFF774FBA36B0093E36B0193636A039329
:10C8C400A36A0493E36A0593636B07932D1A082301
:10C8D4006A463146304602970697FFF75FFB2D1AEA
:10C8E40016D508230D4A31463046FFF727FB2D188D
:10C8F400F7D410E0082231460848FFF758FD012814
:10C9040009D00823054A31463046FFF747FB2D1A64
:10C91400002DEFD0F5E709B0F0BD00BF7CDB0700C8
:10C92400F0B5154689B01C4607460E461A462946F8
:10C934006846FFF741FE23466A4639463846FFF704
:10C944002BFE23462A4669466846FFF725FE234602
:10C954006A4631463046FFF71FFE09B0F0BD2DE9A7
:10C96400F0438BB01446129D15F9046B00961F46D4
:10C97400804689462B460246214602A8FFF751FD10
:10C9840002A9129A0846FFF717FE129B02AA414613
:10C994004046FFF701FE129B02AA21462046FFF7FC
:10C9A400FBFD2B464A46394638460096FFF739FDCB
:10C9B400129A394602A8FFF7FFFD02A92B46424608
:10C9C40008460096FFF72DFD02A92B46224608468D
:10C9D4000096FFF726FD2B46424621462046009648
:10C9E400FFF71FFD129B224649464846FFF7D4FD38
:10C9F4002B4602AA414620460096FFF712FD129BE1
:10CA0400224639463846FFF7C7FD2B464A46394683
:10CA140038460096FFF705FD324602A92046FFF787
:10CA2400B9FC0BB0BDE8F0832DE9F047B3F902502F
:10CA340089460824E91D1F3591FBF4F42021944212
:10CA440095FBF1F54FFA85F828BF14461F46414679
:10CA54000646FFF75CFC22464946FFF75EFAB7F943
:10CA64000230E4009C4220D9E41A06EB850100233D
:10CA7400C4F120008E4208D251F8042D22FA04F5A4
:10CA84002B430B6002FA00F3F4E7243742463146A5
:10CA94003846FFF78CFC012807D043463A46314616
:10CAA4003046BDE8F047FFF779BABDE8F08770B5C6
:10CAB400036813F001050646144605D013460A46DA
:10CAC4000146FFF73BFA054621463046FFF783FC53
:10CAD40045B104F18042013A56F8223043F0004354
:10CAE40046F8223070BDF0B50F46A1B0064619468F
:10CAF400384615461C46FFF716FC20B12146304641
:10CB0400FFF705FC74E0224639466846FFF742FC0D
:10CB14002246294608A8FFF73DFC214610A8FFF746
:10CB2400F6FB0123214618A81093FFF7F0FB2246D9
:10CB340008A96846FFF73BFC002854D0009BDA079D
:10CB440004D421466846FFF746FC26E0089BDB0731
:10CB540004D4214608A8FFF73EFC3EE00028234603
:10CB64001FDD08AA69466846FFF718FA2146684699
:10CB7400FFF731FC224618A910A8FFF718FC00287B
:10CB840005DA10A923462A460846FFF7D7F910A963
:10CB9400234618AA0846FFF701FA2246294610A898
:10CBA4001EE008A96A460846FFF7F8F9214608A8D6
:10CBB400FFF711FC224610A918A8FFF7F8FB00287C
:10CBC40005DA18A923462A460846FFF7B7F918A933
:10CBD400234610AA0846FFF7E1F92246294618A879
:10CBE400FFF765FFA3E7224610A93046FFF7D2FB03
:10CBF40021B0F0BD0048704778DB07002DE9F04F05
:10CC0400EDB01F46DDF8D8810590B8F9026098F9B7
:10CC1400004020231F3696FBF3F676B206F1FF3967
:10CC240024AB002543F829506CAB03EB89034CA8D3
:10CC34008A469346394698F9012043F8805C43F8C4
:10CC4400605CFFF76AF998F9012054A8B918FFF756
:10CC540064F921464CA8FFF766FB0746002840F01C
:10CC64003781214654A8FFF75EFB0390002840F06B
:10CC7400318108F1240332464CA918460293FFF788
:10CC840096FB012840F02881324654A90298FFF708
:10CC94008EFB0128069040F01F811CAD0CAF33467B
:10CCA400029A54A92846FFF71EFF039B47F8293030
:10CCB4005A46514638464346FFF7B6FE394638468B
:10CCC400029B00962A46FFF7BFFB0DF5B879029B3D
:10CCD40000962A464CA914A8FFF7B6FB48462246FC
:10CCE4000599FFF757FBA30009EB030A0793059B7C
:10CCF400A100591808F1440B50462246FFF74AFB9D
:10CD04005946224634A8FFF745FBA3000BEB030169
:10CD140022463CA8FFF73EFB08F10403494634AA27
:10CD2400284600940493FFF77CFB53464A463CA9EB
:10CD340034A8CDF80080FFF712FE2346049A294652
:10CD44002846FFF7D0FE2A46514648464346FFF799
:10CD5400E7FD039B08933146059B0A933846CDF8BB
:10CD640024B0CDF82C90FFF7F7FA3146814614A889
:10CD7400FFF7F2FA4845B8BF48461FFA80F909F1AF
:10CD8400FF3B0FFA8BFB59463846FFF7DBFA59464F
:10CD9400071C14A818BF0127FFF7D4FA002814BFF2
:10CDA400022300231F430DF1200A22465AF827705C
:10CDB40024A83946FFF7EEFA0DF1B00BA300F918D9
:10CDC40022465846FFF7E6FA21462846FFF79FFA1F
:10CDD400A9F10209069B2B600FFA89F90DF1900A5B
:10CDE400B9F1000F45DB43462A46D8F8A4705946EA
:10CDF4005046B84749460CA8FFF7A4FA4946071C11
:10CE040014A818BF0127FFF79DFA002814BF0223B6
:10CE140000231F4308AB53F827702FB3224639462B
:10CE240034A8FFF7B7FA079B2246F9183CA8FFF786
:10CE3400B1FA43462A463CA934A8FFF771FD049B86
:10CE4400009434AA514644A8FFF7EBFA5B465246D5
:10CE54003CA934A8CDF80080FFF781FD434644AADD
:10CE640029462846FFF798FB09F1FF390FFA89F99B
:10CE7400B6E72346049A29462846FFF734FE43467C
:10CE84002A4659465046FFF74BFD32465146029812
:10CE9400FFF78DFA012805D03346029A51465046D1
:10CEA400FFF77CF8013C64B20020002C0CDB23B2B9
:10CEB4006CAA02EB83015AF8232051F8803C013C10
:10CEC4005340184364B2F0E7B0FA80F0400904E03C
:10CED400284602E0384600E003986DB0BDE8F08FC4
:10CEE40010DF704711DF704713B5044609496846DF
:10CEF400FEF790FE019808B902B010BDD0E90031E8
:10CF04002046984718B16846FEF78CFEF2E71120D8
:10CF1400F2E700BF40DC070013B504460749684642
:10CF2400FEF778FE019B0BB902B010BD2046D3E991
:10CF3400002190476846FEF775FEF3E734DC0700EE
:10CF4400084B9A6822B11A6822F480021A6070476A
:10CF5400054B4FF48002C3F88020BFF34F8FBFF31B
:10CF64006F8F7047C44E002000E100E00B4991F838
:10CF74001623EC2352091341DB0706D5084B9A68A4
:10CF84003AB94FF480030B60704742F20200FBF79A
:10CF940054BA1A6842F480021A60704700E100E053
:10CFA400C44E0020F7B5194F3C7864BB184E0125D8
:10CFB40020463570FFF798FF112821D02046FFF74F
:10CFC400ABFF144B8DF80340186801900DF103007A
:10CFD400FEF772FA104901A8FFF782FF0446B0FA7F
:10CFE40080F0400938709DF80300FEF789FA3CB9D7
:10CFF4000A4B34701C70FFF7B9FF2846FFF78CFF0B
:10D00400204603B0F0BD0824FAE700BFDE5000203C
:10D01400DC5000204CDC070039840700DD50002080
:10D02400F7B5154F3B781BB3144E01203070FFF752
:10D034005BFF11284FF000051CD00220FFF76CFFA6
:10D044000DF107008DF80750FEF736FAFFF74AFF97
:10D0540004469DF807003D70FEF752FA2CB90320F0
:10D064003470FFF76DFFFFF757FF204603B0F0BDA4
:10D074000824FAE72C46F8E7DE500020DC500020B4
:10D08400054B1B7833B1054B1B780BB1FFF7C8BFB9
:10D09400FFF788BF08207047DC500020DE500020D6
:10D0A400014B1878704700BFDE50002007B50849CF
:10D0B4006846FEF7AFFD019B13B903B05DF804FBAE
:10D0C400D3E9002090476846FEF7ACFDF3E700BFC4
:10D0D40028DC0700FFF7EABF60DF704769DF7047AD
:10D0E40061DF704730B5134DADF5017D4FF4FA742F
:10D0F4000DF1020103A8ADF80240FFF7F1FF70B98A
:10D10400294601A8FEF786FD029B002BF0D003A858
:10D11400D3E90021904701A8FEF784FDF4E7052830
:10D1240005D00DF5017DBDE83040FBF786B90DF55E
:10D13400017D30BD50DC0700024B1B780BB1FFF7BB
:10D14400D1BF7047DF50002018B1034B03600020AB
:10D1540070470E20704700BFE82A0020F0B507464C
:10D1640085B00D46002947D00024244A0A60CDE941
:10D174000144012606238DF8040001A92020ADF8FE
:10D18400083003948DF80660FFF7A8FF2A6803941B
:10D1940001A94020CDE901448DF80560FFF79EFF09
:10D1A400F7232A68039401A92320CDE90144ADF8AB
:10D1B40006308DF80470FFF791FF2A68039401A9E3
:10D1C4003046CDE901448DF80460FFF787FF4FF442
:10D1D400B0632A68019301A9A120CDE90244FFF7B5
:10D1E4007DFF2A68039401A9A020CDE90144FFF73B
:10D1F40075FF204605B0F0BD0E20FBE7E82A0020AD
:10D2040008B5FFF769FF10B9014B01221A7008BD78
:10D21400DF5000204BDF70471FB50E4C01A8FFF70D
:10D22400F9FF70B9214602A8FEF7F4FC039B002B1A
:10D23400F4D00198D3E90021904702A8FEF7F2FC4C
:10D24400F4E7052804D004B0BDE81040FBF7F5B8B6
:10D2540004B010BD5CDC070038B1054B0360054B1E
:10D26400436001230372002070470E20704700BF03
:10D27400A3D207007DD2070069B10B78022B0CD131
:10D28400022804D0032814BF082011207047032368
:10D294000B70002070470E2070470820704710B5AF
:10D2A4000C4681B10B78012B06D00ED9033B012B20
:10D2B40094BF0820112010BDFDF7D2FA0028FAD13E
:10D2C40002232370F7E70E20F5E70820F3E70000B8
:10D2D40070B58169124B134A11F8025C0446D21AE4
:10D2E40045B900690C21B2FBF1F200218A4204D154
:10D2F400012010E04FF0FF30F4E71E68AE420CD17D
:10D30400461C02D05E68864207D19D68D4E90001BC
:10D31400D4E90223A847206070BD01310C33E5E74E
:10D3240004D7070010D707001EF0040F0CBFEFF35B
:10D334000880EFF30980FFF7CBBF00BF42F6383116
:10D34400C2F20001096800F000B880B50B468DF800
:10D3540003000DF103000121012200F01FF89DF8E4
:10D364000310002808BF411E084608BD38B542F620
:10D374003831C2F2000104460D6800F03AF9024661
:10D384002846214600F03DF801301EBF0A20BDE8C2
:10D394003840FFF7D3BF4FF0FF3038BDF8B51D4616
:10D3A40017460C460646184600F00FF8002803D42A
:10D3B40007FB04F2A24201D20020F8BD2846314600
:10D3C40000F01FF8B0FBF4F0F8BD42F63831C2F2B9
:10D3D400000142F63C32C2F2000242F63433C2F299
:10D3E400000309681B681268091A18BF01211B1A77
:10D3F40018BF01231940101A18BF012008404042E9
:10D404007047006800F0B7B845F2EC00C2F20000C3
:10D414000321016141614DF67941C0F20701816147
:10D4240045F29412C2F20002C2614FF480620262B9
:10D43400002282624262C262016645F29451C2F2E3
:10D4440000014166102181660267C2664267BFF32C
:10D454005F8F0F214DF66842C0F20702535C00F85B
:10D46400013B0139FAD2BFF35F8F7047C26801698B
:10D4740091428FBFD0438068D2431144084470471F
:10D484002DE9F0411546884604464068D4E9021661
:10D4940030448F1B9742414605D900F0C1F835440A
:10D4A400BFF35F8F0BE03A4600F0BAF808EB0701D0
:10D4B4006068ED1B2A4600F0B3F8BFF35F8FE560A8
:10D4C400BDE8F0812DE9F843144688460546C7684F
:10D4D4004FF000092869A968FA43B8429ABF10447A
:10D4E4004218024468683844CE1BB24238BF16461C
:10D4F400A64228BF26464146324600F091F8A86865
:10D50400F1190F1A18BF0F46BFF35F8FEF60A41B0A
:10D51400B044B144DED14846BDE8F88370B50D4649
:10D5240000EB400045F2EC01C2F2000101EBC00047
:10D5340000F11806C06A02280AD0144601280DD04A
:10D5440020B93046FFF792FFA0420DD2002410E02C
:10D5540030462946BDE87040FFF7B4BF3046FFF7B8
:10D5640085FFA04238BF0446304629462246FFF7CD
:10D5740087FF204670BDF8B514460D4645F2EC0110
:10D58400C2F2000106460878002808BFFFF73CFFF6
:10D59400EFF311874FF0200181F3118830462946BB
:10D5A4002246FFF7BBFF87F31188F8BD042A08D38E
:10D5B40050F804CB0B689C4506D1043A0431032A85
:10D5C400F6D8A2B1D0F800C0086880EA0C0191FA3C
:10D5D400A1F1B1FA81F1B2EBD10F08D901F0380110
:10D5E4002CFA01F2C840C0B2D1B2081A7047002028
:10D5F40070470178002904BF0020704700214FF0D4
:10D6040001324358C2FA53F30431002BF9D093FA90
:10D61400A3F0B0FA80F001EBD000043870470000AA
:10D624005AB3844690EA01039B071FD1830707D0AE
:10D6340011F8013B00F8013B013AF7D11CE08446A4
:10D64400203A09D32DE9F007B1E8F807A0E8F80774
:10D65400203AF9D2BDE8F0071C3205D451F8043B56
:10D6640040F8043B043AF9D2043205D011F8013BE6
:10D6740000F8013B013AF9D16046704700220B00E3
:10D6840011001A0084465AB3830704D000F8011B22
:10D69400013AF9D124E0C9B241EA012141EA014148
:10D6A400202A11D3203A2DE9F0030B460C460D46EF
:10D6B4000E460F4688468946A0E8FA03203AFBD274
:10D6C400BDE8F00320320BD0042A05D340F8041B34
:10D6D400043A05D0042AF9D200F8011B013AFBD11F
:04D6E40060467047E5
:08D6E80025A10700499B070082
:10D6F000942F0020D03F0020E13F00209C2F0020ED
:04D70000F400000031
:0CD7040000000000030000005DD20700E0
:08D71000B59B070000000000BA
:08D7180079B9070000000000D0
:08D7200039BB07000000000006
:10D728003DD10700000000001DD2070000000000E6
:08D738002DBB070000000000FA
:10D74000000000000000000011A20700001000000F
:04D7500000000800CD
:10D7540053656375726520626F6F746C6F61646585
:10D7640072207374617274656400496E73696465D0
:10D77400206D61696E004166746572206D61696E29
:10D784002C2073686F756C64206E657665722062F8
:10D794006520726561636865642E00446173687016
:10D7A4006F645F4446555F34000000003A27020866
:10D7B40072DAA6719DC9B60893F52FAE58BCAC4178
:10D7C400E8AEEBAD98266EAEA01D92BEF056823741
:10D7D4005AA17A3A183CA900474C5F6DE8F5B7DCCA
:10D7E400B8A5EF98699489B8CA8ECEC10D0E0F10F2
:10D7F4002F890700D3880700138E0700858E070042
:10D80400A58E07001F880700DD870700AF8D07007E
:10D814000000000000000000000000000338FDD8F4
:10D82400704700007F99070079990700599907000C
:10D8340020000000780000000000000048002800DC
:10D8440000204000F9CB0700010017000400FCFF92
:10D8540068010000BCD80700020017000400FCFFA8
:10D86400AC0100007CD807000000000000000000AC
:10D87400000000000000000001000700000000009C
:10D8840068010000BCD8070002000100000000008D
:10D89400010000000000000003000500010000007A
:10D8A4004200000000000000000000000000000032
:10D8B4000000000000000000010011000100FFFF53
:10D8C4000100000000000000020017000200FEFF3B
:10D8D40064010000ECD80700000000000000000014
:10D8E4000000000000000000010011000400FCFF23
:10D8F4000400000000000000020011000400FCFF0E
:10D904000400000000000000030021000400FCFFEC
:10D914000400100000000000040011000100FFFFDB
:10D924000100000000000000050011000200FEFFDD
:10D934000400000000000000060011000400FCFFC9
:10D944000400000000000000070011000400FCFFB8
:10D954000400000000000000080017000200FEFFA1
:10D9640024000000CCD90700090010000100FFFFCB
:10D9740001000000FCD907000A0027000200FEFF96
:10D98400440003009CD907000000000000000000D0
:10D994000000000000000000010001000000000081
:10D9A400010000000000000002000500010000006A
:10D9B4004200000000000000000000000000000021
:10D9C4000000000000000000010001000000000051
:10D9D400010000000000000002000500010000003A
:10D9E4002200000000000000000000000000000011
:10D9F4000000000000000000000000000338FDD813
:10DA040070470C000C000000580250EADA3088839A
:10DA1400B89F604F15F30000C98E000011B80700CD
:10DA240035B8070045B8070055B80700A9B807007E
:10DA34001DB8070021B8070025B807000010000032
:10DA44000400000001000000BDB907009DB90700F3
:10DA54008DB90700CDBB07007DBB070061B9070086
:10DA640065B9070069B90700001000000400000050
:10DA740001000000982F8A4291443771CFFBC0B552
:10DA8400A5DBB5E95BC25639F111F159A4823F9285
:10DA9400D55E1CAB98AA07D8015B8312BE853124DE
:10DAA400C37D0C55745DBE72FEB1DE80A706DC9B9F
:10DAB40074F19BC1C1699BE48647BEEFC69DC10F4B
