:020000022000DC
:1070000000000220197202000172020003720200E5
:1070100005720200077202000972020000000000FF
:107020000000000000000000000000000B720200E1
:107030000D720200000000000F72020011720200C7
:10704000C59703001372020091A2030041A8030038
:107050005DAF030013720200499D0300137202002A
:10706000137202001372020013720200E9A70300F8
:1070700013720200137202001372020013720200F4
:107080001372020061BA030013720200137202004D
:10709000137202001372020085D103001372020002
:1070A00013720200137202001372020013720200C4
:1070B00095A503001372020000000000000000000C
:1070C00013720200A5A50300B5A503001372020008
:1070D000F9A703007DA103001372020013720200DE
:1070E0001372020000000000000000000000000019
:1070F00000000000C5A5030000000000137202009C
:10710000000000000000000000000000000000007F
:10711000000000000000000000000000000000006F
:10712000000000000000000000000000000000005F
:10713000000000000000000000000000000000004F
:10714000000000000000000000000000000000003F
:10715000000000000000000000000000000000002F
:10716000000000000000000000000000000000001F
:10717000000000000000000000000000000000000F
:1071800000000000000000000000000000000000FF
:1071900000000000000000000000000000000000EF
:1071A00000000000000000000000000000000000DF
:1071B00000000000000000000000000000000000CF
:1071C00000000000000000000000000000000000BF
:1071D00000000000000000000000000000000000AF
:1071E000000000000000000000000000000000009F
:1071F000000000000000000000000000000000008F
:10720000FEE7FEE7FEE7FEE7FEE7FEE7FEE7FEE756
:10721000FEE7FEE700F002B8FFF7FCBF0F484FF0B3
:107220000701884385460E4880470E48016841F4AF
:1072300070010160BFF34F8FBFF36F8F00F01AB87A
:1072400009480A490A4A884207D0521A05D00378E9
:1072500001300B700131013AF9D170470000022072
:10726000812E030088ED00E070FA0300F82A002068
:107270000C2B00203A493B480A1A02D007229143BE
:107280008D46394939480A1A06D00722914381F3BD
:107290000988022282F3148835483649364A00F0BC
:1072A00041F836483649374A00F03CF83648374905
:1072B000374A00F037F837483749384A00F032F893
:1072C00037483849384A00F02DF838483849394AA3
:1072D00000F028F838483949394A00F023F839488D
:1072E0003949002200F036F838483949002200F0C8
:1072F00031F838483849091A18F059F9374A90478F
:1073000025482649884205D00268043003B49047D6
:1073100003BCF7E700208646EC4600200021304AF7
:107320009047FEE7884214D0521A12D003460B430E
:1073300013430324234206D1036804300B60043155
:10734000043AF9D17047037801300B700131013AEA
:10735000F9D17047884202D002700130FAE77047D5
:107360000000022000E001200000022000000220B6
:107370003C8004000C2B0020882E0020E4730200C7
:10738000E473020030F803003C8004000C2B002062
:107390000C2B002084FA030084FA030084FA030013
:1073A00084FA030084FA030084FA030084FA0300D9
:1073B00084FA03003C800400B8830400882E002077
:1073C000882E0020882E00208086002080860020C5
:1073D000808600208086002080A600204172020066
:0473E000E1220300A3
:1073E4000E4B196810B5C1B10D4B0E4AD3F80445C4
:1073F4004FF47A735943C8030023490C17F0A0F8DB
:1074040022180123084822F07F42002113F09EF93C
:1074140018B1BDE8104013F088BF10BD902E0020B5
:107424000040024040420F0098FA030020B9084B84
:1074340001221A70FFF7D4BF012802D1054B18703E
:107444007047052801BF044A13680133136070476D
:107454008E2E00208D2E0020882E002038B50E4D53
:107464002B78BBB90D4A0E490E4813F00BF908B13D
:1074740013F05BFF0C4A0B48002313700B4A137084
:107484000B4B01249C60214613F09EF9054813F030
:1074940037F92C7038BD00BF8C2E002031740200E7
:1074A400A0FA030098FA03008E2E00208D2E0020EF
:1074B4000040024070B5044670B3C72806D8174B85
:1074C400BDE87040800143F001031847144DFFF7F5
:1074D400C5FF00232B70134B134AD3F80465E00354
:1074E4000023610C17F02CF80123321822F07F429C
:1074F4000E48194613F02AF908B113F016FF2B7839
:107504003BB100232B700948BDE87040012113F002
:1075140003B914F01DFFF2E770BD00BF90FA030039
:107524008D2E00200040024040420F0098FA0300D4
:1075340008B5FFF793FF084BD3F80425074B1B68E6
:10754400C3EB036313444FF47A70A3FB0030DB0BEB
:1075540043EA404008BD00BF00400240882E00209E
:1075640018F045B818F04FB8014B01221A70704753
:10757400952E002070470000014B01221A707047BD
:10758400942E00201FB51346DBB20A4C0091CDE9BE
:1075940001310022084822706946039313F0C6FAA9
:1075A40008B113F0C2FE23780BB104B010BD14F07F
:1075B400CFFEF8E7952E0020C8FA0300022009F058
:1075C400F3BD022009F026BE10B54FF0A0444FF4DD
:1075D40000730948C4F80C3513F052FA0223C4F8B6
:1075E4007437C4F8783712F08DFBBDE8104040F6CC
:1075F400FC00FFF75FBF00BFC8FA0300F8B51C4DDD
:107604000C4659B300264FF400474FF47A703146C4
:107614004FF4FA622E700023E4FB070116F090FF8A
:1076240005280146324638BF0521124813F06AFF87
:1076340008B113F07AFE4FF0A044D4F81035DB0201
:107644000FD50C4813F08CFF08B113F06EFE4FF009
:10765400A043D3F81005C0F30050F8BD01232B70EC
:10766400E9E72B78002BECD114F072FEE5E700BFBC
:10767400942E0020102B002007B512F04DF920B9EC
:1076840012F010F908B113F050FE40F20233ADF8D5
:1076940004309DF80630104A23F0070301A9142092
:1076A4008DF8063012F002FA08B113F03EFE012103
:1076B400142012F07FFA4FF0A0430322C3F82427CA
:1076C4000648074A002113F00BFF08B113F02DFE02
:1076D400012003B05DF804FB79750200C0FA0300D1
:1076E4007D7502001FB5FFF7C7FF12F0DBF84FF0FE
:1076F400A0434FF40072C3F8082540F6FC00FFF7DE
:10770400D9FE0D4B0FCB6C4684E80F004FF080532D
:10771400029303F1416303F5612303F61F530093BE
:10772400064A07480023214611F02CFF08B113F044
:10773400FCFD04B010BD00BFD4FA03006D75020057
:10774400C4FA030000487047A8FA03000CB400B55B
:10775400A9B02AAB962153F8042B019302A817F081
:1077640016F89528C1BF42F62E63ADF89A302E2341
:10777400ADF89C30FFF7DCFE29B05DF804EB02B0F5
:107784007047000010B501212DED028B044601F075
:1077940087FC3B4B9FED3B8A93ED000A204601F0AA
:1077A4001FFC394B204693ED000A01F025FC374BB2
:1077B4002046197801F02CFC354B2046197801F04D
:1077C4003FFC0121204601F013FDB3EE0E0A2046D2
:1077D40001F01AFD2046022101F026FC2D4B204623
:1077E400197801F039FC2C4B1B7800EE103A204636
:1077F400B8EE400A01F03CFC2046002101F044FCB4
:107804002046012101F058FC0121204601F078FCBA
:1078140020469FED220A01F07FFC20469FED200ABE
:1078240001F0C2FCB0EE480A204601F0C9FC002178
:10783400204601F07DFC2046B7EE000A01F084FCEE
:10784400B0EE480A204601F08BFC2046B1EE080A4F
:1078540001F092FC20469FED130A01F099FC2046AA
:10786400B7EE000A01F0B8FC2046002101F030FC1C
:10787400BDEC028B20460021BDE8104001F034BC71
:10788400382B00208FC2F53C342B0020302B0020F5
:10789400312B0020322B0020332B00206666A63FBC
:1078A400CDCC4C3DCDCC4C3E2DE9F04385B0984633
:1078B400002305460E4617468DF80F304FF0020997
:1078C4000120FFF781FE0120FFF70CFFCDF80080B7
:1078D4003B4632460DF10F01284603F0B7FB044640
:1078E400D0B19DF80F3063B10120FFF76DFE012088
:1078F400FFF7F8FE204605B0BDE8F0834FF001091C
:10790400DEE74FF4FA610120FFF778FE20B19DF81D
:107914000F30002BDAD0E7E7B9F1010FEED10024E4
:10792400E8E7F8B5064601200F4615461C46FFF762
:107934004BFE0120FFF745FE17B1384600F0F2FC7C
:1079440016B1304601F01CFA15B1284603F012FBBB
:1079540024B12046BDE8F840FFF704BEF8BD00009E
:10796400042835D8DFE800F0031323353C001F4B0F
:107974001F4A1A601F4B204A1A60204B3C221A707F
:107984001F4B10221A701F4B20221A701DE0174B38
:107994001D4A1A60174B4FF07E521A60174B3C2257
:1079A4001A70174B10221A70164B3022EDE70F4B4A
:1079B400114A1A600F4B154A1A60104A3C2313707F
:1079C4000F4A102111700F4A1370114B02221A70C2
:1079D4007047064B4FF07C521A60064B0D4AEBE79A
:1079E400024B0D4A1A60034B074AD6E7382B002096
:1079F400CDCC4C3D342B0020CDCC4C3E332B002041
:107A0400322B0020312B0020B81E053ECDCCCC3FBC
:107A1400302B002000004040295C8F3D2DE9F04FC1
:107A24000420C9B0FFF79CFF00230493FFF78AFEEC
:107A340002F094FD20B9B64815F020FD012072E053
:107A440000F000FC044648B9B24815F017FD0120C7
:107A5400FFF7BAFD0120FFF7B4FDEFE7FFF792FE51
:107A6400204600F079FC0AA9204601F0A5F9064653
:107A740048B9A94815F002FD33463246214630463E
:107A8400FFF74FFFDAE704A901F054F9054638B9C6
:107A9400A24815F0F3FC2B462A4621463046EFE770
:107AA4000498FFF75DFD054608B99D48F1E70120FC
:107AB400FFF784FD0120FFF715FE012003F07CFA97
:107AC400049B2A4618A90746FFF7EEFE804608B92C
:107AD40094485DE19448DFF89CA26B2109F020FDF5
:107AE400049B3A46CDE90053214618AB304601F0D9
:107AF40005FAC1460290029B002B40F03D816B21A8
:107B0400894809F05FFD304601F03AF9204600F05B
:107B140009FC2B4630463A462146FFF702FF029BFA
:107B240083F00100C0B249B0BDE8F08F4FF4FA61B0
:107B34000120FFF763FD08B97C4829E1049A29462E
:107B4400384603F033FB08B9794821E10EAA2946E7
:107B5400304601F003FA834608B9764818E19DF8E7
:107B6400543013B1744815F089FC9DF85630CBB1EC
:107B7400724815F083FC049B2A4618A93846FFF77F
:107B840093FE0028A4D06E4815F078FC049B3A4676
:107B9400CDE90053214618AB304601F0AFF908B9DE
:107BA4006848F5E09AF8003033B1B8F1000F03D01B
:107BB400B9F1000F40F0A980634B1A78012A02D072
:107BC4001B78022B06D1614B0122002102201A707E
:107BD40008F09AFF5E4B1A782AB15E4815F04EFC05
:107BE4005B4B00221A70049A2946384603F0DEFAE9
:107BF400594BDDED0F6AD3ED007A9DF83830002B38
:107C04006DD0B8F1000F6DD0B9F1000F40F0C58010
:107C14004B469AF800207AB9B8F1000F0CD19FEDC9
:107C24004F6A9FED4F7AA6EE867AF8EEE77AF4EE85
:107C3400C77AF1EE10FA06D4B9F1000F08BFC146B5
:107C4400002B3FF458AF9FED457ADDED117A45489E
:107C540067EE877A4FF06F0BFCEEE77A17EE903AF7
:107C64009BB2039315F00AFC3F4815F007FC0BF197
:107C7400FF3313F0FF0B3FF43EAF2B4809F076FDC2
:107C84000028F4D005AA2848DFF8BCB06B2109F01D
:107C940021FD07A905A809F031FD03989DED091AF6
:107CA400DDED080A9DED070A0AF0DCF90123002046
:107CB4008AF8003009F01EFA9BF80030012B1ED020
:107CC4009BF80030022B1AD00021022008F0AAFEF3
:107CD400002326488BF8003015F0D0FB0BE7B8F1F1
:107CE400000F96D19FED227AF4EEC76AF1EE10FAF6
:107CF400434602D44FF000088BE7D8469CE708F0CF
:107D040047FE124B00221A70E2E7C846F3E600BFB2
:107D1400E4FA0300FBFA03001CFB030036FB030038
:107D240065FB03007EFB03006C790400B7FB0300D2
:107D3400D0FB0300E7FB03000CFC030041FC030041
:107D440062FC03007DFC030058680020962E00208E
:107D540056680020A4FC03003C2B00200000C8420D
:107D64000050C3C7B6FC0300C5FC0300D8FC0300E5
:107D74006666A63F402B00200AF028FE02287FF406
:107D8400BEAE384603F0EAF900287FF4CFAE0548CA
:107D940015F074FB2B463A467FE6C8464FF00009BF
:107DA400A0E700BF9DFB03002DE9F04F2DED028BF2
:107DB400C5B000230593FFF7C5FC02F0CFFB20B943
:107DC400B14815F05BFB01207BE000F03BFA044670
:107DD40048B9AE4815F052FB0120FFF7F5FB01202E
:107DE400FFF7EFFBEFE7AA4DFFF7CCFC4FF00A08D3
:107DF40045F001054FF47A40A847B8F10108F9D1DC
:107E0400204600F0A9FA06A9204600F0D5FF064650
:107E140048B9A04815F032FB434642462146404645
:107E2400FFF77FFDCFE705A900F084FF38B99A4832
:107E340015F024FB4346424621463046F0E70598B8
:107E4400FFF78EFB054608B99448F1E70120FFF7D8
:107E5400B5FB0120FFF746FC012003F0ADF807460F
:107E640028B98F4815F00AFB2B464246E4E7059BE8
:107E74002A4614A9FFF718FD804608B9894845E148
:107E8400059B9FED898ACDE900533A4614AB214600
:107E9400304601F033F8C1460390039B002B40F0B9
:107EA4002981304600F06CFF204600F03BFA2B4657
:107EB40030463A462146FFF734FD039B83F0010028
:107EC400C0B245B0BDEC028BBDE8F08F4FF4FA614F
:107ED4000120FFF793FB08B9744817E1059A294676
:107EE400384603F063F908B971480FE10AAA294634
:107EF400304601F033F8824608B96E4806E19DF831
:107F0400443013B16C4815F0B9FA9DF84630CBB142
:107F14006A4815F0B3FA059B2A4614A93846FFF7B8
:107F2400C3FC0028AAD0664815F0A8FA059B3A4677
:107F3400CDE90053214614AB304600F0DFFF08B909
:107F44006048E3E0604B1B7833B1B9F1000F03D014
:107F5400B8F1000F40F09680DFF894B19BF8003040
:107F6400012B03D09BF80030022B06D1574B012282
:107F7400002102201A7008F0C7FD554B1A782AB167
:107F8400544815F07BFA524B00221A70059A294680
:107F9400384603F00BF9504BDDED0B7A93ED007A84
:107FA4009DF82830002B57D0B8F1000F57D0B9F105
:107FB400000F40F0B6804B46434A127882B9B8F1BC
:107FC400000F0DD1DFED456A67EEA67AB8EEC77AE9
:107FD400E8EE667AB4EEE77AF1EE10FA00F19B80EF
:107FE400B9F1000F03D188F001095FFA89F983B36D
:107FF4009FED3A7ADDED0D7A394867EE877AFCEE2B
:10800400E77A17EE903A1FFA83FA514616F01DFCF0
:10801400344815F033FA2C4A01230020137009F078
:1080240069F89BF80030012B26D09BF80030022B16
:1080340022D00021022008F0F5FC9FED2B1A00232A
:108044005046F0EE410AB0EE410A8BF800300AF0D7
:1080540009F89DED0B8A20E7B8F1000FACD1DFEDF4
:10806400236AF4EEE67AF1EE10FA434602D44FF0B6
:108074000008A1E7D046B3E708F08AFC134B0022BE
:108084001A70DAE7C14608E7E4FA0300FBFA0300D2
:10809400302404001CFB030036FB030065FB0300D3
:1080A400E5FC03007EFB030000007A44B7FB0300F9
:1080B400D0FB0300E7FB03000CFC030041FC0300BE
:1080C40062FC03007DFC0300402B0020962E002060
:1080D40056680020A4FC03003C2B00200000C8428A
:1080E40000FD0300B6FC0300000000006666A63F26
:1080F400586800200AF06AFC03287FF4D2AE3846A0
:1081040003F02CF800287FF4E1AE084815F0B6F926
:108114002B463A4690E6B9F1000F7FF469AF534617
:1081240061E7C8464FF0000999E700BF9DFB0300D3
:1081340070B56B2186B03048304D09F0F1F92E4806
:1081440009F03AFB2E4815F099F90AF03FFC012892
:1081540006D029486B2109F035FA002006B070BD1D
:108164002B78002BF1D1274C2378012B02D02378D4
:10817400022B06D1244B0122002102201A7008F0A0
:10818400C3FC224E337823B11D4815F077F9002340
:108194003370194809F0EAFA0028D6D001AA164823
:1081A4006B2109F097FA03A901A809F0A7FA9DED3C
:1081B400051ADDED040A9DED030A002009F052FFC3
:1081C400012300202B7008F095FF2378012B0CD09D
:1081D4002378022B09D00021022008F023FC00237D
:1081E4000B48237015F04AF9AFE708F0D1FB064BB2
:1081F40000221A70F3E700BF6C790400402B0020C2
:1082040013FD030058680020962E002056680020B5
:10821400D8FC0300024B034A1B690349002018479A
:10822400688600203824040050240400024B034ACA
:108234001B69034900201847688600206424040051
:108244005024040070B5274AA6236421012004F0B9
:10825400A1FE044600283DD0234B244E0125C0E94D
:10826400003502F063FB224B2249234A84F8425032
:1082740084F85E502574E06340F20115A36423631F
:1082840018201E4B616162621D491E4AA4F84050C9
:10829400A4F8440000251C482166E2644FF4807170
:1082A4001A4A23654FF07E5384F85450A0654FF06A
:1082B4007C551748A4F85C10E2604FF08041154AE1
:1082C400A361154B2062A662E5616163A263E36268
:1082D400204670BD114B124A1B690249984720463B
:1082E40070BD00BF5024040002B137139A99193E9F
:1082F4009A99993E6666A63FCDCC4C3E100020006C
:108304000000A041000020400000404103000001A3
:108314000000C0400000A04000002041688600200A
:108324007424040098B10B4B02689A4210B50446B9
:1083340003D0BDE81040FFF76DBFC06B02F00EFB29
:10834400002323602046BDE8104004F03FBEFFF741
:1083540061BF00BF02B1371330B583B020B1084B01
:1083640002689A42044613D0FFF754FF054B064AAD
:108374001B690649002003B0BDE83040184700BF20
:1083840002B13713688600206028040050240400DA
:1083940001F088FD04F02EFE012805D9CD4BCE4A0C
:1083A4001B69CE490220984704F024FE012806D90F
:1083B400C84A63681569C949C94A0220A84704F034
:1083C40019FE012800F27E8404F014FE012800F254
:1083D400688404F00FFE012800F2518404F00AFEC0
:1083E400012807D9BB4AB4F844301569BB49BD4AD2
:1083F4000220A84704F0FEFD012835D9D4ED127AF5
:108404009FEDC57AB34B9FEDC46A1D69DFEDB66A73
:10841400B249F5EEC07AF1EE10FA48BFF1EE677A90
:1084240077EE877A4CBFB14BB14BBCEEE77AF5EEF1
:10843400C07AF1EE10FA17EE102A4CBFB1EE677A4B
:10844400B0EE677A37EE067A0092BCEEC77AA94A94
:10845400B8EE477A022077EEC77A67EEA67AFCEE8A
:10846400E77ACDED017AA84704F0C4FD012835D997
:10847400D4ED137A9FEDA87A964B9FEDA76A1D69F8
:10848400DFED996A9549F5EEC07AF1EE10FA48BF2E
:10849400F1EE677A77EE877A4CBF944B944BBCEE3F
:1084A400E77AF5EEC07AF1EE10FA17EE102A4CBF17
:1084B400B1EE677AB0EE677A37EE067A0092BCEED8
:1084C400C77A8D4AB8EE477A022077EEC77A67EE0C
:1084D400A67AFCEEE77ACDED017AA84704F08AFD8E
:1084E400012807D97B4AB4F8503015697B49834A7F
:1084F4000220A84704F07EFD012807D9754AB4F884
:108504005230156975497E4A0220A84704F072FD6D
:10851400012800F2A38304F06DFD012835D9D4EDC0
:10852400167A9FED7D7A6B4B9FED7B6A1D69DFEDBB
:108534006E6A6A49F5EEC07AF1EE10FA48BFF1EEC0
:10854400677A77EE877A4CBF684B694BBCEEE77A63
:10855400F5EEC07AF1EE10FA17EE102A4CBFB1EE28
:10856400677AB0EE677A37EE067A0092BCEEC77A85
:10857400644AB8EE477A022077EEC77A67EEA67AA5
:10858400FCEEE77ACDED017AA84704F033FD01282B
:1085940000F2128304F02EFD012800F2FC8204F0A4
:1085A40029FD012800F2298304F024FD012835D98E
:1085B400D4ED187A9FED587A464B9FED576A1D69A2
:1085C400DFED496A4549F5EEC07AF1EE10FA48BF8D
:1085D400F1EE677A77EE877A4CBF444B444BBCEE9E
:1085E400E77AF5EEC07AF1EE10FA17EE102A4CBFD6
:1085F400B1EE677AB0EE677A37EE067A0092BCEE97
:10860400C77A414AB8EE477A022077EEC77A67EE16
:10861400A67AFCEEE77ACDED017AA84704F0EAFCED
:10862400012805D92B4B394A1B692C49022098474C
:1086340004F0E0FC012806D9264AA38915692749D4
:10864400334A0220A84704F0D5FC012800F2F68240
:1086540004F0D0FC012800F2E18204F0CBFC0128F4
:1086640000F2BB8204F0C6FC01285AD9D4ED057A85
:108674009FED297A174B9FED286A1D69DFED1A6A71
:108684001649F5EEC07AF1EE10FA48BFF1EE677ABA
:1086940077EE877A4CBF154B154BBCEEE77AF5EEB7
:1086A400C07AF1EE10FA17EE102A4CBFB1EE677AD9
:1086B400B0EE677A37EE067A0092BCEEC77A154AB6
:1086C400B8EE477A022077EEC77A67EEA67AFCEE18
:1086D400E77A23E0688600209824040050240400EC
:1086E400B4240400102504000024744994240400D4
:1086F40024340400282504004025040054250400E3
:108704006C25040094250400002604001C260400A3
:1087140040260400BC260400BD370635CDED017AA1
:10872400A84704F067FC012835D9D4ED067A1FED7B
:10873400067AD44B9FEDD46A1D69DFEDD46AD4491F
:10874400F5EEC07AF1EE10FA48BFF1EE677A77EEF3
:10875400877A4CBFCF4BD04BBCEEE77AF5EEC07AAC
:10876400F1EE10FA17EE102A4CBFB1EE677AB0EEB4
:10877400677A37EE067A0092BCEEC77AC74AB8EE3B
:10878400477A022077EEC77A67EEA67AFCEEE77A9C
:10879400CDED017AA84704F02DFC012835D9D4ED9C
:1087A400077A9FEDB97AB74B9FEDB76A1D69DFED84
:1087B400B76AB749F5EEC07AF1EE10FA48BFF1EEA8
:1087C400677A77EE877A4CBFB24BB34BBCEEE77A4D
:1087D400F5EEC07AF1EE10FA17EE102A4CBFB1EEA6
:1087E400677AB0EE677A37EE067A0092BCEEC77A03
:1087F400AB4AB8EE477A022077EEC77A67EEA67ADC
:10880400FCEEE77ACDED017AA84704F0F3FB0128EA
:1088140035D9D4ED087A9FED9C7A9A4B9FED9A6AEC
:108824001D69DFED9A6A9A49F5EEC07AF1EE10FA05
:1088340048BFF1EE677A77EE877A4CBF954B964B3B
:10884400BCEEE77AF5EEC07AF1EE10FA17EE102AD4
:108854004CBFB1EE677AB0EE677A37EE067A0092D3
:10886400BCEEC77A8F4AB8EE477A022077EEC77A11
:1088740067EEA67AFCEEE77ACDED017AA84704F01C
:10888400B9FB012835D9D4ED097A9FED7F7A7D4B68
:108894009FED7D6A1D69DFED7D6A7D49F5EEC07A45
:1088A400F1EE10FA48BFF1EE677A77EE877A4CBFA3
:1088B400784B794BBCEEE77AF5EEC07AF1EE10FA1C
:1088C40017EE102A4CBFB1EE677AB0EE677A37EE36
:1088D400067A0092BCEEC77A734AB8EE477A022051
:1088E40077EEC77A67EEA67AFCEEE77ACDED017AE9
:1088F400A84704F07FFB012835D9D4ED0A7A9FED0F
:10890400627A604B9FED606A1D69DFED606A6049C1
:10891400F5EEC07AF1EE10FA48BFF1EE677A77EE21
:10892400877A4CBF5B4B5C4BBCEEE77AF5EEC07AC2
:10893400F1EE10FA17EE102A4CBFB1EE677AB0EEE2
:10894400677A37EE067A0092BCEEC77A574AB8EED9
:10895400477A022077EEC77A67EEA67AFCEEE77ACA
:10896400CDED017AA84704F045FB012835D9D4EDB3
:108974000B7A9FED457A434B9FED436A1D69DFED0A
:10898400436A4349F5EEC07AF1EE10FA48BFF1EEBE
:10899400677A77EE877A4CBF3E4B3F4BBCEEE77A63
:1089A400F5EEC07AF1EE10FA17EE102A4CBFB1EED4
:1089B400677AB0EE677A37EE067A0092BCEEC77A31
:1089C4003B4AB8EE477A022077EEC77A67EEA67A7A
:1089D400FCEEE77ACDED017AA84704F00BFB012801
:1089E40035D9D4ED0C7A9FED287A264B9FED266A73
:1089F4001D69DFED266A2649F5EEC07AF1EE10FA1C
:108A040048BFF1EE677A77EE877A4CBF214B224B51
:108A1400BCEEE77AF5EEC07AF1EE10FA17EE102A02
:108A24004CBFB1EE677AB0EE677A37EE067A009201
:108A3400BCEEC77A1F4AB8EE477A022077EEC77AAF
:108A440067EEA67AFCEEE77ACDED017AA84704F04A
:108A5400D1FA012851D9D4ED0D7A9FED0B7A094B47
:108A64009FED096A1D69DFED096A0949F5EEC07ACF
:108A7400F1EE10FA48BFF1EE677A77EE877A48BFD5
:108A8400044B19E068860020BD370635002474497C
:108A9400502404009424040024340400E426040034
:108AA4000C2704003C270400642704008C270400DE
:108AB400B0270400D027040058BF8B4BBCEEE77AE4
:108AC400F5EEC07AF1EE10FA17EE102A4CBFB1EEB3
:108AD400677AB0EE677A37EE067A0092BCEEC77A10
:108AE400824AB8EE477A022077EEC77A67EEA67A12
:108AF400FCEEE77ACDED017AA84704F07BFA012871
:108B040035D9D4ED0E7A9FED7A7A7A4B9FED786A57
:108B14001D69DFED796A7949F5EEC07AF1EE10FA54
:108B240048BFF1EE677A77EE877A4CBF744B6E4B91
:108B3400BCEEE77AF5EEC07AF1EE10FA17EE102AE1
:108B44004CBFB1EE677AB0EE677A37EE067A0092E0
:108B5400BCEEC77A6B4AB8EE477A022077EEC77A42
:108B640067EEA67AFCEEE77ACDED017AA847E36BCF
:108B74007BB104F03FFA012805D95E4B624A1B69B8
:108B84005E4902209847E06B03B0BDE8304001F035
:108B940013BD03B030BD574B94F85D001D6906F05A
:108BA4008BFB5A4A554903460220A84704F022FA8F
:108BB40001287FF6F9AC20E04E4B94F85C001D6967
:108BC40006F07AFB524A4D4903460220A84704F0B6
:108BD40011FA01287FF6E3ACDDE7464B207C1D69E2
:108BE40006F06AFB4B4A454903460220A84704F0B5
:108BF40001FA01283FF63AAD93E53E4B94F85E0046
:108C04001D6906F059FB444A3C4903460220A84723
:108C140004F0F0F901283FF6CBACFFE4354BE07BE0
:108C24001D6906F049FB3D4A344903460220A84722
:108C340004F0E0F901287FF615ADCEE72D4BA07BBB
:108C44001D6906F039FB364A2C4903460220A84721
:108C540004F0D0F901287FF600ADDFE7254B94F846
:108C640054001D6906F034FB2E4A244903460220B1
:108C7400A84704F0BFF901283FF651AC85E41D4B29
:108C840094F842001D6906F02FFB274A1B4903464E
:108C94000220A84704F0AEF901283FF6A3ABFFF782
:108CA400A9BB144B94F841001D6906F005FB1F4A4B
:108CB400124903460220A84704F09CF901287FF6D4
:108CC4008DABDCE70B4B94F840001D6906F0F4FA19
:108CD400174A0A4903460220A84704F08BF90128E1
:108CE4007FF677ABDDE700BF24340400F8270400E7
:108CF400BD370635688600200024744950240400DA
:108D040094240400202804004C280400C8250400EE
:108D1400AC250400A0260400E825040084260400F1
:108D24006426040078250400FC240400DC240400E8
:108D3400C024040070B520B1104B02689A42044666
:108D440004D0FFF773FA0026304670BD0D460029A3
:108D5400F9D0236AD86B01F005FC06460028F2D04E
:108D6400286803F06BFF236A2860D86B00F09AFA36
:108D74002B6818442860304670BD00BF01B137131A
:108D8400B0B10C4B02689A4210B5044603D0BDE85A
:108D94001040FFF74BBAC06A00F0ECFBA06A02F087
:108DA40051F8002323602046BDE8104004F00EB9BA
:108DB400FFF73CBA01B137132DE9F04184B020B17B
:108DC400494B02689A4204460AD0FFF723FA002569
:108DD4002846FFF7D5FF0027384604B0BDE8F081E8
:108DE4000D460029F4D0414A40F2451338210120B0
:108DF40004F0D0F8074600286CD03D4B3C62204676
:108E04003B6001F04FF8E06B03A901F0ABFB0028D5
:108E140067D0039803F012FF391D3863E06B02F04A
:108E240035F8B86200285CD0E16B04F1080000F06A
:108E34004DFAF862002854D00021E06B01F0F8FDEF
:108E440002F096F8E06B85ED000A01F0B5FD0138FB
:108E5400C1B2E06B019101F0EBFD01998046E06B3A
:108E640001F02AFE01990646E06B01F069FE013E1D
:108E740000FB068002F07CF8002685ED010AAE8135
:108E840006E0E06B01F018FEAB8918440136A881B6
:108E9400E06B01F091FDF1B28842F2D894F85E6083
:108EA4003EB1002201233846AA60AB7304B0BDE88A
:108EB400F0813146E06B01F043FE02F059F8E06BBB
:108EC40085ED020A314601F07FFEA873384604B0EE
:108ED400BDE8F081074B084A1B6904493D469847A1
:108EE40076E73D4674E700BF02B13713502404000F
:108EF40001B1371368860020782804002DE9F04179
:108F0400DDE9067828B115461C46124A03689342E7
:108F140004D0FFF78BF90020BDE8F0810E4619B1AB
:108F24000D4B32689A4204D0FFF774F90020BDE873
:108F3400F08196F85D304BB9CDF81880F16B3B4663
:108F440022462846BDE8F04102F0B2B8C06A00F0FB
:108F540031FBF1E701B1371302B13713F0B589B032
:108F640028B11E4B164602689A42054604D0FFF704
:108F74005DF9002009B0F0BD0C460029F9D0002E9F
:108F8400F7D006F11C07A86A3A4601F01FFF6B6B85
:108F940013B13846291D9847296BE86A726A002381
:108FA4000293214403930024049301AB8DF80440FD
:108FB40000F038FB0028DDD00299039A049B9DF849
:108FC40004407160B2600599069AF360079B34709F
:108FD400C6E90412B36109B0F0BD00BF01B1371393
:108FE40018B1044B02689A4201D0FFF713B980ED1F
:108FF400120A704702B1371318B1044B02689A423F
:1090040001D0FFF707B980ED130A704702B1371397
:1090140018B1044B02689A4201D0FFF7FBB880F8FC
:109024004210704702B1371318B1044B02689A42D8
:1090340001D0FFF7EFB880F85410704702B137132E
:1090440018B1044B02689A4201D0FFF7E3B8A0F8C4
:109054005210704702B1371318B1044B02689A4298
:1090640001D0FFF7D7B8A0F85010704702B13713FA
:1090740018B1044B02689A4201D0FFF7CBB880EDD7
:10908400160A704702B1371318B1044B02689A42AA
:1090940001D0FFF7BFB880F85C10704702B13713F6
:1090A40018B1044B02689A4201D0FFF7B3B841608B
:1090B400704700BF02B1371318B1044B02689A42DB
:1090C40001D0FFF7A7B880F85D10704702B13713DD
:1090D40018B1044B02689A4201D0FFF79BB8818112
:1090E400704700BF02B1371318B1044B02689A42AB
:1090F40001D0FFF78FB88173704700BF02B13713F7
:1091040018B1044B02689A4201D0FFF783B8C173C7
:10911400704700BF02B1371318B1044B02689A427A
:1091240001D0FFF777B880ED050A704702B1371315
:1091340018B1044B02689A4201D0FFF76BB801746E
:10914400704700BF02B1371318B1044B02689A424A
:1091540001D0FFF75FB880ED060A704702B13713FC
:1091640018B1044B02689A4201D0FFF753B880ED5E
:10917400070A704702B1371318B1044B02689A42C8
:1091840001D0FFF747B880ED080A704702B13713E2
:1091940018B1044B02689A4201D0FFF73BB880ED46
:1091A400090A704702B1371318B1044B02689A4296
:1091B40001D0FFF72FB880ED0A0A704702B13713C8
:1091C40018B1044B02689A4201D0FFF723B880ED2E
:1091D4000C0A704702B1371318B1044B02689A4263
:1091E40001D0FFF717B880ED0D0A704702B13713AD
:1091F40018B1044B02689A4201D0FFF70BB880F80B
:109204005E10704702B1371318B1044B02689A42DA
:1092140001D0FEF7FFBF80ED180A704702B1371383
:10922400A0B110B50446406D18B103F0CFFE002381
:109234006365A06D18B103F0C9FE0023A365E06D5A
:1092440018B103F0C3FE0023E36510BD704700BFEF
:10925400C0EE207A9FED107AF4EEC77AF1EE10FAA0
:1092640017D89FED0E0A08B527EE800A14F0BCFA51
:1092740020EE006AF7EE007A36EE276A30EE007AC6
:10928400F1EEC66A36EEC00A27EE000A37EEC00ACF
:1092940008BD9FED030A7047A800003FDB0F49405B
:1092A4000000000070B5002506462C4604E001F0DD
:1092B40003FC0444A4B20135304601F07DFBE9B25D
:1092C40088423046F3D8E00070BD00BFF8B5A04A2C
:1092D4002DED068B07460E4640F203136021012054
:1092E40003F058FE0446002800F00981002546607A
:1092F400058105E001F0E0FB238903440135238166
:10930400304601F059FBE9B203468B423046F1D8AE
:10931400002F00F0FD8097ED0A0ABB88B97997ED1C
:10932400008AF8683A69D7ED0C8A6381B5EEC00A01
:10933400FB792173F1EE10FA397A6373854B84ED6E
:10934400048A6061A173A261C4ED098A236040F3B9
:10935400E48028EE000AFFEE007A87EE800A14F01B
:109364001FFCD7ED0B7A84ED070AF5EEC07AF1EE17
:1093740010FA40F3CF8068EE277ABFEE000A80EE41
:10938400270A14F00DFCB5EEC08AF1EE10FA84ED54
:10939400080A40F2A18097ED060AB5EEC00AF1EE84
:1093A40010FA00F1998097ED079AB5EEC09AF1EEA4
:1093B40010FA00F19180D7ED059AF5EEC09AF1EE1E
:1093C40010FA00F1898097ED08AAB5EEC0AAF1EE73
:1093D40010FA00F18180D7ED09AAF5EEC0AAF1EEEA
:1093E40010FA79D4F0EE480AFFF732FFF0EE480A9B
:1093F40084ED0A0AB0EE490AFFF72AFFF5EEC09A97
:10940400F1EE10FA84ED0B0A40F39F8068EE299A7E
:10941400BFEE000A80EE290A14F0C2FBB5EEC0AA22
:10942400F1EE10FA84ED0C0A40F38C8028EE0AAABF
:10943400BFEE000A80EE0A0A14F0B2FBF5EEC0AAF1
:10944400F1EE10FA84ED0D0A79DD68EE2AAABFEE7A
:10945400000A80EE2A0A14F0A3FBF5EEC08AF1EEAE
:1094640010FA84ED0E0A67DD28EE288ABFEE000AA2
:1094740080EE080A14F094FB2389354A2C2101FB61
:1094840003F101206E2384ED0F0A03F083FD21898B
:109494002F4A606589006F23012003F07BFD218939
:1094A400A06570232A4A8900012003F073FD636DCF
:1094B400E065002B34D0A36D002B31D000282FD0D1
:1094C400BDEC068B00230022204623646364A3645E
:1094D4002265A4F84C20F8BD1F4D204A2B691C4975
:1094E400002098472B691E4A1949002098472046B6
:1094F40003F06CFDBDEC068B00242046F8BD164B32
:10950400184A1B6912499847BDEC068B2046F8BDE2
:10951400114DE7E79FED140A35E79FED130A20E7A5
:109524000D4D124A2B690A49002098472046FFF73F
:1095340077FE2B690E4AD7E79FED0B0A9CE79FED58
:109544000A0A8AE79FED080A78E79FED070A65E7AC
:109554009828040003B1371368860020D828040033
:10956400FC280400B828040000000000202904009E
:109574003829040010B520B10A4B02689A42044607
:1095840007D0094B094A1B690949BDE8104000206E
:109594001847FFF745FE002323602046BDE810402E
:1095A40003F014BD03B13713688600205829040062
:1095B4009828040010B5044608B3406D00B3A36DA9
:1095C400F3B1E36DE3B123892C2202FB03F2002102
:1095D40016F0FCF82289A06D9200002116F0F6F82E
:1095E4002289E06D9200002116F0F0F80023002299
:1095F40023646364A3642265A4F84C20012010BD95
:10960400054B064A1B690649002098472046FFF788
:1096140007FE002010BD00BF6886002074290400E6
:10962400982804002DE9F04F2DED068B8DB030B154
:10963400164698460268B64B9A42044612D0B54C78
:10964400B54A2369B549002098472369B44AB34908
:10965400002098474FF0000948460DB0BDEC068B3A
:10966400BDE8F08FD0ED147A038990ED0A0AC8F8AA
:109674001010F8EE677AF7EE000A77EEA07A01EBA5
:10968400830580EEA77AC8E9055370EEC70ACDEDCD
:10969400050A14F01AF8DDED050AB0EE40AA94EDBF
:1096A4000B0A14F012F8DDED050AF0EE409A94ED81
:1096B4000C0A14F00AF8DDED050AB0EE409A94EDB8
:1096C4000D0A14F002F8DDED050AF0EE408A94ED7F
:1096D4000E0A13F0FAFFDDED050AB0EE408A94EDB0
:1096E4000F0A13F0F2FFDDED050A8DED089AF0EE96
:1096F400407A94ED080A8DED0A8ACDED0B7A8DED52
:1097040006AACDED079ACDED098A13F0DEFF606855
:10971400656D94ED079AB0EE408A01F0C3FA06AB8A
:10972400217B0293236D00930191024623892846ED
:10973400314600F0D3FC002800F0C080D4E9163292
:109744002189606D00F0C8FE8146002800F0DD80AC
:1097540023899FED747A002B00F0D280D8E904713C
:109764000022E06DA66DF0EE476A924693461546D8
:10977400F0EC017AF4EEE76AF1EE10FAE7EC017A24
:1097840048BFF0EE676AF6EC017AF4EEC77A48BF98
:10979400AB460132F1EE10FAC8BFAA4695B2C8BF73
:1097A400B0EE677A9D42E1EC017AE1D3F7EE007AFC
:1097B40077EEC98A94ED106A94ED110A638977EE05
:1097C400C87A68EEA66A27EE877A69EE068A28EEDA
:1097D400008A78EEA68A38EE078AC4ED108A84EDF2
:1097E400118A002B40D0D4ED127A78EE677AF5EE28
:1097F400C07AF1EE10FA67D49FED4A0A002207EE10
:10980400903A94ED04AADFED470AA4F84C20B8EE90
:10981400679A69EE0AAA30EE6A0A13F03FFFF0EE87
:10982400409A89EEAA0A14F0BBF9C8EE00AA94ED96
:10983400098AC4ED11AA28EE290A80EE090A14F057
:10984400AFF9C8EE007AF5EEC07AF1EE10FA54DD05
:109854002AEE27AABFEE000A80EE0A0A14F0A0F945
:1098640084ED0F0AC4ED12AA637B33B1D4ED057AFB
:10987400F4EEE78AF1EE10FA2FDCA37BD4ED117A33
:1098840033B194ED067AF4EEC77AF1EE10FA32DCD5
:1098940000220023C8F80C2088F80030236DC8ED9E
:1098A400018A5A1C14BF013300234846C8ED027ACA
:1098B40023650DB0BDEC068BBDE8F08F154C1A4A3C
:1098C400236916499847C0E6B4F84C20013292B295
:1098D40007EE902AB8EE670A91E75946606803F0EC
:1098E4007DFA0123D4ED108AD4ED117A88ED030AB0
:1098F40088F80030D2E75146F0E79FED0A0AAFE757
:109904009A469B46F0EE476A50E7024C9DE600BF3C
:1099140003B13713688600205829040098280400EE
:10992400E029040000000000A4290400F0B52DED96
:10993400028B83B00E4B0193B0EE408A0DF1050506
:1099440002AF02240126204603F016F970EE007AD5
:10995400F4EE487AF1EE10FA98BF2646BD4202D0E2
:1099640015F8014BEFE7304603B0BDEC028BF0BDB8
:109974000203040508B52DED028BB0EE608AF0EE0B
:10998400408A03F009F9F0EE407AB0EE480AB0EEEE
:10999400678A14F0FBF89FED117A60EE076AB2EE65
:1099A400040A36EEA87A37EE487AC7EE000A14F0B5
:1099B4006FF913F0F3FEDFED0A0A13F086FEF0EE02
:1099C400400AB7EE000A13F069FEBDEC028BBCEE50
:1099D400C00A10EE103A98B208BD00BF0000204241
:1099E4000080FF432DE9F04F2DED068B89B006462C
:1099F400884617461D46F0EE408AB0EE608A03F0B2
:109A0400CFF9002800F0A480DFED707A052038EE4D
:109A1400278A03F05BF9032D09EE900A4FF0000941
:109A240000F0A080042D00F0C480022D00F0B98065
:109A340000224FF07E53039204930DF1100A38EE86
:109A4400687ADFED637A0AEB8502544601E0F4ECB0
:109A5400017A67EE277A944277EEA87A44ED017A88
:109A6400F5D145B305F1FF3B5FFA8BF39FED59AA9E
:109A7400DFED59AA0DF1140B0BEB830B0025BAECA7
:109A8400017AB4EEE87AF1EE10FA12DDF8EE697AB2
:109A9400B0EE688A67EE8A7A002438EE278A0134A9
:109AA400B4EEC78AF1EE10FAA4B2F6D464B9F0EEBB
:109AB400488AD345E3D1B9F1000F5DD1284609B0F6
:109AC400BDEC068BBDE8F08F88EE0A0A13F066FE43
:109AD4007A19D2B23068019205210135EDB2B0EEA7
:109AE400409A01F04FF8C8EE8A7A019A3068F0EE95
:109AF400488A77EEAA7AFDEEE77A17EE901A00F01C
:109B040075FF019A306819EE901A00F0F7FF2146AC
:109B1400019A306800F0AEFF98ED000A3468F0EE68
:109B2400480A0520FFF726FF019A0146204601F066
:109B34006DF8BDEEC99A052119EE103A18B23468D1
:109B440003F03AF8019A0146204601F009F9B0E71A
:109B5400052003F0BBF8032D09EE900A4FF001092C
:109B64007FF460AF1D4B0493002203924FF07E53A9
:109B74001B4A0592069360E77A1E34682A44D2B2DF
:109B840011462046019200F097FF013081B2019AFC
:109B9400204600F06FFF284609B0BDEC068BBDE8F7
:109BA400F08F00230F4A03934FF07E5304920593E2
:109BB40043E700230C4A03930C4B049205930C4A8D
:109BC40006924FF07E53079337E700BF0AD7233C32
:109BD400000000000AD7233B17B7D138713D0A3F74
:109BE400295C4F3FA4703D3FD7A3F03E3333333F4E
:109BF40052B85E3F2DE9F04F2DED068B87B0054638
:109C0400019191460393B0EE409AF0EE60AA03F0FE
:109C1400C7F828B1DFED9F7A00237AEEA7AA039351
:109C2400B0EE490AFFF782FEB0EE6A0A0446FFF777
:109C34007DFE052C064600F0FA80974B4FF0033268
:109C44000528CDE9042300F0D480012C00F0138111
:109C5400022C00F0D5809DF81680A04514BF4FF06B
:109C640003084FF00208C8F10104E4B2012E00F029
:109C7400FC80022E00F002819DF81670B74214BFDA
:109C8400032702273919C9B2484603F081F841462F
:109C9400CB431F4405AB03EB08048146002309E0D2
:109CA40006AA1A44013302F8080CDBB24A1CD1B2EA
:109CB40004291FD014F8010BB04200F0FD0219D89A
:109CC400994517D9012AEBD00228E9D1A9EB030C55
:109CD400CA19D2B25FFA8CFC0DF1180E94459E4459
:109CE40003F10102E2D3D3B24A1CD1B204290EF823
:109CF400080CDFD1B9F1000F00F091804FF000089B
:109D040009F1FF33DFED659A9FED65AA029344469E
:109D14000DF1100A1AF8016B304602F0D7FF029BCE
:109D2400434507466FD09AF8000002F025FF70EE15
:109D3400007AF4EEC97AF1EE10FA6BDD07EE107AD0
:109D4400B8EE477AB0EE498A27EE297A4FF0000B35
:109D540038EE078A0BF1010BB4EEE78AF1EE10FA44
:109D64001FFA8BFBF4D488EE290A13F017FD224660
:109D74003146286808F10108F0EE408A00F002FF3D
:109D8400C9EE297A2246286877EE8A7AFDEEE77AC8
:109D940017EE901A00F02AFE22463946286800F091
:109DA400ADFE22465946286800F064FE019B2F68E8
:109DB40093ED000AF0EE480A3046FFF7DBFD224639
:109DC4000146384600F022FFFDEEE88A314618EEDF
:109DD400903A18B22E6802F0EFFE224601465FFA6E
:109DE40088F4304600F0BCFFA14518D9B0EE489A7B
:109DF40090E7012C3BD0022C4FF004067FF42BAFEC
:109E04004FF001082FE7F0EE6A7AF4EEC97AF1EE2A
:109E140010FA93DCB0EE498A4FF0000BA3E7039BE2
:109E240073B9484607B0BDEC068BBDE8F08F052832
:109E340026D0194B4FF00332CDE9042304240AE75A
:109E44002C6809F1FF32D2B211462046019200F08B
:109E540033FE013081B2019A204600F00BFE4846E1
:109E640007B0BDEC068BBDE8F08F00270AE74FF082
:109E74000008042600E74FF00008F7E6012701E791
:109E8400054B4FF00332CDE90423FE244FF00308C1
:109E9400EFE700BF0AD7233C010203040AD7233BA0
:109EA40017B7D1382DE9F0412DED048B90F85E30D1
:109EB40082B00446002B5ED090ED120ADFED7E8A5C
:109EC400DFED7E0A80EE280A02F0BCFEB0EE409A76
:109ED40094ED130ADFED790A80EE280A02F0B2FE4F
:109EE400052029EE289A60EE288A02F045FE30EE1D
:109EF400008AF4EEC88AF1EE10FA40F2C080B4EEA3
:109F0400C89AF1EE10FA00F3AC80DFED6C0A88EE2B
:109F1400880A02F097FE13F041FC032004F13C068A
:109F2400FCEEC07A17EE901A0139C9B202F030FF84
:109F3400012102F031FFC0F1040204F1600107467F
:109F4400B0EE490AD2B20023F0EE480A304601913D
:109F5400FFF750FE054601993B463046F0EE680A8D
:109F6400B0EE480A2A46FFF73DFD2844C1B2E06B33
:109F740000F00CFD5AE090F84030002B40F08D804A
:109F840094F8413090F84280002B40F09080B4F86F
:109F94004470D4ED128A9FED488A88EE880A13F043
:109FA400C7FB07EE907A94ED137ADFED440AF8EEDE
:109FB400677A37EE687A67EE887AFDEEC06A87EED4
:109FC400270A16EE906A02F03DFEF7EE007A30EEB4
:109FD400270A13F0E3FBBCEEC00AE06B10EE103A64
:109FE40001219DB200F0D2FCE06B414600F03CFE42
:109FF400E06B314600F02CFE2946E06B00F02CFEAD
:10A00400E06B394600F02CFE29B2013911FB0761DF
:10A0140008B24146E56B02F0CFFD0146284600F048
:10A02400C1FEB4F85210E06B00F022FE94F8541014
:10A03400E06B00F067FEE06BB4F8501000F01CFE1B
:10A0440094ED160A94F85C30E06B84ED020A0BB1CF
:10A054009FED1B0A02B0BDEC048BBDE8F04100F09B
:10A064003BBE04F16001F0EE680AB0EE490A042335
:10A07400002204F13C00FFF7B5FC014677E704F148
:10A084006001F0EE680AB0EE490A0123042204F1EB
:10A094003C00FFF7AFFD014669E790ED120A02F0BC
:10A0A400E9FD94F841308046002B3FF470AF404600
:10A0B40000F008F807466CE70AD7233BACC52737FE
:10A0C400000000000138C0B204289ABF024B33F8E4
:10A0D40010000120704700BF983B04002DE9F04FA9
:10A0E4002DED108B97B09DF8C4400791039208940E
:10A0F400002800F0C981329C002C00F0C4810029A2
:10A1040000F0C181052A40F2BE8103994A1E12FB68
:10A1140001F292B207EE902AF8EE677ACA1EF1EEC7
:10A12400E76A92B207EE101A07EE902A329AF8EE16
:10A1340047BA92ED04DA9FEDE57AD2ED03DA92EDB7
:10A1440002AAF8EE677AB7EE00BA67EE877A3BEEBA
:10A154004D7AF1EEEB5AC7EE277A3BEE6D6A3BEE91
:10A164004ACAC6EE266ACDED0B7A6CEE257ACDEDA1
:10A174000F5ACDED0A6ACDED097A002B00F09C81CF
:10A18400329A9FEDD38AD2ED00EA92ED01EADFED37
:10A19400D1AA7BEE6E7A5A1ECDED0D7A7BEE4E7A05
:10A1A400002192B29B000491CDED0E7A0C920293A1
:10A1B4008146079B049ACDF81890002403EB82058E
:10A1C4002F460595CDE91044CDE91244CDE9144458
:10A1D400DFEDBF9A2646A04620462146A346A24666
:10A1E4002546A14600E098463246B7F9006023466A
:10A1F400B7F90240AE46B51ACC46A4EB03095B4658
:10A20400A5EB0E0B5246A9EB0C0AABEB030C029B1D
:10A21400B8F1020F3144AAEB020220441F4413D9BF
:10A2240007EE902AF8EEE70A07EE90CAB8EEE70ABE
:10A2340060EE887ACDE9001030EE270A13F026FE8E
:10A24400DDE9001079EE809A039A08F101039BB2CC
:10A254009A42C8D107EE901AB8EEE77A07EE900A50
:10A26400F8EEE77A87EE2B9ADDE90559029E002481
:10A27400C7EEAB8ADFED96CAB5F9023000EE903A2C
:10A28400B5F90030F8EEE00A07EE903A70EEE80A0D
:10A29400F8EEE77A20EE880A77EEC97A354437EE8D
:10A2A400800A13F0F3FD2346434504F101047CEED8
:10A2B40080CAA4B2E0D168EE885AF0EE680A75EE5E
:10A2C40089FAB0EE6F0A13F0E1FD99ED006A99ED99
:10A2D400017ADDED0E5ADDED0D7A99ED035AD9EDD3
:10A2E400046AD9ED024A089B60EE277A2EEE866A4C
:10A2F40020EE250A2EEE077A36EE276A37EE007A2C
:10A30400DDED0A7ADDED0B5A89ED006A6CEEA7CA21
:10A3140076EE477A69EEA59ADDED095A89ED017A60
:10A32400F0EEE77A2DEE855A6DEE266A67EEA57A91
:10A334006AEE244A75EE2CCA36EEA9FA77EEA47AB0
:10A34400C9ED03CA89ED04FAC9ED027A002B00F0C5
:10A35400A080309B002B00F09F80D9ED06CAD9ED78
:10A36400059A2CEE880AF0EE6C0A30EE290A13F0F6
:10A37400A8FDF0EE680AB0EE407AB0EE6F0A8DEDFB
:10A38400007A13F09EFD9DED007A4FF0FF3307EE47
:10A39400903AF8EEE77A013377EEA77ADAB267EE0D
:10A3A400AA7A5BB277EE807A37EEC76AB0EEC66AF5
:10A3B400B4EEEA6AF1EE10FA40F28480022AE6D1A1
:10A3C40077EE407A99ED076A99ED095A99ED087A82
:10A3D400F0EEE77A6AEE065A67EE8C7A2AEE055AB0
:10A3E4002AEE077A29EE0C6A68EE8C0A77EE857AF3
:10A3F40035EE866A77EE200AB4EECBFAF1EE10FA67
:10A40400C9ED097A89ED076AC9ED080A51DD20EE24
:10A41400880ACDED007A30EE060A13F037FDDDED43
:10A424000F7A20EE270AF1EE047A80EE0F7AB4EE6A
:10A43400677AF1EE10FAC8BFB0EE677ADDED007A04
:10A44400329B67EE877AC9ED0A7AD3ED057A3BEE43
:10A45400677A67EEA99A27EE099A67EEAC7A27EE37
:10A46400287A39EE899A77EE877A89ED059AC9EDCB
:10A47400067A049A0C99914209F12C0902F101031C
:10A484001AD0049395E6002017B0BDEC108BBDE8FC
:10A49400F08F89ED0ABAECE7B0EE6F0AF0EE680AC5
:10A4A400F0EE68CAF0EE499A89ED059AC9ED068A7C
:10A4B4005DE79FED077AC3E7012017B0BDEC108B71
:10A4C400BDE8F08FB0EE670A7AE700BFBD1B8F408E
:10A4D40000000000DB0F4940D9B30139F0B489B260
:10A4E4001F1DDFED1D5A07EB81071D460146164669
:10A4F4001C46B7EE006A91ED047AB4EEC67AF1EE2A
:10A5040010FACCBFC6EE076AF0EE656A2AB191ED87
:10A51400037A27EE267A86ED007A04362BB1D1ED44
:10A52400027A67EEA67AC4ED007A0434BC4201F1E3
:10A534002C01E0D153B1D0ED0A7A95ED007A67EEA3
:10A54400877A2C30E5EC017ABD42F4D10120F0BCCD
:10A5540070470120704700BF0000000008B102F0FE
:10A564008DBC704710B50C4600F0E2FB58B124B125
:10A574002146BDE8104002F063BD044B044A1B6948
:10A58400044920469847002010BD00BF688600207B
:10A59400202A04003C2A040008B5044B044A1B6921
:10A5A400044900209847002008BD00BF68860020A9
:10A5B400482A0400602A04002DE9F04782B020B143
:10A5C400BF4B02689A42044608D0BE4BBE4A1B6980
:10A5D400BE49002002B0BDE8F047184702F00AFD6A
:10A5E400012835D9D4ED117A9FEDB97AB54B9FED99
:10A5F400B86A1D69DFEDB76AB449F5EEC07AF1EEC9
:10A6040010FA48BFF1EE677A77EE877A4CBFB24B07
:10A61400B24BBCEEE77AF5EEC07AF1EE10FA17EE23
:10A62400102A4CBFB1EE677AB0EE677A37EE067A3D
:10A634000092BCEEC77AAA4AB8EE477A022077EEB7
:10A64400C77A67EEA67AFCEEE77ACDED017AA847E1
:10A6540002F0D0FC012835D9D4ED127A9FED9C7A12
:10A66400984B9FED9B6A1D69DFED9A6A9749F5EE59
:10A67400C07AF1EE10FA48BFF1EE677A77EE877A86
:10A684004CBF954B954BBCEEE77AF5EEC07AF1EEF4
:10A6940010FA17EE102A4CBFB1EE677AB0EE677A63
:10A6A40037EE067A0092BCEEC77A8E4AB8EE477A45
:10A6B400022077EEC77A67EEA67AFCEEE77ACDED54
:10A6C400017AA84702F096FC012807D97D4AB4F81C
:10A6D4004C3015697D49844A0220A84702F08AFC5F
:10A6E400012800F2E08002F085FC012800F2C3801A
:10A6F40002F080FC012800F2B28002F07BFC012809
:10A7040000F2C58002F076FC012807D96D4A94F85E
:10A71400523015696D49754A0220A84794F85230A1
:10A72400002B00F09980DFF89C81DFF8FCA1674ED4
:10A7340025464FF0000902F05DFC012806D9D8F83F
:10A7440010704B46524631460220B84702F052FC84
:10A75400012806D9D8F810706B68654A3146022082
:10A76400B84702F047FC012806D9D8F810702B89A5
:10A77400604A31460220B84702F03CFC012806D961
:10A78400D8F810706B895C4A31460220B84702F051
:10A7940031FC012806D9D8F81070AB89574A3146E4
:10A7A4000220B84702F026FC012806D9D8F8107018
:10A7B400AB7B534A31460220B84702F01BFC012808
:10A7C40009D9E87BD8F8107004F076FD4D4A0346A9
:10A7D40031460220B84702F00DFC012809D9287C33
:10A7E400D8F8107004F068FD474A03463146022049
:10A7F400B84702F0FFFB012809D9687CD8F810702B
:10A8040004F05AFD414A034631460220B84702F09B
:10A81400F1FB012809D9E87CD8F8107004F064FD34
:10A824003B4A034631460220B84702F0E3FB0128C5
:10A8340009D9A87CD8F8107004F064FD354A0346A1
:10A8440031460220B84794F8523009F101094B45CA
:10A8540005F110053FF66FAF02B0BDE8F087194B64
:10A8640094F853001D6904F033FD2B4A174903463D
:10A874000220A84741E7134B94F84F001D6904F0E8
:10A884001BFD264A114903460220A84730E70D4B19
:10A8940094F854001D6904F01BFD214A0B4903463A
:10A8A4000220A8472EE7074B94F84E001D6904F0D8
:10A8B40003FD1C4A054903460220A84713E700BFCD
:10A8C4000FB0371368860020682A0400602A040049
:10A8D400BD3706350024744994240400243404004C
:10A8E400802A04009425040054250400E82A040066
:10A8F4000C2B0400282B0400442B0400602B0400C0
:10A904007C2B0400982B0400B42B0400D02B0400EF
:10A91400EC2B0400082C040078250400B42A04005D
:10A92400CC2A0400982A0400FC2A040010B5084A22
:10A9340056235C21012002F02DFB044630B1054B67
:10A9440040F8043B0449582214F00EFF204610BD81
:10A95400602A04000FB03713A43B040018B1074A5F
:10A964000168914205D0064B064A1B69064900203E
:10A9740018470022026002F029BB00BF0FB0371352
:10A9840068860020682A0400602A040018B1064B77
:10A9940002689A4205D0054B054A1B690549002007
:10A9A400184780F8521070470FB03713688600209C
:10A9B400682A0400602A040008B518B1074B02682D
:10A9C4009A4207D0064B074A1B690749002098475B
:10A9D400012008BD90F8520008BD00BF0FB0371326
:10A9E40068860020682A0400602A040070B520B13B
:10A9F4000B4B04460068984207D00A4B0A4A1B696D
:10AA04000A49BDE8704000201847032A0D4616463F
:10AA140002D9FFF7C1FD10B104EB0614656070BDE7
:10AA24000FB0371368860020682A0400602A0400E7
:10AA340038B520B10B4B02689A42044607D00A4B42
:10AA44000A4A1B690A4900209847002038BD032997
:10AA54000D4603D9FFF7A0FD0028F7D004EB051439
:10AA6400606838BD0FB0371368860020682A040078
:10AA7400602A040070B520B10B4B0446006898426C
:10AA840007D00A4B0A4A1B690A49BDE870400020F6
:10AA94001847032A0D46164602D9FFF77DFD10B16B
:10AAA40004EB0614258170BD0FB0371368860020AF
:10AAB400682A0400602A040038B520B10B4B0268F0
:10AAC4009A42044607D00A4B0A4A1B690A490020E5
:10AAD4009847002038BD03290D4603D9FFF75CFDD4
:10AAE4000028F7D004EB0514208938BD0FB03713C4
:10AAF40068860020682A0400602A040070B520B12A
:10AB04000B4B04460068984207D00A4B0A4A1B695B
:10AB14000A49BDE8704000201847032A0D4616462E
:10AB240002D9FFF739FD10B104EB0614658170BD3D
:10AB34000FB0371368860020682A0400602A0400D6
:10AB440038B520B10B4B02689A42044607D00A4B31
:10AB54000A4A1B690A4900209847002038BD032986
:10AB64000D4603D9FFF718FD0028F7D004EB0514B0
:10AB7400608938BD0FB0371368860020682A040046
:10AB8400602A040070B520B10B4B0446006898425B
:10AB940007D00A4B0A4A1B690A49BDE870400020E5
:10ABA4001847032A0D46164602D9FFF7F5FC10B1E3
:10ABB40004EB0614E57470BD0FB0371368860020EB
:10ABC400682A0400602A040038B520B10B4B0268DF
:10ABD4009A42044607D00A4B0A4A1B690A490020D4
:10ABE4009847022038BD03290D4603D9FFF7D4FC4A
:10ABF4000028F6D004EB0514E07C38BD0FB0371301
:10AC040068860020682A0400602A040070B520B118
:10AC14000B4B04460068984207D00A4B0A4A1B694A
:10AC24000A49BDE8704000201847032A0D4616461D
:10AC340002D9FFF7B1FC10B104EB0614A58170BD75
:10AC44000FB0371368860020682A0400602A0400C5
:10AC54000022FFF7CBBE00BF0022FFF70BBF00BFEF
:10AC64000022FFF74BBF00BF0022FFF78BBF00BFDE
:10AC74000022FFF7CBBF00BF18B1064B02689A420F
:10AC840005D0054B054A1B69054900201847A0F863
:10AC94004C1070470FB0371368860020682A0400F0
:10ACA400602A040008B518B1074B02689A4207D01D
:10ACB400064B074A1B69074900209847002008BD36
:10ACC400B0F84C0008BD00BF0FB0371368860020F1
:10ACD400682A0400602A040018B1064B02689A42EC
:10ACE40005D0054B054A1B6905490020184780ED2E
:10ACF400120A70470FB0371368860020682A0400D0
:10AD0400602A040018B1064B02689A4205D0054B2C
:10AD1400054A1B6905490020184780F853107047FD
:10AD24000FB0371368860020682A0400602A0400E4
:10AD340008B518B1064B02689A4207D0054B064A7B
:10AD44001B69064900209847002008BD043008BD4F
:10AD54000FB0371368860020682A0400602A0400B4
:10AD640070B520B10B4B04460068984207D00A4BDB
:10AD74000A4A1B690A49BDE8704000201847032AA3
:10AD84000D46164602D9FFF707FC10B104EB061472
:10AD9400A57470BD0FB0371368860020682A0400BC
:10ADA400602A04000022FFF7DBBF00BF70B48C8868
:10ADB40093680E898D79CA799A70003C18BF012472
:10ADC4009E801C705D70986070BC704770B51546AD
:10ADD4000E4620B1154B02689A42044608D0144C22
:10ADE400144A236914490020984776B1A5B170BD6F
:10ADF40051B1C5B18560406802F094FA6368BDE85A
:10AE04007040D3E900021047094C23690B4A0A49F0
:10AE140000209847002DEAD12369094A0649BDE874
:10AE2400704000201847024CF6E700BF0DB03713FE
:10AE340068860020582904003C2C0400482C040097
:10AE4400242C040010B520B10C4B02689A4204462D
:10AE540007D00B4B0B4A1B690B49BDE8104000207F
:10AE64001847406818B1C3689847002363600023FB
:10AE740023602046BDE8104002F0A8B80DB0371397
:10AE840068860020582904003C2C04002DE9F04178
:10AE940088B00C46FFF74CFF002850D0002C43D05C
:10AEA4002E4A064667231021012002F073F8054656
:10AEB400002844D02A4B03600DF10C08294B00965E
:10AEC40041466846CDE9013502F0C6F80746686098
:10AED40000283ED00023638096F84E101A469C4604
:10AEE400201DDFB2B9422FD938F8137002803A44DA
:10AEF40092B2628007810133042B00F10200F0D189
:10AF0400B6F84830059961619DF81800BDF81A102B
:10AF1400207613FB02F2BDF81C302280A981EB815C
:10AF2400284608B0BDE8F0810F4B104A1B690B4955
:10AF3400204698472546284608B0BDE8F0810025FC
:10AF4400284608B0BDE8F081A0F800C0A0F808C009
:10AF5400D1E72846FFF776FF3D46E1E73C2C0400A5
:10AF64000DB03713B1AD020068860020602C0400D8
:10AF740002F064BC10B520B10B4B02689A4204463F
:10AF840007D00A4B0A4A1B690A49BDE81040002051
:10AF9400184700230360006902F0FCF92046BDE86D
:10AFA400104002F013B800BF0EB0371368860020BB
:10AFB400782C0400902C040070B5204A06463B23EC
:10AFC4001421012001F0E6FF78B3044602F0D0F921
:10AFD4000546206160B31A4BA6600021C4E9003124
:10AFE4006173304602F080FA054668B1304602F0DB
:10AFF4007DFA054680B9A06802F022FCA0682946C3
:10B0040002F020FC204670BD2046FFF7B3FF304617
:10B0140002F06CFA48B12C460A4B0B4A1B690749EB
:10B02400002098472046FFF7A5FF0024204670BD66
:10B03400204601F0CBFF2C46F8E700BF902C04001B
:10B044000EB0371368860020982C040030B583B006
:10B0540028B10D46044612490068884208D0114BB5
:10B06400114A1B69114900209847002003B030BDE4
:10B07400002DFAD0002AF8D0002BF6D00092194601
:10B08400069AA06804F10D0300F0D0F80028ECD073
:10B09400637B0A2B0CBF012300232B70E6E700BF60
:10B0A4000EB0371368860020782C0400902C04001E
:10B0B400F0B585B030B116461F460268224B9A425D
:10B0C400044608D0214B224A1B6922490020984794
:10B0D400002005B0F0BDF6B130460D4600F042FC4C
:10B0E400C8B12846FFF724FE05460028F1D0A06821
:10B0F40002F0FCF9207388B100972369201DCDE983
:10B104000130A21D0392A0680A9B3246294602F030
:10B11400DBFA05B0F0BD0D4B0F4AD5E7A06802F08D
:10B1240093FB237B002BE7D10028E5D1009723690B
:10B13400201DCDE90130A21D0392A0680A9B32466E
:10B14400294602F021FAC4E70EB0371368860020BE
:10B15400782C0400902C0400B42C040010B520B109
:10B164000E4B02689A42044607D00D4B0D4A1B69E8
:10B174000D4900209847002010BD037B3BB980682F
:10B1840002F00CF90028F7D00123237310BD0169E4
:10B194008068BDE8104002F003B900BF0EB0371359
:10B1A40068860020782C0400902C040030B585B00B
:10B1B40028B1194B0D4601689942044608D0174B33
:10B1C400174A1B69174900209847002005B030BD75
:10B1D4008388C1880B44B2EB430F19D3016980689B
:10B1E40000230DF10F028DF80F3002F013F900283F
:10B1F400ECD09DF80F1020692A4602F04BF9009517
:10B20400E388A2882169A06802F0E2F805B030BDA5
:10B21400024B054AD5E700BF0EB0371368860020FD
:10B22400782C0400902C0400C82C04002DE9F04F65
:10B234001C4691B01B781A9F0546884616460A2B71
:10B2440059D8DFE813F065009D00F2005D010B00A2
:10B25400D301070266029B02D102650001F008FCDB
:10B26400002800F08B8008AA4146284601F052FCD1
:10B27400BD48DFF800B3294604F016FDBB49BC48BD
:10B2840004F00AFD0898502104F01EFD07F10A0A93
:10B294004FF00009089805A900EB091000F0C8FC5C
:10B2A400034609F13002B34809F10109002B65D0C6
:10B2B400BDF814108BF80D2004F0F6FCBDF8143022
:10B2C4002AF8023FB9F10A0FE4D1AB4804F0DCFCE0
:10B2D400AA4B00936022019241463246002328463D
:10B2E40002F064FC002840F0F782A54BA54A1B69D4
:10B2F400A54998472378A249A44A0E69A249002087
:10B304000546B0472B462846237011B0BDE8F08FA0
:10B314008C220021384614F059FA01F0E5FD07EEBD
:10B32400900A07F1800AF8EE677A514608A8CDED35
:10B33400087A04F06BFB8146954804F0A5FC8A4822
:10B34400294604F0B1FCB7F88210924804F0ACFC32
:10B35400B7F88410904804F0A7FCB7F886108F481B
:10B3640004F0A2FC8E48B7F8801004F09DFC8D48D0
:10B3740004F08AFCB9F1000F40F0A2822378BAE706
:10B3840001F076FB0028F9D008AA05ABCDE900321C
:10B39400414603AB0DF10E02284601F08BFB7248C7
:10B3A400294604F081FCBDF814107F4804F07CFCAD
:10B3B4006E497E4804F070FC0898102104F07CFC6F
:10B3C400089ABDF81410BDF80E0004AB00F0D6FACC
:10B3D4000028D3D0BDF80C0000F04EFEBDF80C10D0
:10B3E4000646734804F060FCBDF80E10714804F082
:10B3F4005BFCBDF81010704804F056FC6F483146F1
:10B4040004F052FCBDF80C30BDF810103B80284607
:10B41400BE84798001F09CF905460223002DADD04D
:10B424002846237011B0BDE8F08F01F021FB0028FD
:10B43400A4D008AB05AA0093414604AB284601F00A
:10B4440051FB4A495E4804F027FC0598102104F09A
:10B454003BFC059803A900F0CBFA00288ED0BDF878
:10B464000C10584804F020FCBDF80C30BB80564842
:10B4740004F00AFC3C48294604F016FC3B495348B6
:10B4840004F00AFC0898302104F016FCBDF81010F2
:10B494004F4804F009FC0899BDF810000DF10E02A4
:10B4A40000F0F0FA00283FF469AFBDF80E104948E7
:10B4B40004F0FAFBBDF80E3047487B8104F0E4FB4E
:10B4C400012002ABCDE90030324641464FF47E56AE
:10B4D40000232846ADF8086002F068FB20B9284B29
:10B4E4003E4A1B69284998472846BDF80C20BDF8F8
:10B4F4000E1001F04BF905460323002D90D13DE7D2
:10B504000023ADF8143001F0B3FA00283FF436AF4D
:10B5140008AA4146284601F0F5FA1348294604F0E2
:10B52400C3FB12492E4804F0B7FB0898202104F00D
:10B53400CBFB089805A900F0F1FA00283FF41EAFF0
:10B54400BDF81410274804F0AFFBBDF81430FB809D
:10B55400254804F099FB284601F046F905460423E2
:10B56400002D7FF45DAF09E7E02C040024340400CF
:10B574008C2E0400682B0020A42E0400CC5504005B
:10B5840068860020BC2E0400342E04005C310400C4
:10B59400783A0400EC2C0400FC2C0400082D040070
:10B5A400142D0400242D0400342D0400402D040027
:10B5B4005C2D0400682D0400702D04007C2D040013
:10B5C400882D0400A82D0400B42D0400CC2D040003
:10B5D400E02D0400EC2D0400F82D0400102E0400CE
:10B5E400482E04006C2E0400782E040001F040FA6A
:10B5F40000283FF4C3AE08AA4146284601F092FA57
:10B60400BB49BC4804F048FB08984FF4407104F06F
:10B614005BFB089805A900F07BFB00283FF4AEAE65
:10B62400BDF81410B44804F03FFBBDF814303B815E
:10B63400B24804F029FB388908AA602104F0CCFA46
:10B64400284608A901F024F905460623002D7FF4B5
:10B65400E7AE93E64FF6FF73ADF8103001F008FA49
:10B6640000283FF48BAE01F03FFCA54EB7F88030C4
:10B67400DFF8EC92A6FB0026414605AA2846B60947
:10B6840006FB03F601F058FA99499E4804F004FBBE
:10B6940005984FF4407104F017FB04AB3046009357
:10B6A400994A059908AB00F027FDCB4682460DF177
:10B6B4001C08302689F80C60013658F8041F5846D7
:10B6C400F6B204F0F1FA382EF4D1BAF1000F3FF4D7
:10B6D40055AEBDF810108D4804F0E6FABDF81030F0
:10B6E4008B487B8404F0D0FABDF81010284601F092
:10B6F4005FF900283FF442AE07F158030598012290
:10B70400002100F0CDFB05460723002D7FF488AE11
:10B7140034E64FF6FF73ADF8143001F0A9F90028B0
:10B724003FF42CAE08AA4146284601F007FA7049B6
:10B73400784804F0B1FA0898102104F0C5FA089882
:10B7440005AA07F1580100F055FC00283FF416AE95
:10B75400BDF81410704804F0A7FABDF814303B8407
:10B764006E4804F091FA2846BDF8141001F03EF931
:10B7740005460823002D7FF453AEFFE501F078F968
:10B7840000283FF4FBAD08AA4146284601F0DEF943
:10B794005749634804F080FA07F1260608986021A7
:10B7A40004F092FA0898314607F1560200F034FD8D
:10B7B40000283FF4E3AD4E495A4804F06DFA304690
:10B7C400182104F081FAB7F95610574804F06CFABE
:10B7D400564804F059FA284601F046F9054609236B
:10B7E400002D7FF41DAEC9E501F042F900283FF4B5
:10B7F400C5AD08AA04AB4146284601F0AFF93C495F
:10B804004B4804F049FA08984FF4C07104F054FA14
:10B81400089805A900F058FE00283FF4AFADDDE913
:10B824000521079B7B66C7E91721424804F03CFACF
:10B83400F96D414804F038FA796E404804F034FA5E
:10B844003F4804F021FA2A493E4804F025FA0498B6
:10B854004FF4587104F030FA049808A900F07CFE03
:10B86400054600283FF48AADDDE908120A9BB96653
:10B87400FA660B990C9A3B670D9BFB67C7E91D128F
:10B8840038468C2103F0BAFDB96EC7F88C002E48F7
:10B8940004F00AFAF96E2D4804F006FA396F2C48C0
:10B8A40004F002FA796F2B4804F0FEF9B96F2A48C4
:10B8B40004F0FAF9F96F294804F0F6F90A2322E5AD
:10B8C400534628463246414600F0CAFE0546012347
:10B8D400002D7FF4A5AD51E52846FA8807F10C0147
:10B8E40000F086FF05460523002D7FF499AD45E55C
:10B8F40024340400E82E04000C2F0400182F040044
:10B90400D34D6210342F040020289B03582F0400C9
:10B91400682F0400842F0400A82F0400B82F04000B
:10B92400D82F040004300400303004004C300400EC
:10B9340064300400783004008C300400A03004002B
:10B94400B0300400C8300400DC300400F0300400DF
:10B9540004310400183104002C3104004431040083
:10B96400782B002010B58C21044603F047FDD4F851
:10B974008C30181AB0FA80F0400910BDF0B40024DD
:10B98400A4464FF6FF7740FA04F5ED07A6B20AD5B0
:10B9940032F814506D1A002DB8BF6D42ADB2BD42DD
:10B9A4003CBF2F46B4460134102CECD10CF1FF31CE
:10B9B4000D290CD80CF10041013902EB410532F894
:10B9C4001120698841F28734521AA24202DC002015
:10B9D400F0BC7047AA88891AA142F8DD4FF6FF72BD
:10B9E4009042F4D00120F0BCA3F800C0704700BF1F
:10B9F4002DE9F0470024A0F1020C254627464FF616
:10BA0400FF761BE030F914803CF914A008F57A7233
:10BA1400A8EB0A08984530DBC8452EDC82EAE273BD
:10BA2400A3EBE2739BB2B34204D24FEA8E051E46E7
:10BA3400ADB20127BEF10F0F18D00134631E03FB12
:10BA440003F3C3EBC3035A0002F51679C83B1FFA8C
:10BA540084FE002CD6D1B0F9003003F57A73002BA4
:10BA6400B8BF5B429BB2B342DFD3E6E717B185F0C0
:10BA740030050D803846BDE8F08700273846BDE81C
:10BA8400F08700BF2DE9F04FB1F85E300C8883B029
:10BA94001B1BB3F5FA6F01923ADB1F4A4FEA0348C6
:10BAA400A2FB0838002581460E464FEA5818AB46DB
:10BAB400A24610224FF6FF7C012009E0013292B227
:10BAC4008E4538BF0020402A45441AD036F8024F2C
:10BAD400A4EB0903002BB8BF5B429BB20AEB1541F0
:10BAE400634501F548773CBF9C469346BC4204F548
:10BAF400487EE3D9013292B2402A4FF00000454417
:10BB0400E4D130B1019BA3F800B003B0BDE8F08FDD
:10BB1400002003B0BDE8F08FABAAAAAAF0B5B0F933
:10BB240000200E46B1B0114605460124002708E066
:10BB34008A42A8BF274604F10104A8BF1146202C5D
:10BB44000CD0134635F9022FC3F5487313449BB246
:10BB5400B3F5C86FECD9002031B0F0BD072F5FD822
:10BB6400002307F10802D21A03AF0AB3D5183946E5
:10BB740000EB450500EB430434F9020B07EE100A11
:10BB840003FB03F006EE903A07EE900AB8EEC77A8C
:10BB9400F8EE677AF8EE666AA54281ED007AC1EDA7
:10BBA400017AC1ED026A03F1010301F10C01E3D151
:10BBB4003846694603F03EFC0028CCD09DED006A6F
:10BBC400B5EE406AF1EE10FAC5D0DDED016AF5EE8E
:10BBD400406AF1EE10FABED0DDED027AF1EE677A3A
:10BBE40087EEA67AB5EEC07AF1EE10FAB3DBF1EE89
:10BBF400666AC6EE867AF5EEC07AF1EE10FAAAD538
:10BC0400F7EE007A77EE277AFCEEE77A17EE903AB1
:10BC14009BB23F2B9FD85B0883F0100333809BE7D4
:10BC2400FB1F172F88BFC3F120029DD899E700BFDF
:10BC3400DFF8D8C02DE9F0414FF0000E47F6FF774A
:10BC4400B0F900406546F0463E466FF01B0214E032
:10BC5400A742C4BF274696461C2A034616D01B8813
:10BC640030F9024FE31A1BB29E4202F10802A8BF48
:10BC74001E469D4212B2B8BF1D46002CE8DAA44508
:10BC8400EADA1C2AA44690460346E8D1A5F51C55D9
:10BC9400103DADB244F620639D4200D816B1002099
:10BCA400BDE8F0811CF5004F47F6FF7311D09F42A9
:10BCB40029D0AEEB080EBEF1080FF0D1A7EB0C07AC
:10BCC4004FEACC0C9CFBF7F7A8EB070E0FFA8EFE9D
:10BCD40001E09F42E3D0BEF1000F07DBBEF11F0F6E
:10BCE400DDDCA1F800E00120BDE8F081CEF1000E1A
:10BCF4001FFA8EFEBEF11F0FD1D84EF0200EA1F810
:10BD040000E00120CCE7C646E5E700BF0080FFFF66
:10BD14002DE9F04FADF57F7D05AB00F5C062CDE9AF
:10BD2400023204935C4C5D4D0591002381460193DE
:10BD34000DF198083DAF0DF1380A4E46B6F90210E0
:10BD440036F9040B03F0EAFA4AF8040BC245F5D1BC
:10BD54000DF1940BDA464E46B6F96210B6F960005E
:10BD640003F0DCFA4AF8040F574506F10406F3D150
:10BD7400019A3EAB0DAE981800215BF8043F56F8CB
:10BD8400042F9B1AA34261DDA3F5C9237E3BA34282
:10BD9400FADC002BB8BF5B429942B8BF1946BB45D9
:10BDA40040F8043BE9D1029B491043F8041F029375
:10BDB400019B60330193039B09F1C0099945BAD1F2
:10BDC4000023049C1846194654F8042F8A42C8BF1D
:10BDD400184603F10103C8BF1146082BF4D106AB82
:10BDE40000EB400153F820403EAB03EB41110DF151
:10BDF40097020DF1AF0051F8043BA342ACBF0023FE
:10BE0400012302F8013F90421376F4D10022114637
:10BE1400012321B318F80300D8B101320133302BC8
:10BE2400F7D1A2F10C03082B2ED801EB5202172AEA
:10BE340002D9183A172AFCD8059B01201A800DF55F
:10BE44007F7DBDE8F08F03F5C9237E33AB42FADB77
:10BE54009FE70B2AE5D80133302BF0D00246581E59
:10BE64004044591C10F8014F4B1E2CB110F8014CE2
:10BE740014B919460122D1E7302901D00131F1E783
:10BE8400A2F10C03082B04D900200DF57F7DBDE839
:10BE9400F08F5208D0E700BF3F240300C1DBFCFF52
:10BEA4002DE9F0432DED028BDFED515ABDB08046F4
:10BEB400894600F5D86C00F1C001B7EE006A04A809
:10BEC400A1F1C0040027B4F90260B4F9005006FBE4
:10BED40006F6043405FB0565A1422F44F3D107EEB1
:10BEE400907AF8EE677AC031C7EEA56A8C45B1EE58
:10BEF400E67AC6EE077AE0EC017AE1D1002A70D046
:10BF04001C4602EB090524AEF6EE008AB1EE008A67
:10BF140008EB89020CAB04A9B2F90000F1EC015A58
:10BF240006EE100AB2F9020006EE900AB2F96000B9
:10BF340007EE100AB2F9620007EE900AB8EEC66A7C
:10BF4400F8EEE66AB8EEC77AF8EEE77A26EE256AE6
:10BF540066EEA56A67EEA57A27EE257A26EE065ADE
:10BF640067EE075A26EE266A27EE277A66EEA66A59
:10BF740067EEA77A83ED005A83ED016AC3ED026A86
:10BF8400C3ED185A83ED197AC3ED1A7A0C339E4225
:10BF940002F1C002C0D1102201A90CA803F04AFA90
:10BFA40000B3DDED017A9DED037ADDED020AB1EE19
:10BFB400E70A204609F10109023467EE887A60EE47
:10BFC400A06A67EE877A88EE807A77EEE67A67EE83
:10BFD400200AB1EEE71A27EE011A03F0A9FE4D4537
:10BFE40096D101203DB0BDEC028BBDE8F08300BFCB
:10BFF400000040422DE9F04F87B0002406468B46EE
:10C00400039200F1020902942546A046A2460DF1CE
:10C01400160706E053452AD8454698460134082CAD
:10C0240019D0009705AB5A4639F9241036F9240083
:10C0340003F05AFEBDF91620BDF9143002FB02F2DA
:10C0440003FB0323AB42A2B2E8D94345E2D801344F
:10C05400082C1D46E5D14FEA5A0AAA4585BFDDE9F9
:10C064000223012000201A8007B0BDE8F08F454666
:10C074000292D0469A46D1E708B503F0CFFE10F1FC
:10C08400140F06DB2C2806DD5028B4BF032004203F
:10C0940008BD012008BD022008BD00BF012926D922
:10C0A40070B4031F124E134D03EB81040021436847
:10C0B4000B44024640F8043F12689A1AB24209DD62
:10C0C40050F8042CA3F5C9237E3BA1F5C9210360D4
:10C0D4007E399A1AAA4206DA03F5C9237E3301F59A
:10C0E400C92103607E318442E1D170BC704770473E
:10C0F4003F240300C1DBFCFF2DE9F04FADF20C6DD2
:10C1040006468C1C9046994601AD0DF20467B4F9BD
:10C11400001034F9020C03F001F945F8040FBD4294
:10C1240004F10404F3D1CA46A9F1040309F11C0083
:10C13400002143F8041F9842FBD106EB46054FF05B
:10C14400000B4FF6FF73334FCDF800B019ACED0080
:10C15400019340F694593021A4F15C00FFF79EFF4F
:10C16400A4F160014FF0000C51F8043F086E8C42BA
:10C17400A3EB00008444F7D1BCF1000F35DB4FEA98
:10C184009C1109FB01F1490D06FB01F105EB11219D
:10C19400CAF80010BBF1000F03D05AF8040C88420F
:10C1A40030D9DAF80010A1EB08010029B8BF4942E0
:10C1B400B94204D201230F46CDF804B000930BF129
:10C1C40001031FFA83FBBBF1080F0AF1040A04F10F
:10C1D400C004C0D1009B1BB1DDF83036019A1A802F
:10C1E40000980DF20C6DBDE8F08FCCF100018909C7
:10C1F40009FB01F1490D06FB01F1A5EB1121CAF878
:10C204000010C7E70023009300980DF20C6DBDE801
:10C21400F08F00BF40420F002DE9F047BCB0064646
:10C224000D46174600F102090DF1300A002440F6CC
:10C23400B73805E003F072F8302C4AF8040B0FD03D
:10C2440039F9241036F9240001FB01F300FB003313
:10C25400434504F10104EDDC00203CB0BDE8F08767
:10C264000BACADF10206214632460DF18C0851F8B3
:10C27400043F002BB8BF0F3302321B11414513801A
:10C28400F5D10CA83021FFF709FF002254F8043F30
:10C29400216E4445A3EB01031A44F7D10D49D3178A
:10C2A40081FB0212C3EBA21202F5994330334CF620
:10C2B40062118B42D0D8023D0DF12E0136F8023FB7
:10C2C40025F8023FB142F9D101203A803CB0BDE8E3
:10C2D400F08700BFABAAAA2A2DE9F04F85B0B3F5C9
:10C2E400BC7FCDE90101039249D3029B082B46D0C0
:10C2F400019A039CA2F1120C00200CEB430CCDF824
:10C3040000C0804682468346023A012740F2EE2965
:10C31400844614E0002836D19B453ADA9B464FF018
:10C324000108CCF100069E42009BC8BFAEEB050C91
:10C334008A4538BF8A46934204F102041CD0558AC8
:10C3440032F8021F6B1A03F50046B6F5803F38BF7A
:10C3540023808E462CBF002711884B45DADC584ECB
:10C364009B45B8BF9B46B342DBDAB8F1000F0ABF66
:10C37400002740460120D4E7CDF800C077B900205B
:10C3840005B0BDE8F08F9B45804605DA9B46002743
:10C39400C7E74FF00108C4E70027C2E7B8F1000F70
:10C3A400EDD00028EBD0029BB3F11C0EE7D0039F25
:10C3B400CDF808A04FF0000C03901237E146E04698
:10C3C400E246604637F9023F03EB830203EB420384
:10C3D4003D463C460A2134F9026D35F9022F01FB32
:10C3E400063301FB02330139F5D1434564DC4B4587
:10C3F400A8BF434661DA9946E2460CF1010CF445C4
:10C40400E0D14CF25033984505465646DDE902A08A
:10C41400B5DD2C4B9945B2DABBF1000FAFD0009BD0
:10C42400002BACD0019B109C1B884FEACA02DB0096
:10C4340044B1934204D2D94359441144B1FBFBF1B2
:10C44400109C21600F9900299AD00E99002997D049
:10C454002946019C0E3134F81140B3EBC40F4FEA66
:10C46400C40505D2DB435B442B44B3FBFBF3C91A7D
:10C47400019B06F10E0B33F81B30B2EBC30F4FEAEE
:10C48400C30407D9009D6B1E13441B1BB3FBF5F3B8
:10C49400ABEB030B0029FFF672AFBBF1000FFFF605
:10C4A4006EAF59453FF76BAF0F9BABEB010BC3F876
:10C4B40000B00E9B196063E7604698469DE700BF95
:10C4C40012FDFFFFB03CFFFF2DE9F041ADF5447DC7
:10C4D40004AE05AF0024CDE9017400960D4608AA08
:10C4E4004FF4BC73902134603C60CDE9064480462F
:10C4F400FFF7F2FE20B900200DF5447DBDE8F08180
:10C5040007AB019306AB0093029408AA08F5907058
:10C514004FF4BC73F021FFF7DFFE0028EBD03F6837
:10C52400079C0B4B0B493268E41B03FB04F301FB30
:10C5340007F701FB02F21B0CC3EB573301FB04F1B9
:10C54400520BC5E90031AA600DF5447DBDE8F081C8
:10C55400A82A0400AA0A01002DE9F04FADF5477D91
:10C56400002606AF0DF1140805460C46CDE9017608
:10C5740002300AAACDF800804FF4BC7340F21F11B8
:10C58400FFF7AAFE20B900200DF5477DBDE8F08F26
:10C5940008AB0DF11C0A0DF1100BCDE901A3CDF888
:10C5A40000B04FF4BC730AAA4FF4907105F51070F3
:10C5B400FFF792FE0028E6D00DF12409CDE90066CC
:10C5C4000AAA05F59060CDF808904FF4BC734FF4B7
:10C5D4009071FFF781FE0028D5D0DBF800C0D8F8B1
:10C5E4000060DDF820E0D7F80080DAF80020D9F800
:10C5F4000090174F174D1849184BA9EB0E09A6EBDD
:10C604000C06A2EB080207FB06F705FB02F501FB8B
:10C6140009F103FB0CFC03FB08F803FB0EFE3F0CC3
:10C624002D0C090C03FB06F603FB02F2C7EB5C3787
:10C63400C5EB583503FB09F3C1EB5E31C4E9007661
:10C64400C4E90252C4E904130DF5477DBDE8F08F37
:10C6540054150200A64A07004E750B00AA0A0100F1
:10C664002DE9F04F8A4685B08146114650461F4653
:10C67400002503AB02AACDE9025501F059F9484659
:10C6840001F000FA00B3039B40F64A3BABEB050410
:10C694009C422CBF9CB2A4B2029E03F01DFB4FEA45
:10C6A40055086208314600EB880003F0E5F803F012
:10C6B40017FB7A881C21CDE900120346224629463D
:10C6C400304603F00FF818B9002005B0BDE8F08F2C
:10C6D40003F006FBBA881A21CDE90012034622466C
:10C6E4002946304602F0FEFF0028EDD003F0F8FAA8
:10C6F400FA8801921B2203460092294622463046BC
:10C7040002F0F0FF0028DFD003F0EAFA3A89019240
:10C7140019220346009230462246294602F0E2FFDF
:10C7240006462346524641464846002ECCD001F0E8
:10C7340017F9039B1D44ADB240F649329542A5D981
:10C74400484640F25B1101F0F3F905B0BDE8F08F03
:10C7540070B586B00D46044603F0BEFA059003F0AA
:10C76400BFFA094E059901952522034600922046F9
:10C774000296002203F018F8204640F2322106B057
:10C78400BDE8704001F0D4B901D90200F0B587B01A
:10C7940004460E46154603F09FFA059003F0A0FAEE
:10C7A400104F059901962622034600922046002246
:10C7B400029702F0F9FF03F08FFA059003F090FA64
:10C7C40024220599009203460195029720460022EF
:10C7D40002F0EAFF204640F2C52107B0BDE8F04070
:10C7E40001F0A6B901D902004FF4457101F0A0B9D6
:10C7F400F0B587B004460F46164603F06DFA05906F
:10C8040003F06EFA3A88214D0192072205990092AD
:10C81400034600222046029502F0C6FF03F05CFAAC
:10C82400059003F05DFA08220599019603460092EB
:10C8340002950022204602F0B7FF03F04DFA05905E
:10C8440003F04EFA03260922059902950346CDE921
:10C8540000262046002202F0A7FF03F03DFA0590CF
:10C8640003F03EFA06260A22CDE900260599029530
:10C8740003460022204602F097FF204640F2D531BD
:10C8840007B0BDE8F04001F053B900BF01D9020080
:10C89400F0B587B00D46044603F01EFA059003F088
:10C8A4001FFA2A88414E01922122059900920346DB
:10C8B40000222046029602F077FF03F00DFA05905D
:10C8C40003F00EFA6F88059901972222034600921D
:10C8D40002960022204602F067FF03F0FDF905905E
:10C8E40003F0FEF9EF8805990197012203460092AF
:10C8F40002960022204602F057FF03F0EDF905905E
:10C9040003F0EEF92F89059901970222034600925C
:10C9140002960022204602F047FF03F0DDF905905D
:10C9240003F0DEF9AF8905990197032203460092CB
:10C9340002960022204602F037FF03F0CDF905905D
:10C9440003F0CEF9EF89059901970422034600927A
:10C9540002960022204602F027FF03F0BDF905905D
:10C9640003F0BEF96F8A05990296052203460092E8
:10C9740001970022204602F017FF03F0ADF905905D
:10C9840003F0AEF906220346A88A059901900092A5
:10C9940002962046002202F007FF20464FF47B71E6
:10C9A40007B0BDE8F04001F0C3B800BF01D90200F0
:10C9B40070B586B00D46044603F08EF9059003F079
:10C9C4008FF9094E059901950C22034600922046E1
:10C9D4000296002202F0E8FE204640F2164106B01C
:10C9E400BDE8704001F0A4B801D90200F0B587B0E9
:10C9F40004460E4603F070F9059003F071F9194DE1
:10CA0400059901960B2203460092204600220295C6
:10CA140002F0CAFE03F060F9059003F061F90926FB
:10CA24000022CDE90062059902950346204602F0F2
:10CA3400BBFE03F051F9059003F052F97E270A2654
:10CA4400059902950346CDE900670022204602F0CD
:10CA5400ABFE204640F2524107B0BDE8F04001F081
:10CA640067B800BF01D9020040F27B4101F060B811
:10CA740030B583B0044601AA012101F023F9204610
:10CA84000022012101F0D6F801A801F08DF9044635
:10CA940030B9054ABDF8043015690449044AA84769
:10CAA400204603B030BD00BF68860020C8310400B2
:10CAB400803104002DE9F041884607463221DDE942
:10CAC40006541E4602F032FF122300224146384625
