:020000022000DC
:1070000000000220197202000172020003720200E5
:1070100005720200077202000972020000000000FF
:107020000000000000000000000000000B720200E1
:107030000D720200000000000F72020011720200C7
:107040004D3304001372020085520400A170040045
:10705000417E040013720200C9450400137202004D
:107060001372020013720200137202005D650400C5
:1070700013720200137202001372020013720200F4
:107080001372020085900400137202001372020052
:10709000137202001372020061C304001372020033
:1070A00013720200137202001372020013720200C4
:1070B0003D5E0400137202000000000000000000AA
:1070C00013720200555E04006D5E0400137202002C
:1070D00071650400915004001372020013720200E3
:1070E0001372020000000000000000000000000019
:1070F00000000000855E0400000000001372020022
:10710000000000000000000000000000000000007F
:10711000000000000000000000000000000000006F
:10712000000000000000000000000000000000005F
:10713000000000000000000000000000000000004F
:10714000000000000000000000000000000000003F
:10715000000000000000000000000000000000002F
:10716000000000000000000000000000000000001F
:10717000000000000000000000000000000000000F
:1071800000000000000000000000000000000000FF
:1071900000000000000000000000000000000000EF
:1071A00000000000000000000000000000000000DF
:1071B00000000000000000000000000000000000CF
:1071C00000000000000000000000000000000000BF
:1071D00000000000000000000000000000000000AF
:1071E000000000000000000000000000000000009F
:1071F000000000000000000000000000000000008F
:10720000FEE7FEE7FEE7FEE7FEE7FEE7FEE7FEE756
:10721000FEE7FEE700F002B8FFF7FCBF0F484FF0B3
:107220000701884385460E4880470E48016841F4AF
:1072300070010160BFF34F8FBFF36F8F00F01AB87A
:1072400009480A490A4A884207D0521A05D00378E9
:1072500001300B700131013AF9D170470000022072
:107260001561030088ED00E000EE0400F82A00201C
:107270000C2B00203A493B480A1A02D007229143BE
:107280008D46394939480A1A06D00722914381F3BD
:107290000988022282F3148835483649364A00F0BC
:1072A00041F836483649374A00F03CF83648374905
:1072B000374A00F037F837483749384A00F032F893
:1072C00037483849384A00F02DF838483849394AA3
:1072D00000F028F838483949394A00F023F839488D
:1072E0003949002200F036F838483949002200F0C8
:1072F00031F838483849091A27F039FB374A90479E
:1073000025482649884205D00268043003B49047D6
:1073100003BCF7E700208646EC4600200021304AF7
:107320009047FEE7884214D0521A12D003460B430E
:1073300013430324234206D1036804300B60043155
:10734000043AF9D17047037801300B700131013AEA
:10735000F9D17047884202D002700130FAE77047D5
:107360000000022000E001200000022000000220B6
:10737000E49A05000C2B0020182F0020E473020073
:10738000E4730200C0EB0400E49A05000C2B00201B
:107390000C2B002014EE040014EE040014EE040084
:1073A00014EE040014EE040014EE040014EE0400C5
:1073B00014EE0400E49A0500F09E0500182F00204A
:1073C000182F0020182F0020507700205077002021
:1073D0005077002050770020509700204172020023
:0473E000E14903007C
:1073E40000B585B00190019B002B0AD0074B43F0F8
:1073F40001030393019B9B010293039B029898470B
:1074040000E000BF05B05DF804FB00BFF0EE04002F
:1074140082B00190019BD3F80435184602B070473E
:1074240082B001900B468DF803309DF80320019B38
:1074340013441A460123136000BF02B0704700B51D
:1074440083B00190019B1B681846FFF7E1FF0346D8
:10745400184603B05DF804FB00B583B00190019BAE
:107464001B6808211846FFF7DBFF00BF03B05DF877
:1074740004FB000070B582B01B4B1B68002B2FD09F
:107484001A48FFF7DCFF0646174B1B684FF47A7265
:1074940002FB03F300221C4615464FF000004FF098
:1074A4000001E90341EA5441E003114A4FF00003AB
:1074B40026F026FA02460B461346334423F07F4354
:1074C40001930123019A002108481EF0F3FE009065
:1074D400009B002B04D0074A5C21009820F004FD97
:1074E40000BF02B070BD00BF182F00201CEE0400C6
:1074F40040420F0024EE040000B583B003468DF82B
:1075040007309DF80730002B05D10D4B01221A706E
:10751400FFF7B0FF10E09DF80730012B03D1094BB2
:1075240001221A7008E09DF80730052B04D1064BA0
:107534001B680133044A136000BF03B05DF804FB09
:107544001C2F00201D2F0020202F002000B583B009
:10755400154B1B7883F00103DBB2002B20D0134AB8
:10756400134914481EF0A8FD0190019B002B04D080
:10757400114A7E21019820F0B7FC104B00221A70AA
:107584000F4B00221A700B48FFF766FF01210948D0
:107594001EF030FF07481EF001FE034B01221A7053
:1075A40000BF03B05DF804FB1E2F0020FD74020031
:1075B40014EE04001CEE040024EE04001C2F002032
:1075C4001D2F002070B584B00190019B002B48D082
:1075D400019BC72B03D80198FFF702FF41E0FFF797
:1075E400B5FF214B00221A702048FFF728FF0646FA
:1075F400019B00221C4615464FF000004FF000018D
:10760400E90341EA5441E003194A4FF0000326F02C
:1076140077F902460B461346334423F07F43039322
:107624000123039A012111481EF044FE0290029B9B
:10763400002B07D00F4AAF21029820F055FC01E03F
:1076440022F074FF084B1B78DBB283F00103DBB23A
:10765400002BF5D1044B00221A70012103481EF0BF
:10766400C7FD00BF04B070BD1D2F00201CEE040038
:1076740040420F0024EE04002DE9F04383B0FFF7ED
:1076840065FF2448FFF7DBFE0190234B1A6813467D
:107694001B069A1A019B134400221E4617463246C3
:1076A4003B464FF000004FF00001590141EAD2611E
:1076B400500102460B46941B63EB07054FF0000292
:1076C4004FF00003AB0043EA9473A20014461D4636
:1076D40014EB060845EB07094FF000024FF00003D6
:1076E4004FEAC90343EA58734FEAC80290469946E1
:1076F400404649464FF000024FF00003C20B42EAF5
:107704004142CB0B13460093009B184603B0BDE8DF
:10771400F08300BF1CEE0400202F002000B583B0CE
:107724000190019827F043F90346184603B05DF829
:1077340004FB00B583B00190019827F044F900BF21
:1077440003B05DF804FB000000B583B00190019B19
:107754001B68184600F0CAF80346002B04D10B49F5
:107764004FF4F6700DF0D6F9019B1B681F2B02D85D
:107774004FF0A04306E0019B1B6803F01F02019B2E
:107784001A60034B184603B05DF804FBF8EE0400DE
:107794000003005000B585B00190084611461A4612
:1077A40003468DF803300B468DF8023013468DF8EE
:1077B400013001AB1846FFF7C7FF03909DF8032083
:1077C4009DF802305B001A439DF801309B001A4378
:1077D4009DF818301B0242EA03019DF81C301B047B
:1077E400019A1943039B02F5E07243F8221000BF8B
:1077F40005B05DF804FB00B585B003900023019348
:10780400002300930023012201210398FFF7C2FF04
:1078140000BF05B05DF804FB00B585B003900023FC
:107824000193002300930023012200210398FFF712
:10783400B1FF00BF05B05DF804FB00B585B0019051
:1078440001AB1846FFF780FF0390019B012202FA67
:1078540003F31946039800F035F800BF05B05DF84E
:1078640004FB00B585B0019001AB1846FFF76CFF2F
:107874000390019B012202FA03F31946039800F0D6
:107884002BF800BF05B05DF804FB00B585B001908E
:1078940001AB1846FFF758FF0390039800F00AF86D
:1078A4000246019B22FA03F303F00103184605B0D4
:1078B4005DF804FB82B00190019BD3F810351846A3
:1078C40002B0704782B001900091019B009AC3F806
:1078D400082500BF02B0704782B001900091019B5F
:1078E400009AC3F80C2500BF02B0704784B0019021
:1078F400019B5B09029300230393029B002B03D09B
:10790400029B012B04D007E04FF0FF33039303E005
:1079140040F2FF33039300BF019B03F01F03019365
:10792400039A019B22FA03F303F00103002B14BF13
:1079340001230023DBB2184604B0704700B583B0BE
:107944000190019B043318461FF0B0F900BF03B047
:107954005DF804FB00B58FB00390029100931346C9
:107964008DF8073000230D93029B09939DF807308F
:107974000A93009B0B939DF840300C93039B0433B4
:1079840009A9002218461FF0DFFA0D900D9B184636
:107994000FB05DF804FB000082B001900091034B2E
:1079A40001221A7000BF02B0704700BF242F0020CC
:1079B40010B586B0124B01AC0FCB84E80F004FF02A
:1079C400805303931C238DF807301E238DF8063053
:1079D4001D238DF805301F238DF8043001A90023E1
:1079E400084A09481BF042F90590059B002B04D076
:1079F400064A4C21059820F077FA00BF06B010BD66
:107A040098EF04009D790200A8EF040028EF040019
:107A140082B001900B468DF8033000BF02B070476E
:107A240082B00190024B01221A7000BF02B070476D
:107A3400252F002000B585B01CF050FA034683F0D2
:107A44000103DBB2002B0AD01CF0E4F90390039B82
:107A5400002B04D01C4A6121039820F045FA02232C
:107A64008DF8043000238DF805309DF8063023F09E
:107A740001038DF806309DF8063023F002038DF8DB
:107A840006309DF8063023F004038DF806300323F6
:107A94008DF8053001AB0D4A194614201CF072FB19
:107AA4000290029B002B04D0074A6621029820F022
:107AB4001BFA012114201CF0E3FB0920FFF79BFEB5
:107AC40000BF05B05DF804FB28EF0400157A02003E
:107AD40000B583B0084A0021084820F043FD019016
:107AE400019B002B04D0064A7321019820F0FCF975
:107AF40000BF03B05DF804FB257A0200B8EF040070
:107B040028EF040000B589B0059004910392134B4B
:107B140000221A70039BDAB2039BDBB20093049B2E
:107B240004990F48FFF716FF0790079B002B07D017
:107B34000C4A8121079820F0D7F901E022F0F6FCE5
:107B4400064B1B78DBB283F00103DBB2002BF5D1CB
:107B540000BF00BF09B05DF804FB00BF242F002064
:107B6400A8EF040028EF040000B583B001900220C0
:107B74000AF0D6FF00BF03B05DF804FB00B583B084
:107B8400019002200BF00CF800BF03B05DF804FB79
:107B940000B583B0019000F09BF81CF03BF909207C
:107BA400FFF74BFE40F6FC00FFF70CFDFFF700FF6C
:107BB40000BF03B05DF804FB00B583B00190092059
:107BC400FFF74FFE0948FFF7B9FE1D20FFF724FE1B
:107BD4001E20FFF721FE1CF08DF940F6FC00FFF794
:107BE400F1FC00BF03B05DF804FB00BFA8EF040084
:107BF400F0B587B001900091009B002B35D0009B1D
:107C040000221C4615464FF000024FF00003EB0320
:107C140043EA5443E20312F57A7643F100074FF442
:107C2400FA624FF000033046394625F069FE0246F9
:107C34000B4613460593234B00221A70059B042B15
:107C440001D805230593204B00220599184620F0FE
:107C5400C3FC0490049B0393039B002B0BD01B4A8F
:107C6400D721039820F040F905E0164B01221A7041
:107C740001E022F05BFC1420FFF707FE0346002B13
:107C840007D1104B1B78DBB283F00103DBB2002B6E
:107C9400EFD10D4B184620F0F7FC0290029B002B0D
:107CA40004D00A4AE221029820F01EF91420FFF7BA
:107CB400ECFD0346002B14BF01230023DBB218465E
:107CC40007B0F0BD252F0020102B002028EF040062
:107CD40008B5FFF7AFFEFFF7FBFE0123184608BD0A
:107CE400014B1846704700BFBCEF04000CB400B54C
:107CF400B5B0034604918DF8173037AB069307A847
:107D0400069B369A962125F022FF3390339B952BC0
:107D14000BDD2E238DF8AE302E238DF8AF302E23BD
:107D24008DF8B03000238DF8B130FFF7A5FC329008
:107D3400329B3193319B274AA2FB03235B0D309383
:107D4400319B254AA2FB03239A0B244BA3FB02136A
:107D540059090B461B015B1A9B00D31A2F93319BC5
:107D64001F4AA2FB03239A091C4BA3FB02135909C4
:107D74000B461B015B1A9B00D31A2E93319B184AA6
:107D8400A2FB031292094FF47A7101FB02F29B1ACF
:107D94002D939DF81730042B04D89DF81730114A01
:107DA400D35C00E03F238DF8B3309DF8B33007AACD
:107DB4000392049A029201932D9B00932E9B2F9A77
:107DC4003099094825F021FF00BF35B05DF804EB78
:107DD40002B07047B17C219573B2E74589888888E1
:107DE400D34D6210F8EF0400D4EF040000B585B061
:107DF4000190019B002B0AD0074B43F0010303932E
:107E0400019B9B010293039B0298984700E000BFEB
:107E140005B05DF804FB00BFB0F4040000B583B006
:107E24000190019B002B0AD04FF47A70FFF7DEFF1C
:107E3400019B013B0193019B002BF5D100E000BFA6
:107E440003B05DF804FB000000B583B0019001218C
:107E5400019802F025F83F4BD3ED007AB0EE670AA3
:107E6400019801F0BDFF3C4BD3ED007AB0EE670AF8
:107E7400019801F0C1FF394B1B781946019801F0B4
:107E8400C7FF374B1B781946019801F0D9FF012130
:107E9400019802F0ADF8B3EE0E0A019802F0B4F8BE
:107EA4000221019801F0C0FF2E4B1B78194601985E
:107EB40001F0D2FF2C4B1B7807EE903AF8EE677A6C
:107EC400B0EE670A019801F0D3FF0021019801F098
:107ED400DBFF0121019801F0EFFF0121019802F07D
:107EE4000FF89FED220A019802F016F89FED200A80
:107EF400019802F059F89FED1F0A019802F060F80A
:107F04000021019802F014F8B7EE000A019802F07B
:107F14001BF89FED180A019802F022F8B1EE080A46
:107F2400019802F029F89FED140A019802F030F844
:107F3400B7EE000A019802F04FF80021019801F011
:107F4400C7FF0021019801F0CFFF00BF03B05DF827
:107F540004FB00BF5C2B0020602B0020672B00205B
:107F6400662B0020652B0020642B00206666A63F4C
:107F7400CDCC4C3D8FC2F53CCDCC4C3E00B585B04C
:107F840003900291019200930120FFF715FE012056
:107F9400FFF7F4FD029B002B02D0029801F0C2F817
:107FA400039B002B02D0039801F0EAFD019B002BF8
:107FB40002D0019803F0DEFE009B002B02D0009853
:107FC400FFF7B7FB00BF05B05DF804FB00B589B04F
:107FD400059004910392029300238DF81F3000232F
:107FE4008DF819300123ADF81A300023ADF81C3098
:107FF40034E00120FFF7E0FD0120FFF7C9FD0DF19A
:108004001901029B0093039B049A059803F01EFF39
:1080140003468DF81F309DF81F30002B0ED09DF8BD
:10802400193083F00103DBB2002B07D04FF4FA615F
:108034000120FFF7DDFD03468DF81F309DF81F304A
:10804400002B06D09DF8193083F00103DBB2002B1E
:10805400D5D1BDF81C300133ADF81C309DF81F306C
:1080640083F00103DBB2002B05D0BDF81C20BDF862
:108074001A309A42BDD99DF81F30002B05D001203B
:10808400FFF79AFD0120FFF783FD9DF81F30184686
:1080940009B05DF804FB000000B583B003468DF819
:1080A4000730444824F0CAFB9DF80730042B7DD8E0
:1080B40001A252F823F000BFD1800200FD8002002B
:1080C4002B81020057810200858102003A4B3B4A12
:1080D4001A603B4B3B4A1A603B4B3C221A703B4BA9
:1080E40010221A703A4B20221A703A4B02221A704C
:1080F400394824F0A3FB59E02F4B384A1A60304B1F
:108104004FF07E521A60304B3C221A702F4B1022D3
:108114001A702F4B30221A702E4B02221A703048DC
:1081240024F08CFB42E0244B264A1A60244B2D4A4F
:108134001A60254B3C221A70244B10221A70244BCF
:108144003C221A70234B02221A70274824F076FB33
:108154002CE0194B4FF07C521A60194B234A1A60D9
:10816400194B3C221A70194B10221A70184B3C22DE
:108174001A70184B02221A701D4824F05FFB15E098
:108184000D4B1C4A1A600E4B144A1A600E4B3C22CB
:108194001A700E4B10221A700D4B30221A700D4BB0
:1081A40002221A70144824F049FB00BF00BF03B038
:1081B4005DF804FB00F004005C2B0020CDCC4C3DAA
:1081C400602B0020CDCC4C3E642B0020652B00207E
:1081D400662B0020672B002010F00400B81E053E1B
:1081E40028F00400CDCCCC3F40F004000000404017
:1081F40058F00400295C8F3D70F0040030B5E1B004
:1082040060ABA3F5BA73186060ABA3F5BC731960D7
:10821400A54824F013FB0420FFF73EFF00235C93E2
:108224000023529300235B9300235A930023599312
:1082340007F074FF034619469C4825F0E6FCFFF757
:108244004FFD5890589803F089F8034683F00103D2
:10825400DBB2002B04D0964824F0F0FA012315E396
:1082640000F0F0FE5A905A9B002B0AD1914824F05A
:10827400E5FA5C9B5B9A5A990020FFF77FFE012385
:1082840004E35A98FFF7E0FD5A9800F065FF4EABFF
:1082940019465A9801F090FC5990599B002B0AD129
:1082A400854824F0CBFA5C9B5B9A5A995998FFF75E
:1082B40065FE0123EAE252AB1946599801F03AFCF3
:1082C400034683F00103DBB2002B0AD07B4824F081
:1082D400B5FA5C9B5B9A5A995998FFF74FFE0123B4
:1082E400D4E2529B1846FFF719FA5C905C9B002B72
:1082F4000AD1734824F0A2FA5C9B5B9A5A99599864
:10830400FFF73CFE0123C1E20120FFF72DFC012011
:10831400FFF73EFC012003F04FFD5B90529B1EA92A
:108324005C9A5B98FFF752FE034683F00103DBB2CD
:10833400002B0AD0634824F081FA5C9B5B9A5A991B
:108344005998FFF71BFE0123A0E201238DF85F314A
:1083540001238DF87F3101238DF87E3100235E9354
:108364000023569364238DF877316B2156480BF024
:1083740039F8529B1EAA01935C9B009313465B9AA7
:108384005A99599801F0BAFC03468DF85F314F4869
:1083940024F054FA4E4B55934FF0000354930023AA
:1083A400ADF84E3150E25B9803F0D8FD034683F0FC
:1083B4000103DBB2002B0AD0464824F03FFA5C9B51
:1083C4005B9A5A995998FFF7D9FD01235EE24FF45D
:1083D400FA610120FFF70CFC034683F00103DBB2D2
:1083E400002B0AD03C4824F029FA5C9B5B9A5A99EA
:1083F4005998FFF7C3FD012348E2529B1A465C9942
:108404005B9803F0D3FD034683F00103DBB2002B3A
:108414000AD0324824F012FA5C9B5B9A5A99599814
:10842400FFF7ACFD012331E205AB1A465C9959987C
:1084340001F094FC034683F00103DBB2002B0AD065
:10844400274824F0FBF95C9B5B9A5A995998FFF7EB
:1084540095FD01231AE260ABA3F5B6731B7F002BD5
:1084640002D0204824F0EAF960ABA3F5B6739B7FF1
:10847400002B5AD01C4824F0E1F9529B1EA95C9AA7
:108484005B98FFF7A3FD034683F00103DBB2002BE7
:108494002CD00C4824F0D2F95C9B5B9A5A995998D9
:1084A400FFF76CFD0123F1E188F0040094F004006F
:1084B400B4F00400CCF00400F0F004000CF104006B
:1084C4003CF1040058F104006855050078F10400FB
:1084D40000007A44ACF10400C8F10400E4F10400A3
:1084E400FCF1040024F204005CF20400BB4824F014
:1084F400A5F9529B1EAA01935C9B009313465B9AB9
:108504005A99599801F0FAFB034683F00103DBB250
:10851400002B0AD0B24824F091F95C9B5B9A5A99DB
:108524005998FFF72BFD0123B0E1AE4B1B78DBB26A
:1085340083F00103DBB2002B0ED19DF87F3183F071
:108544000103DBB2002B07D19DF87E3183F00103D8
:10855400DBB2002B00F07881A34B1B78DBB2012B3C
:1085640004D0A14B1B78DBB2022B03D100210220E3
:1085740009F028FB9DF85F31002B00F065819B4BCF
:108584001B78DBB2002B05D0994824F057F9974BA0
:1085940000221A70529B1A465C995B9803F006FD00
:1085A40000238DF8763100238DF84D3160ABA3F5AF
:1085B400B673D3ED017A9FED8F7A67EE877A17EE63
:1085C400900A25F05DF904460D46DDED557A9FEDE0
:1085D400897A67EE877A17EE900A25F051F90246F8
:1085E4000B46CDE9002322462B46834825F00DFB9C
:1085F40060ABA3F5B673D3ED017A9FED7E7A27EED7
:10860400877ADDED557ADFED7B6A67EEA67A77EE41
:10861400677ACDED547A549825F032F902460B4628
:10862400764825F0F2FA764B1B6807EE903AF8EE9E
:10863400E77A9DED547AB4EEE77AF1EE10FACCBF06
:10864400012300238DF84D3160ABA3F5B6731B787D
:10865400002B10D09DF87F31002B0CD09DF87E317B
:10866400002B08D001238DF8763100238DF87F315B
:1086740000238DF87E319DF87F3183F00103DBB256
:10868400002B18D060ABA3F5B673D3ED017A9FED40
:108694005D7AF4EEC77AF1EE10FA0CD55A4825F05B
:1086A400B4FA01238DF87F3100235E935E99574815
:1086B40025F0ABFA18E04B4B1B78DBB283F00103D7
:1086C400DBB2002B10D09DF87F3183F00103DBB2C5
:1086D400002B09D09DF84D31002B05D04C4824F0D7
:1086E400ADF801238DF876319DF87E3183F00103D6
:1086F400DBB2002B12D09DF87F31002B0ED0454801
:1087040024F09CF85E9B002B02D05E9B013B5E93A1
:108714005E9B002B02D101238DF87E319DF87631CA
:10872400002B00F0918060ABA3F5B673D3ED037A10
:108734009FED307A67EE877AFCEEE77A17EE903A8F
:10874400ADF84E31344824F079F8344824F076F802
:108754006E238DF8773170E031480AF0CBFF034681
:10876400002B6AD00FAB1A466B212D480AF052FF3A
:1087740011AA0FAB114618460AF06CFF60ABA3F5C3
:108784009E73D3ED007A60ABA3F59E7393ED017AEB
:1087940060ABA3F59E73D3ED026ABDF84E31184663
:1087A400B0EE661AF0EE470AB0EE670A0BF068FE08
:1087B4000C4B01221A7000200AF046F90A4B1B7870
:1087C400DBB2012B2ED0084B1B78DBB2022B29D055
:1087D4000021022009F096F926E000BF80F204008F
:1087E4009CF20400562B0020665C0020685C00208C
:1087F400C4F204000000C842D8F2040004F30400E8
:10880400582B00206666A63F18F3040038F30400D2
:108814004CF3040058F30400A0F30400B0F3040084
:108824006855050009F03CFA1A4B00221A701A48E0
:1088340024F004F800238DF877319DF877315A1E1F
:108844008DF87721002B87D19DF85F31002B05D05F
:108854000CF04EFE0346022B3FF4A5AD6B210F48EE
:108864000AF025FE0E4823F0E9FF599801F088F933
:108874005A9800F057FC5C9B5B9A5A995998FFF7F9
:108884007DFB9DF85F3183F00103DBB2184661B0D4
:1088940030BD00BF665C0020C4F3040068550500C9
:1088A400D4F3040030B5CFB04EABA3F59673186083
:1088B4004EABA3F598731960A84823F0BFFF0123BA
:1088C4008DF82A3101238DF8373101238DF83631A3
:1088D40000234C930023499300234293002348939D
:1088E400002347930023469307F018FC03461946D8
:1088F4009B4825F08AF9FFF7F3F94590459802F073
:108904002DFD034683F00103DBB2002B04D0954810
:1089140023F094FF0123E4E200F094FB4790479B8B
:10892400002B0AD1904823F089FF499B489A479924
:108934004698FFF723FB0123D3E24798FFF784FA15
:108944000A20FFF76BFA479800F006FC3EAB194685
:10895400479801F031F94690469B002B0AD1834891
:1089640023F06CFF499B489A47994698FFF706FB0A
:108974000123B6E242AB1946469801F0DBF8034600
:1089840083F00103DBB2002B0AD0794823F056FFB1
:10899400499B489A47994698FFF7F0FA0123A0E2C9
:1089A400429B1846FEF7BAFE4990499B002B0AD118
:1089B400704823F043FF499B489A47994698FFF72C
:1089C400DDFA01238DE20120FFF7CEF80120FFF745
:1089D400DFF8012003F0F0F94890489B002B0AD1FE
:1089E400654823F02BFF499B489A47994698FFF71F
:1089F400C5FA012375E2429B0EA9499A4898FFF7EC
:108A0400E5FA034683F00103DBB2002B0AD05B488E
:108A140023F014FF499B489A47994698FFF7AEFA0A
:108A240001235EE2429B0EAA0193499B00931346E5
:108A3400489A4799469801F061F903468DF82A311E
:108A44004F4823F0FBFE4F4B4B934FF000034493EE
:108A54000023ADF80E3126E2489803F07FFA03466E
:108A640083F00103DBB2002B0AD0474823F0E6FE73
:108A7400499B489A47994698FFF780FA012330E2C8
:108A84004FF4FA610120FFF7B3F8034683F00103C2
:108A9400DBB2002B0AD03D4823F0D0FE499B489A14
:108AA40047994698FFF76AFA01231AE2429B1A464D
:108AB4004999489803F07AFA034683F00103DBB23C
:108AC400002B0AD0324823F0B9FE499B489A4799B3
:108AD4004698FFF753FA012303E204AB1A46499977
:108AE400469801F03BF9034683F00103DBB2002B07
:108AF4000AD0284823F0A2FE499B489A47994698F1
:108B0400FFF73CFA0123ECE14EABA3F594731B7F12
:108B1400002B02D0204823F091FE4EABA3F59473B2
:108B24009B7F002B5BD01D4823F088FE429B0EA93F
:108B3400499A4898FFF74AFA034683F00103DBB2E7
:108B4400002B2DD00D4823F079FE499B489A479974
:108B54004698FFF713FA0123C3E100BFECF30400C6
:108B640094F00400B4F00400CCF00400F0F004002D
:108B74000CF104003CF10400F8F3040058F1040083
:108B840014F4040000007A44ACF10400C8F10400B9
:108B9400E4F10400FCF1040024F204005CF204009B
:108BA400A54823F04BFE429B0EAA0193499B0093D8
:108BB4001346489A4799469801F0A0F8034683F073
:108BC4000103DBB2002B0AD09C4823F037FE499BFB
:108BD400489A47994698FFF7D1F9012381E1984BC8
:108BE4001B78DBB283F00103DBB2002B0ED19DF8BE
:108BF400363183F00103DBB2002B07D19DF8373106
:108C040083F00103DBB2002B00F04D818D4B1B7808
:108C1400DBB2012B04D08B4B1B78DBB2022B03D1CC
:108C24000021022008F0CEFF9DF82A31002B00F02D
:108C34003A81854B1B78DBB2002B05D0834823F0A7
:108C4400FDFD814B00221A70429B1A4649994898AF
:108C540003F0ACF900238DF82B3100238DF80D318E
:108C64004EABA3F59473D3ED017A9FED797A67EE59
:108C7400877A17EE900A24F003FE04460D46DDEDD4
:108C84004B7A9FED737A67EE877A17EE900A24F099
:108C9400F7FD02460B46CDE9002322462B466D48DC
:108CA40024F0B3FF4EABA3F59473D3ED017A9FED9B
:108CB400687A27EE877ADDED4B7ADFED656A67EE39
:108CC400A67A77EE677ACDED447A449824F0D8FDFD
:108CD40002460B46604824F098FF604B1B6807EE81
:108CE400903AF8EEE77A9DED447AB4EEE77AF1EE45
:108CF40010FACCBF012300238DF80D314EABA3F540
:108D040094731B78002B10D09DF83731002B0CD0B6
:108D14009DF83631002B08D001238DF82B31002328
:108D24008DF8373100238DF836319DF8373183F0D3
:108D34000103DBB2002B18D04EABA3F59473D3ED33
:108D4400017A9FED477AF4EEC77AF1EE10FA0CD56A
:108D5400444824F05AFF01238DF8373100234C9303
:108D64004C99414824F051FF18E0354B1B78DBB295
:108D740083F00103DBB2002B10D09DF8373183F070
:108D84000103DBB2002B09D09DF80D31002B05D077
:108D9400364823F053FD01238DF82B319DF83631ED
:108DA40083F00103DBB2002B15D09DF8373183F03B
:108DB4000103DBB2002B0ED02D4823F03FFD4C9B6A
:108DC400002B02D04C9B013B4C934C9B002B02D1BB
:108DD40001238DF836319DF82B31002B5ED04EAB3C
:108DE400A3F59473D3ED037A9FED197A67EE877A2E
:108DF400FCEEE77A17EE903AADF80E31BDF80E317D
:108E040019461C4824F001FF1B4823F017FD0C4BA6
:108E140001221A70002009F017FE0A4B1B78DBB2FE
:108E2400012B2BD0074B1B78DBB2022B26D0002161
:108E3400022008F067FE23E080F204009CF20400A4
:108E4400562B0020665C0020685C0020C4F20400FD
:108E54000000C842D8F2040004F30400582B002098
:108E64006666A63F18F3040038F304004CF30400CC
:108E740058F3040040F40400A0F3040008F010FFC9
:108E8400194B00221A70BDF80E3118469FED171ABF
:108E9400DFED160A9FED150A0BF0F2FA4EABA3F5BF
:108EA40094735B684B939DF82A31002B05D00CF02A
:108EB4001FFB0346032B3FF4CFAD0D4823F0BEFC4C
:108EC400469800F05DFE479800F02CF9499B489ABB
:108ED40047994698FFF752F89DF82A3183F0010329
:108EE400DBB218464FB030BD665C002000000000C5
:108EF400D4F3040000B587B03E4823F09FFC6B21F7
:108F04003D480AF06FFA3C480AF024FC3B4823F041
:108F140095FC5EE03A4B1B78DBB283F00103DBB2D5
:108F2400002B56D0374B1B78DBB2012B04D0354BCA
:108F34001B78DBB2022B03D10021022008F042FE91
:108F4400314B1B78DBB2002B05D02C4823F076FC88
:108F54002D4B00221A7028480AF0CCFB0346002B44
:108F640037D001AB1A466B2123480AF053FB03AAFE
:108F740001AB114618460AF06DFBDDED037A9DED59
:108F8400047ADDED056A0020B0EE661AF0EE470AB9
:108F9400B0EE670A0BF074FA194B01221A70002024
:108FA40009F052FD174B1B78DBB2012B09D0154B8E
:108FB4001B78DBB2022B04D00021022008F0A2FDB2
:108FC40001E008F06DFE0F4B00221A700F4823F0E9
:108FD40035FC0CF08DFA0346012B9BD06B2106481F
:108FE4000AF065FA0A4823F029FC0023184607B062
:108FF4005DF804FB54F40400685505006CF40400A7
:10900400562B0020665C0020685C0020C4F304003A
:1090140080F40400024B034A1B69034900201847EB
:1090240038770020B8F40400D0F40400024B034A5B
:109034001B6903490020184738770020E4F4040032
:10904400D0F4040070B5274AA6236421012004F05B
:10905400A1FE044600283DD0234B244E0125C0E93F
:10906400003502F063FB224B2249234A84F8425024
:1090740084F85E502574E06340F20115A364236311
:1090840018201E4B616162621D491E4AA4F84050BB
:10909400A4F8440000251C482166E2644FF4807162
:1090A4001A4A23654FF07E5384F85450A0654FF05C
:1090B4007C551748A4F85C10E2604FF08041154AD3
:1090C400A361154B2062A662E5616163A263E3625A
:1090D400204670BD114B124A1B690249984720462D
:1090E40070BD00BFD0F4040002B137139A99193E41
:1090F4009A99993E6666A63FCDCC4C3E100020005E
:109104000000A04100002040000040410300000195
:109114000000C0400000A04000002041387700203B
:10912400F4F4040098B10B4B02689A4210B504465B
:1091340003D0BDE81040FFF76DBFC06B02F00EFB1B
:10914400002323602046BDE8104004F03FBEFFF733
:1091540061BF00BF02B1371330B583B020B1084BF3
:1091640002689A42044613D0FFF754FF054B064A9F
:109174001B690649002003B0BDE83040184700BF12
:1091840002B1371338770020E0F80400D0F404006B
:1091940001F088FD04F02EFE012805D9CD4BCE4AFE
:1091A4001B69CE490220984704F024FE012806D901
:1091B400C84A63681569C949C94A0220A84704F026
:1091C40019FE012800F27E8404F014FE012800F246
:1091D400688404F00FFE012800F2518404F00AFEB2
:1091E400012807D9BB4AB4F844301569BB49BD4AC4
:1091F4000220A84704F0FEFD012835D9D4ED127AE7
:109204009FEDC57AB34B9FEDC46A1D69DFEDB66A65
:10921400B249F5EEC07AF1EE10FA48BFF1EE677A82
:1092240077EE877A4CBFB14BB14BBCEEE77AF5EEE3
:10923400C07AF1EE10FA17EE102A4CBFB1EE677A3D
:10924400B0EE677A37EE067A0092BCEEC77AA94A86
:10925400B8EE477A022077EEC77A67EEA67AFCEE7C
:10926400E77ACDED017AA84704F0C4FD012835D989
:10927400D4ED137A9FEDA87A964B9FEDA76A1D69EA
:10928400DFED996A9549F5EEC07AF1EE10FA48BF20
:10929400F1EE677A77EE877A4CBF944B944BBCEE31
:1092A400E77AF5EEC07AF1EE10FA17EE102A4CBF09
:1092B400B1EE677AB0EE677A37EE067A0092BCEECA
:1092C400C77A8D4AB8EE477A022077EEC77A67EEFE
:1092D400A67AFCEEE77ACDED017AA84704F08AFD80
:1092E400012807D97B4AB4F8503015697B49834A71
:1092F4000220A84704F07EFD012807D9754AB4F876
:109304005230156975497E4A0220A84704F072FD5F
:10931400012800F2A38304F06DFD012835D9D4EDB2
:10932400167A9FED7D7A6B4B9FED7B6A1D69DFEDAD
:109334006E6A6A49F5EEC07AF1EE10FA48BFF1EEB2
:10934400677A77EE877A4CBF684B694BBCEEE77A55
:10935400F5EEC07AF1EE10FA17EE102A4CBFB1EE1A
:10936400677AB0EE677A37EE067A0092BCEEC77A77
:10937400644AB8EE477A022077EEC77A67EEA67A97
:10938400FCEEE77ACDED017AA84704F033FD01281D
:1093940000F2128304F02EFD012800F2FC8204F096
:1093A40029FD012800F2298304F024FD012835D980
:1093B400D4ED187A9FED587A464B9FED576A1D6994
:1093C400DFED496A4549F5EEC07AF1EE10FA48BF7F
:1093D400F1EE677A77EE877A4CBF444B444BBCEE90
:1093E400E77AF5EEC07AF1EE10FA17EE102A4CBFC8
:1093F400B1EE677AB0EE677A37EE067A0092BCEE89
:10940400C77A414AB8EE477A022077EEC77A67EE08
:10941400A67AFCEEE77ACDED017AA84704F0EAFCDF
:10942400012805D92B4B394A1B692C49022098473E
:1094340004F0E0FC012806D9264AA38915692749C6
:10944400334A0220A84704F0D5FC012800F2F68232
:1094540004F0D0FC012800F2E18204F0CBFC0128E6
:1094640000F2BB8204F0C6FC01285AD9D4ED057A77
:109474009FED297A174B9FED286A1D69DFED1A6A63
:109484001649F5EEC07AF1EE10FA48BFF1EE677AAC
:1094940077EE877A4CBF154B154BBCEEE77AF5EEA9
:1094A400C07AF1EE10FA17EE102A4CBFB1EE677ACB
:1094B400B0EE677A37EE067A0092BCEEC77A154AA8
:1094C400B8EE477A022077EEC77A67EEA67AFCEE0A
:1094D400E77A23E03877002018F50400D0F404007C
:1094E40034F5040090F504000024744914F50400D4
:1094F400A4040500A8F50400C0F50400D4F5040094
:10950400ECF5040014F6040080F604009CF6040054
:10951400C0F604003CF70400BD370635CDED017AF2
:10952400A84704F067FC012835D9D4ED067A1FED6D
:10953400067AD44B9FEDD46A1D69DFEDD46AD44911
:10954400F5EEC07AF1EE10FA48BFF1EE677A77EEE5
:10955400877A4CBFCF4BD04BBCEEE77AF5EEC07A9E
:10956400F1EE10FA17EE102A4CBFB1EE677AB0EEA6
:10957400677A37EE067A0092BCEEC77AC74AB8EE2D
:10958400477A022077EEC77A67EEA67AFCEEE77A8E
:10959400CDED017AA84704F02DFC012835D9D4ED8E
:1095A400077A9FEDB97AB74B9FEDB76A1D69DFED76
:1095B400B76AB749F5EEC07AF1EE10FA48BFF1EE9A
:1095C400677A77EE877A4CBFB24BB34BBCEEE77A3F
:1095D400F5EEC07AF1EE10FA17EE102A4CBFB1EE98
:1095E400677AB0EE677A37EE067A0092BCEEC77AF5
:1095F400AB4AB8EE477A022077EEC77A67EEA67ACE
:10960400FCEEE77ACDED017AA84704F0F3FB0128DC
:1096140035D9D4ED087A9FED9C7A9A4B9FED9A6ADE
:109624001D69DFED9A6A9A49F5EEC07AF1EE10FAF7
:1096340048BFF1EE677A77EE877A4CBF954B964B2D
:10964400BCEEE77AF5EEC07AF1EE10FA17EE102AC6
:109654004CBFB1EE677AB0EE677A37EE067A0092C5
:10966400BCEEC77A8F4AB8EE477A022077EEC77A03
:1096740067EEA67AFCEEE77ACDED017AA84704F00E
:10968400B9FB012835D9D4ED097A9FED7F7A7D4B5A
:109694009FED7D6A1D69DFED7D6A7D49F5EEC07A37
:1096A400F1EE10FA48BFF1EE677A77EE877A4CBF95
:1096B400784B794BBCEEE77AF5EEC07AF1EE10FA0E
:1096C40017EE102A4CBFB1EE677AB0EE677A37EE28
:1096D400067A0092BCEEC77A734AB8EE477A022043
:1096E40077EEC77A67EEA67AFCEEE77ACDED017ADB
:1096F400A84704F07FFB012835D9D4ED0A7A9FED01
:10970400627A604B9FED606A1D69DFED606A6049B3
:10971400F5EEC07AF1EE10FA48BFF1EE677A77EE13
:10972400877A4CBF5B4B5C4BBCEEE77AF5EEC07AB4
:10973400F1EE10FA17EE102A4CBFB1EE677AB0EED4
:10974400677A37EE067A0092BCEEC77A574AB8EECB
:10975400477A022077EEC77A67EEA67AFCEEE77ABC
:10976400CDED017AA84704F045FB012835D9D4EDA5
:109774000B7A9FED457A434B9FED436A1D69DFEDFC
:10978400436A4349F5EEC07AF1EE10FA48BFF1EEB0
:10979400677A77EE877A4CBF3E4B3F4BBCEEE77A55
:1097A400F5EEC07AF1EE10FA17EE102A4CBFB1EEC6
:1097B400677AB0EE677A37EE067A0092BCEEC77A23
:1097C4003B4AB8EE477A022077EEC77A67EEA67A6C
:1097D400FCEEE77ACDED017AA84704F00BFB0128F3
:1097E40035D9D4ED0C7A9FED287A264B9FED266A65
:1097F4001D69DFED266A2649F5EEC07AF1EE10FA0E
:1098040048BFF1EE677A77EE877A4CBF214B224B43
:10981400BCEEE77AF5EEC07AF1EE10FA17EE102AF4
:109824004CBFB1EE677AB0EE677A37EE067A0092F3
:10983400BCEEC77A1F4AB8EE477A022077EEC77AA1
:1098440067EEA67AFCEEE77ACDED017AA84704F03C
:10985400D1FA012851D9D4ED0D7A9FED0B7A094B39
:109864009FED096A1D69DFED096A0949F5EEC07AC1
:10987400F1EE10FA48BFF1EE677A77EE877A48BFC7
:10988400044B19E038770020BD37063500247449AD
:10989400D0F4040014F50400A404050064F70400E3
:1098A4008CF70400BCF70400E4F704000CF804008F
:1098B40030F8040050F8040058BF8B4BBCEEE77A34
:1098C400F5EEC07AF1EE10FA17EE102A4CBFB1EEA5
:1098D400677AB0EE677A37EE067A0092BCEEC77A02
:1098E400824AB8EE477A022077EEC77A67EEA67A04
:1098F400FCEEE77ACDED017AA84704F07BFA012863
:1099040035D9D4ED0E7A9FED7A7A7A4B9FED786A49
:109914001D69DFED796A7949F5EEC07AF1EE10FA46
:1099240048BFF1EE677A77EE877A4CBF744B6E4B83
:10993400BCEEE77AF5EEC07AF1EE10FA17EE102AD3
:109944004CBFB1EE677AB0EE677A37EE067A0092D2
:10995400BCEEC77A6B4AB8EE477A022077EEC77A34
:1099640067EEA67AFCEEE77ACDED017AA847E36BC1
:109974007BB104F03FFA012805D95E4B624A1B69AA
:109984005E4902209847E06B03B0BDE8304001F027
:1099940013BD03B030BD574B94F85D001D6906F04C
:1099A4008BFB5A4A554903460220A84704F022FA81
:1099B40001287FF6F9AC20E04E4B94F85C001D6959
:1099C40006F07AFB524A4D4903460220A84704F0A8
:1099D40011FA01287FF6E3ACDDE7464B207C1D69D4
:1099E40006F06AFB4B4A454903460220A84704F0A7
:1099F40001FA01283FF63AAD93E53E4B94F85E0038
:109A04001D6906F059FB444A3C4903460220A84715
:109A140004F0F0F901283FF6CBACFFE4354BE07BD2
:109A24001D6906F049FB3D4A344903460220A84714
:109A340004F0E0F901287FF615ADCEE72D4BA07BAD
:109A44001D6906F039FB364A2C4903460220A84713
:109A540004F0D0F901287FF600ADDFE7254B94F838
:109A640054001D6906F034FB2E4A244903460220A3
:109A7400A84704F0BFF901283FF651AC85E41D4B1B
:109A840094F842001D6906F02FFB274A1B49034640
:109A94000220A84704F0AEF901283FF6A3ABFFF774
:109AA400A9BB144B94F841001D6906F005FB1F4A3D
:109AB400124903460220A84704F09CF901287FF6C6
:109AC4008DABDCE70B4B94F840001D6906F0F4FA0B
:109AD400174A0A4903460220A84704F08BF90128D3
:109AE4007FF677ABDDE700BFA404050078F8040037
:109AF400BD3706353877002000247449D0F40400BB
:109B040014F50400A0F80400CCF8040048F604009E
:109B14002CF6040020F7040068F6040004F704009F
:109B2400E4F60400F8F504007CF504005CF5040098
:109B340040F5040070B520B1104B02689A42044607
:109B440004D0FFF773FA0026304670BD0D46002995
:109B5400F9D0236AD86B01F005FC06460028F2D040
:109B6400286803F06BFF236A2860D86B00F09AFA28
:109B74002B6818442860304670BD00BF01B137130C
:109B8400B0B10C4B02689A4210B5044603D0BDE84C
:109B94001040FFF74BBAC06A00F0ECFBA06A02F079
:109BA40051F8002323602046BDE8104004F00EB9AC
:109BB400FFF73CBA01B137132DE9F04184B020B16D
:109BC400494B02689A4204460AD0FFF723FA00255B
:109BD4002846FFF7D5FF0027384604B0BDE8F081DA
:109BE4000D460029F4D0414A40F2451338210120A2
:109BF40004F0D0F8074600286CD03D4B3C62204668
:109C04003B6001F04FF8E06B03A901F0ABFB0028C7
:109C140067D0039803F012FF391D3863E06B02F03C
:109C240035F8B86200285CD0E16B04F1080000F05C
:109C34004DFAF862002854D00021E06B01F0F8FDE1
:109C440002F096F8E06B85ED000A01F0B5FD0138ED
:109C5400C1B2E06B019101F0EBFD01998046E06B2C
:109C640001F02AFE01990646E06B01F069FE013E0F
:109C740000FB068002F07CF8002685ED010AAE8127
:109C840006E0E06B01F018FEAB8918440136A881A8
:109C9400E06B01F091FDF1B28842F2D894F85E6075
:109CA4003EB1002201233846AA60AB7304B0BDE87C
:109CB400F0813146E06B01F043FE02F059F8E06BAD
:109CC40085ED020A314601F07FFEA873384604B0E0
:109CD400BDE8F081074B084A1B6904493D46984793
:109CE40076E73D4674E700BF02B13713D0F40400B1
:109CF40001B1371338770020F8F804002DE9F0415A
:109D0400DDE9067828B115461C46124A03689342D9
:109D140004D0FFF78BF90020BDE8F0810E4619B19D
:109D24000D4B32689A4204D0FFF774F90020BDE865
:109D3400F08196F85D304BB9CDF81880F16B3B4655
:109D440022462846BDE8F04102F0B2B8C06A00F0ED
:109D540031FBF1E701B1371302B13713F0B589B024
:109D640028B11E4B164602689A42054604D0FFF7F6
:109D74005DF9002009B0F0BD0C460029F9D0002E91
:109D8400F7D006F11C07A86A3A4601F01FFF6B6B77
:109D940013B13846291D9847296BE86A726A002373
:109DA4000293214403930024049301AB8DF80440EF
:109DB40000F038FB0028DDD00299039A049B9DF83B
:109DC40004407160B2600599069AF360079B347091
:109DD400C6E90412B36109B0F0BD00BF01B1371385
:109DE40018B1044B02689A4201D0FFF713B980ED11
:109DF400120A704702B1371318B1044B02689A4231
:109E040001D0FFF707B980ED130A704702B1371389
:109E140018B1044B02689A4201D0FFF7FBB880F8EE
:109E24004210704702B1371318B1044B02689A42CA
:109E340001D0FFF7EFB880F85410704702B1371320
:109E440018B1044B02689A4201D0FFF7E3B8A0F8B6
:109E54005210704702B1371318B1044B02689A428A
:109E640001D0FFF7D7B8A0F85010704702B13713EC
:109E740018B1044B02689A4201D0FFF7CBB880EDC9
:109E8400160A704702B1371318B1044B02689A429C
:109E940001D0FFF7BFB880F85C10704702B13713E8
:109EA40018B1044B02689A4201D0FFF7B3B841607D
:109EB400704700BF02B1371318B1044B02689A42CD
:109EC40001D0FFF7A7B880F85D10704702B13713CF
:109ED40018B1044B02689A4201D0FFF79BB8818104
:109EE400704700BF02B1371318B1044B02689A429D
:109EF40001D0FFF78FB88173704700BF02B13713E9
:109F040018B1044B02689A4201D0FFF783B8C173B9
:109F1400704700BF02B1371318B1044B02689A426C
:109F240001D0FFF777B880ED050A704702B1371307
:109F340018B1044B02689A4201D0FFF76BB8017460
:109F4400704700BF02B1371318B1044B02689A423C
:109F540001D0FFF75FB880ED060A704702B13713EE
:109F640018B1044B02689A4201D0FFF753B880ED50
:109F7400070A704702B1371318B1044B02689A42BA
:109F840001D0FFF747B880ED080A704702B13713D4
:109F940018B1044B02689A4201D0FFF73BB880ED38
:109FA400090A704702B1371318B1044B02689A4288
:109FB40001D0FFF72FB880ED0A0A704702B13713BA
:109FC40018B1044B02689A4201D0FFF723B880ED20
:109FD4000C0A704702B1371318B1044B02689A4255
:109FE40001D0FFF717B880ED0D0A704702B137139F
:109FF40018B1044B02689A4201D0FFF70BB880F8FD
:10A004005E10704702B1371318B1044B02689A42CC
:10A0140001D0FEF7FFBF80ED180A704702B1371375
:10A02400A0B110B50446406D18B103F0CFFE002373
:10A034006365A06D18B103F0C9FE0023A365E06D4C
:10A0440018B103F0C3FE0023E36510BD704700BFE1
:10A05400C0EE207A9FED107AF4EEC77AF1EE10FA92
:10A0640017D89FED0E0A08B527EE800A22F09CFD52
:10A0740020EE006AF7EE007A36EE276A30EE007AB8
:10A08400F1EEC66A36EEC00A27EE000A37EEC00AC1
:10A0940008BD9FED030A7047A800003FDB0F49404D
:10A0A4000000000070B5002506462C4604E001F0CF
:10A0B40003FC0444A4B20135304601F07DFBE9B24F
:10A0C40088423046F3D8E00070BD00BFF8B5A04A1E
:10A0D4002DED068B07460E4640F203136021012046
:10A0E40003F058FE0446002800F00981002546606C
:10A0F400058105E001F0E0FB238903440135238158
:10A10400304601F059FBE9B203468B423046F1D8A0
:10A11400002F00F0FD8097ED0A0ABB88B97997ED0E
:10A12400008AF8683A69D7ED0C8A6381B5EEC00AF3
:10A13400FB792173F1EE10FA397A6373854B84ED60
:10A14400048A6061A173A261C4ED098A236040F3AB
:10A15400E48028EE000AFFEE007A87EE800A22F0FF
:10A16400FFFED7ED0B7A84ED070AF5EEC07AF1EE27
:10A1740010FA40F3CF8068EE277ABFEE000A80EE33
:10A18400270A22F0EDFEB5EEC08AF1EE10FA84ED56
:10A19400080A40F2A18097ED060AB5EEC00AF1EE76
:10A1A40010FA00F1998097ED079AB5EEC09AF1EE96
:10A1B40010FA00F19180D7ED059AF5EEC09AF1EE10
:10A1C40010FA00F1898097ED08AAB5EEC0AAF1EE65
:10A1D40010FA00F18180D7ED09AAF5EEC0AAF1EEDC
:10A1E40010FA79D4F0EE480AFFF732FFF0EE480A8D
:10A1F40084ED0A0AB0EE490AFFF72AFFF5EEC09A89
:10A20400F1EE10FA84ED0B0A40F39F8068EE299A70
:10A21400BFEE000A80EE290A22F0A2FEB5EEC0AA23
:10A22400F1EE10FA84ED0C0A40F38C8028EE0AAAB1
:10A23400BFEE000A80EE0A0A22F092FEF5EEC0AAF2
:10A24400F1EE10FA84ED0D0A79DD68EE2AAABFEE6C
:10A25400000A80EE2A0A22F083FEF5EEC08AF1EEAF
:10A2640010FA84ED0E0A67DD28EE288ABFEE000A94
:10A2740080EE080A22F074FE2389354A2C2101FB62
:10A2840003F101206E2384ED0F0A03F083FD21897D
:10A294002F4A606589006F23012003F07BFD21892B
:10A2A400A06570232A4A8900012003F073FD636DC1
:10A2B400E065002B34D0A36D002B31D000282FD0C3
:10A2C400BDEC068B00230022204623646364A36450
:10A2D4002265A4F84C20F8BD1F4D204A2B691C4967
:10A2E400002098472B691E4A1949002098472046A8
:10A2F40003F06CFDBDEC068B00242046F8BD164B24
:10A30400184A1B6912499847BDEC068B2046F8BDD4
:10A31400114DE7E79FED140A35E79FED130A20E797
:10A324000D4D124A2B690A49002098472046FFF731
:10A3340077FE2B690E4AD7E79FED0B0A9CE79FED4A
:10A344000A0A8AE79FED080A78E79FED070A65E79E
:10A3540018F9040003B137133877002058F90400C2
:10A364007CF9040038F9040000000000A0F904009E
:10A37400B8F9040010B520B10A4B02689A420446A9
:10A3840007D0094B094A1B690949BDE81040002060
:10A394001847FFF745FE002323602046BDE8104020
:10A3A40003F014BD03B1371338770020D8F9040043
:10A3B40018F9040010B5044608B3406D00B3A36D4A
:10A3C400F3B1E36DE3B123892C2202FB03F20021F4
:10A3D40024F0C4FB2289A06D9200002124F0BEFB6E
:10A3E4002289E06D9200002124F0B8FB00230022B2
:10A3F40023646364A3642265A4F84C20012010BD87
:10A40400054B064A1B690649002098472046FFF77A
:10A4140007FE002010BD00BF38770020F4F90400C7
:10A4240018F904002DE9F04F2DED068B8DB030B1F5
:10A43400164698460268B64B9A42044612D0B54C6A
:10A44400B54A2369B549002098472369B44AB349FA
:10A45400002098474FF0000948460DB0BDEC068B2C
:10A46400BDE8F08FD0ED147A038990ED0A0AC8F89C
:10A474001010F8EE677AF7EE000A77EEA07A01EB97
:10A48400830580EEA77AC8E9055370EEC70ACDEDBF
:10A49400050A22F0FAFADDED050AB0EE40AA94EDC1
:10A4A4000B0A22F0F2FADDED050AF0EE409A94ED83
:10A4B4000C0A22F0EAFADDED050AB0EE409A94EDBA
:10A4C4000D0A22F0E2FADDED050AF0EE408A94ED81
:10A4D4000E0A22F0DAFADDED050AB0EE408A94EDB8
:10A4E4000F0A22F0D2FADDED050A8DED089AF0EE9E
:10A4F400407A94ED080A8DED0A8ACDED0B7A8DED44
:10A5040006AACDED079ACDED098A22F0BEFA60685D
:10A51400656D94ED079AB0EE408A01F0C3FA06AB7C
:10A52400217B0293236D00930191024623892846DF
:10A53400314600F0D3FC002800F0C080D4E9163284
:10A544002189606D00F0C8FE8146002800F0DD809E
:10A5540023899FED747A002B00F0D280D8E904712E
:10A564000022E06DA66DF0EE476A924693461546CA
:10A57400F0EC017AF4EEE76AF1EE10FAE7EC017A16
:10A5840048BFF0EE676AF6EC017AF4EEC77A48BF8A
:10A59400AB460132F1EE10FAC8BFAA4695B2C8BF65
:10A5A400B0EE677A9D42E1EC017AE1D3F7EE007AEE
:10A5B40077EEC98A94ED106A94ED110A638977EEF7
:10A5C400C87A68EEA66A27EE877A69EE068A28EECC
:10A5D400008A78EEA68A38EE078AC4ED108A84EDE4
:10A5E400118A002B40D0D4ED127A78EE677AF5EE1A
:10A5F400C07AF1EE10FA67D49FED4A0A002207EE02
:10A60400903A94ED04AADFED470AA4F84C20B8EE82
:10A61400679A69EE0AAA30EE6A0A22F01FFAF0EE8F
:10A62400409A89EEAA0A22F09BFCC8EE00AA94ED97
:10A63400098AC4ED11AA28EE290A80EE090A22F03B
:10A644008FFCC8EE007AF5EEC07AF1EE10FA54DD14
:10A654002AEE27AABFEE000A80EE0A0A22F080FC46
:10A6640084ED0F0AC4ED12AA637B33B1D4ED057AED
:10A67400F4EEE78AF1EE10FA2FDCA37BD4ED117A25
:10A6840033B194ED067AF4EEC77AF1EE10FA32DCC7
:10A6940000220023C8F80C2088F80030236DC8ED90
:10A6A400018A5A1C14BF013300234846C8ED027ABC
:10A6B40023650DB0BDEC068BBDE8F08F154C1A4A2E
:10A6C400236916499847C0E6B4F84C20013292B287
:10A6D40007EE902AB8EE670A91E75946606803F0DE
:10A6E4007DFA0123D4ED108AD4ED117A88ED030AA2
:10A6F40088F80030D2E75146F0E79FED0A0AAFE749
:10A704009A469B46F0EE476A50E7024C9DE600BF2E
:10A7140003B1371338770020D8F9040018F904007E
:10A7240060FA04000000000024FA0400F0B52DEDE6
:10A73400028B83B00E4B0193B0EE408A0DF10505F8
:10A7440002AF02240126204603F016F970EE007AC7
:10A75400F4EE487AF1EE10FA98BF2646BD4202D0D4
:10A7640015F8014BEFE7304603B0BDEC028BF0BDAA
:10A774000203040508B52DED028BB0EE608AF0EEFD
:10A78400408A03F009F9F0EE407AB0EE480AB0EEE0
:10A79400678A22F0DBFB9FED117A60EE076AB2EE66
:10A7A400040A36EEA87A37EE487AC7EE000A22F099
:10A7B4004FFC22F0D3F9DFED0A0A22F066F9F0EE3D
:10A7C400400AB7EE000A22F049F9BDEC028BBCEE58
:10A7D400C00A10EE103A98B208BD00BF0000204233
:10A7E4000080FF432DE9F04F2DED068B89B006461E
:10A7F400884617461D46F0EE408AB0EE608A03F0A4
:10A80400CFF9002800F0A480DFED707A052038EE3F
:10A81400278A03F05BF9032D09EE900A4FF0000933
:10A8240000F0A080042D00F0C480022D00F0B98057
:10A8340000224FF07E53039204930DF1100A38EE78
:10A84400687ADFED637A0AEB8502544601E0F4ECA2
:10A85400017A67EE277A944277EEA87A44ED017A7A
:10A86400F5D145B305F1FF3B5FFA8BF39FED59AA90
:10A87400DFED59AA0DF1140B0BEB830B0025BAEC99
:10A88400017AB4EEE87AF1EE10FA12DDF8EE697AA4
:10A89400B0EE688A67EE8A7A002438EE278A01349B
:10A8A400B4EEC78AF1EE10FAA4B2F6D464B9F0EEAD
:10A8B400488AD345E3D1B9F1000F5DD1284609B0E8
:10A8C400BDEC068BBDE8F08F88EE0A0A22F046F94B
:10A8D4007A19D2B23068019205210135EDB2B0EE99
:10A8E400409A01F04FF8C8EE8A7A019A3068F0EE87
:10A8F400488A77EEAA7AFDEEE77A17EE901A00F00E
:10A9040075FF019A306819EE901A00F0F7FF21469E
:10A91400019A306800F0AEFF98ED000A3468F0EE5A
:10A92400480A0520FFF726FF019A0146204601F058
:10A934006DF8BDEEC99A052119EE103A18B23468C3
:10A9440003F03AF8019A0146204601F009F9B0E70C
:10A95400052003F0BBF8032D09EE900A4FF001091E
:10A964007FF460AF1D4B0493002203924FF07E539B
:10A974001B4A0592069360E77A1E34682A44D2B2D1
:10A9840011462046019200F097FF013081B2019AEE
:10A99400204600F06FFF284609B0BDEC068BBDE8E9
:10A9A400F08F00230F4A03934FF07E5304920593D4
:10A9B40043E700230C4A03930C4B049205930C4A7F
:10A9C40006924FF07E53079337E700BF0AD7233C24
:10A9D400000000000AD7233B17B7D138713D0A3F66
:10A9E400295C4F3FA4703D3FD7A3F03E3333333F40
:10A9F40052B85E3F2DE9F04F2DED068B87B005462A
:10AA0400019191460393B0EE409AF0EE60AA03F0F0
:10AA1400C7F828B1DFED9F7A00237AEEA7AA039343
:10AA2400B0EE490AFFF782FEB0EE6A0A0446FFF769
:10AA34007DFE052C064600F0FA80974B4FF003325A
:10AA44000528CDE9042300F0D480012C00F0138103
:10AA5400022C00F0D5809DF81680A04514BF4FF05D
:10AA640003084FF00208C8F10104E4B2012E00F01B
:10AA7400FC80022E00F002819DF81670B74214BFCC
:10AA8400032702273919C9B2484603F081F8414621
:10AA9400CB431F4405AB03EB08048146002309E0C4
:10AAA40006AA1A44013302F8080CDBB24A1CD1B2DC
:10AAB40004291FD014F8010BB04200F0FD0219D88C
:10AAC400994517D9012AEBD00228E9D1A9EB030C47
:10AAD400CA19D2B25FFA8CFC0DF1180E94459E444B
:10AAE40003F10102E2D3D3B24A1CD1B204290EF815
:10AAF400080CDFD1B9F1000F00F091804FF000088D
:10AB040009F1FF33DFED659A9FED65AA0293444690
:10AB14000DF1100A1AF8016B304602F0D7FF029BC0
:10AB2400434507466FD09AF8000002F025FF70EE07
:10AB3400007AF4EEC97AF1EE10FA6BDD07EE107AC2
:10AB4400B8EE477AB0EE498A27EE297A4FF0000B27
:10AB540038EE078A0BF1010BB4EEE78AF1EE10FA36
:10AB64001FFA8BFBF4D488EE290A21F0F7FF224662
:10AB74003146286808F10108F0EE408A00F002FF2F
:10AB8400C9EE297A2246286877EE8A7AFDEEE77ABA
:10AB940017EE901A00F02AFE22463946286800F083
:10ABA400ADFE22465946286800F064FE019B2F68DA
:10ABB40093ED000AF0EE480A3046FFF7DBFD22462B
:10ABC4000146384600F022FFFDEEE88A314618EED1
:10ABD400903A18B22E6802F0EFFE224601465FFA60
:10ABE40088F4304600F0BCFFA14518D9B0EE489A6D
:10ABF40090E7012C3BD0022C4FF004067FF42BAFDE
:10AC04004FF001082FE7F0EE6A7AF4EEC97AF1EE1C
:10AC140010FA93DCB0EE498A4FF0000BA3E7039BD4
:10AC240073B9484607B0BDEC068BBDE8F08F052824
:10AC340026D0194B4FF00332CDE9042304240AE74C
:10AC44002C6809F1FF32D2B211462046019200F07D
:10AC540033FE013081B2019A204600F00BFE4846D3
:10AC640007B0BDEC068BBDE8F08F00270AE74FF074
:10AC74000008042600E74FF00008F7E6012701E783
:10AC8400054B4FF00332CDE90423FE244FF00308B3
:10AC9400EFE700BF0AD7233C010203040AD7233B92
:10ACA40017B7D1382DE9F0412DED048B90F85E30C3
:10ACB40082B00446002B5ED090ED120ADFED7E8A4E
:10ACC400DFED7E0A80EE280A02F0BCFEB0EE409A68
:10ACD40094ED130ADFED790A80EE280A02F0B2FE41
:10ACE400052029EE289A60EE288A02F045FE30EE0F
:10ACF400008AF4EEC88AF1EE10FA40F2C080B4EE95
:10AD0400C89AF1EE10FA00F3AC80DFED6C0A88EE1D
:10AD1400880A02F097FE21F021FF032004F13C068B
:10AD2400FCEEC07A17EE901A0139C9B202F030FF76
:10AD3400012102F031FFC0F1040204F16001074671
:10AD4400B0EE490AD2B20023F0EE480A304601912F
:10AD5400FFF750FE054601993B463046F0EE680A7F
:10AD6400B0EE480A2A46FFF73DFD2844C1B2E06B25
:10AD740000F00CFD5AE090F84030002B40F08D803C
:10AD840094F8413090F84280002B40F09080B4F861
:10AD94004470D4ED128A9FED488A88EE880A21F027
:10ADA400A7FE07EE907A94ED137ADFED440AF8EEED
:10ADB400677A37EE687A67EE887AFDEEC06A87EEC6
:10ADC400270A16EE906A02F03DFEF7EE007A30EEA6
:10ADD400270A21F0C3FEBCEEC00AE06B10EE103A65
:10ADE40001219DB200F0D2FCE06B414600F03CFE34
:10ADF400E06B314600F02CFE2946E06B00F02CFE9F
:10AE0400E06B394600F02CFE29B2013911FB0761D1
:10AE140008B24146E56B02F0CFFD0146284600F03A
:10AE2400C1FEB4F85210E06B00F022FE94F8541006
:10AE3400E06B00F067FEE06BB4F8501000F01CFE0D
:10AE440094ED160A94F85C30E06B84ED020A0BB1C1
:10AE54009FED1B0A02B0BDEC048BBDE8F04100F08D
:10AE64003BBE04F16001F0EE680AB0EE490A042327
:10AE7400002204F13C00FFF7B5FC014677E704F13A
:10AE84006001F0EE680AB0EE490A0123042204F1DD
:10AE94003C00FFF7AFFD014669E790ED120A02F0AE
:10AEA400E9FD94F841308046002B3FF470AF4046F2
:10AEB40000F008F807466CE70AD7233BACC52737F0
:10AEC400000000000138C0B204289ABF024B33F8D6
:10AED40010000120704700BF180C05002DE9F04F49
:10AEE4002DED108B97B09DF8C44007910392089400
:10AEF400002800F0C981329C002C00F0C481002994
:10AF040000F0C181052A40F2BE8103994A1E12FB5A
:10AF140001F292B207EE902AF8EE677ACA1EF1EEB9
:10AF2400E76A92B207EE101A07EE902A329AF8EE08
:10AF340047BA92ED04DA9FEDE57AD2ED03DA92EDA9
:10AF440002AAF8EE677AB7EE00BA67EE877A3BEEAC
:10AF54004D7AF1EEEB5AC7EE277A3BEE6D6A3BEE83
:10AF64004ACAC6EE266ACDED0B7A6CEE257ACDED93
:10AF74000F5ACDED0A6ACDED097A002B00F09C81C1
:10AF8400329A9FEDD38AD2ED00EA92ED01EADFED29
:10AF9400D1AA7BEE6E7A5A1ECDED0D7A7BEE4E7AF7
:10AFA400002192B29B000491CDED0E7A0C92029393
:10AFB4008146079B049ACDF81890002403EB820580
:10AFC4002F460595CDE91044CDE91244CDE914444A
:10AFD400DFEDBF9A2646A04620462146A346A24658
:10AFE4002546A14600E098463246B7F9006023465C
:10AFF400B7F90240AE46B51ACC46A4EB03095B464A
:10B00400A5EB0E0B5246A9EB0C0AABEB030C029B0F
:10B01400B8F1020F3144AAEB020220441F4413D9B1
:10B0240007EE902AF8EEE70A07EE90CAB8EEE70AB0
:10B0340060EE887ACDE9001030EE270A22F006F996
:10B04400DDE9001079EE809A039A08F101039BB2BE
:10B054009A42C8D107EE901AB8EEE77A07EE900A42
:10B06400F8EEE77A87EE2B9ADDE90559029E002473
:10B07400C7EEAB8ADFED96CAB5F9023000EE903A1E
:10B08400B5F90030F8EEE00A07EE903A70EEE80AFF
:10B09400F8EEE77A20EE880A77EEC97A354437EE7F
:10B0A400800A22F0D3F82346434504F101047CEEE0
:10B0B40080CAA4B2E0D168EE885AF0EE680A75EE50
:10B0C40089FAB0EE6F0A22F0C1F899ED006A99EDA1
:10B0D400017ADDED0E5ADDED0D7A99ED035AD9EDC5
:10B0E400046AD9ED024A089B60EE277A2EEE866A3E
:10B0F40020EE250A2EEE077A36EE276A37EE007A1E
:10B10400DDED0A7ADDED0B5A89ED006A6CEEA7CA13
:10B1140076EE477A69EEA59ADDED095A89ED017A52
:10B12400F0EEE77A2DEE855A6DEE266A67EEA57A83
:10B134006AEE244A75EE2CCA36EEA9FA77EEA47AA2
:10B14400C9ED03CA89ED04FAC9ED027A002B00F0B7
:10B15400A080309B002B00F09F80D9ED06CAD9ED6A
:10B16400059A2CEE880AF0EE6C0A30EE290A22F0D9
:10B1740088F8F0EE680AB0EE407AB0EE6F0A8DED12
:10B18400007A22F07EF89DED007A4FF0FF3307EE4F
:10B19400903AF8EEE77A013377EEA77ADAB267EEFF
:10B1A400AA7A5BB277EE807A37EEC76AB0EEC66AE7
:10B1B400B4EEEA6AF1EE10FA40F28480022AE6D193
:10B1C40077EE407A99ED076A99ED095A99ED087A74
:10B1D400F0EEE77A6AEE065A67EE8C7A2AEE055AA2
:10B1E4002AEE077A29EE0C6A68EE8C0A77EE857AE5
:10B1F40035EE866A77EE200AB4EECBFAF1EE10FA59
:10B20400C9ED097A89ED076AC9ED080A51DD20EE16
:10B21400880ACDED007A30EE060A22F017F8DDED4B
:10B224000F7A20EE270AF1EE047A80EE0F7AB4EE5C
:10B23400677AF1EE10FAC8BFB0EE677ADDED007AF6
:10B24400329B67EE877AC9ED0A7AD3ED057A3BEE35
:10B25400677A67EEA99A27EE099A67EEAC7A27EE29
:10B26400287A39EE899A77EE877A89ED059AC9EDBD
:10B27400067A049A0C99914209F12C0902F101030E
:10B284001AD0049395E6002017B0BDEC108BBDE8EE
:10B29400F08F89ED0ABAECE7B0EE6F0AF0EE680AB7
:10B2A400F0EE68CAF0EE499A89ED059AC9ED068A6E
:10B2B4005DE79FED077AC3E7012017B0BDEC108B63
:10B2C400BDE8F08FB0EE670A7AE700BFBD1B8F4080
:10B2D40000000000DB0F4940D9B30139F0B489B252
:10B2E4001F1DDFED1D5A07EB81071D46014616465B
:10B2F4001C46B7EE006A91ED047AB4EEC67AF1EE1C
:10B3040010FACCBFC6EE076AF0EE656A2AB191ED79
:10B31400037A27EE267A86ED007A04362BB1D1ED36
:10B32400027A67EEA67AC4ED007A0434BC4201F1D5
:10B334002C01E0D153B1D0ED0A7A95ED007A67EE95
:10B34400877A2C30E5EC017ABD42F4D10120F0BCBF
:10B3540070470120704700BF0000000008B102F0F0
:10B364008DBC704710B50C4600F0E2FB58B124B117
:10B374002146BDE8104002F063BD044B044A1B693A
:10B38400044920469847002010BD00BF38770020AC
:10B39400A0FA0400BCFA040008B5044B044A1B6973
:10B3A400044900209847002008BD00BF38770020DA
:10B3B400C8FA0400E0FA04002DE9F04782B020B195
:10B3C400BF4B02689A42044608D0BE4BBE4A1B6972
:10B3D400BE49002002B0BDE8F047184702F00AFD5C
:10B3E400012835D9D4ED117A9FEDB97AB54B9FED8B
:10B3F400B86A1D69DFEDB76AB449F5EEC07AF1EEBB
:10B4040010FA48BFF1EE677A77EE877A4CBFB24BF9
:10B41400B24BBCEEE77AF5EEC07AF1EE10FA17EE15
:10B42400102A4CBFB1EE677AB0EE677A37EE067A2F
:10B434000092BCEEC77AAA4AB8EE477A022077EEA9
:10B44400C77A67EEA67AFCEEE77ACDED017AA847D3
:10B4540002F0D0FC012835D9D4ED127A9FED9C7A04
:10B46400984B9FED9B6A1D69DFED9A6A9749F5EE4B
:10B47400C07AF1EE10FA48BFF1EE677A77EE877A78
:10B484004CBF954B954BBCEEE77AF5EEC07AF1EEE6
:10B4940010FA17EE102A4CBFB1EE677AB0EE677A55
:10B4A40037EE067A0092BCEEC77A8E4AB8EE477A37
:10B4B400022077EEC77A67EEA67AFCEEE77ACDED46
:10B4C400017AA84702F096FC012807D97D4AB4F80E
:10B4D4004C3015697D49844A0220A84702F08AFC51
:10B4E400012800F2E08002F085FC012800F2C3800C
:10B4F40002F080FC012800F2B28002F07BFC0128FB
:10B5040000F2C58002F076FC012807D96D4A94F850
:10B51400523015696D49754A0220A84794F8523093
:10B52400002B00F09980DFF89C81DFF8FCA1674EC6
:10B5340025464FF0000902F05DFC012806D9D8F831
:10B5440010704B46524631460220B84702F052FC76
:10B55400012806D9D8F810706B68654A3146022074
:10B56400B84702F047FC012806D9D8F810702B8997
:10B57400604A31460220B84702F03CFC012806D953
:10B58400D8F810706B895C4A31460220B84702F043
:10B5940031FC012806D9D8F81070AB89574A3146D6
:10B5A4000220B84702F026FC012806D9D8F810700A
:10B5B400AB7B534A31460220B84702F01BFC0128FA
:10B5C40009D9E87BD8F8107004F076FD4D4A03469B
:10B5D40031460220B84702F00DFC012809D9287C25
:10B5E400D8F8107004F068FD474A0346314602203B
:10B5F400B84702F0FFFB012809D9687CD8F810701D
:10B6040004F05AFD414A034631460220B84702F08D
:10B61400F1FB012809D9E87CD8F8107004F064FD26
:10B624003B4A034631460220B84702F0E3FB0128B7
:10B6340009D9A87CD8F8107004F064FD354A034693
:10B6440031460220B84794F8523009F101094B45BC
:10B6540005F110053FF66FAF02B0BDE8F087194B56
:10B6640094F853001D6904F033FD2B4A174903462F
:10B674000220A84741E7134B94F84F001D6904F0DA
:10B684001BFD264A114903460220A84730E70D4B0B
:10B6940094F854001D6904F01BFD214A0B4903462C
:10B6A4000220A8472EE7074B94F84E001D6904F0CA
:10B6B40003FD1C4A054903460220A84713E700BFBF
:10B6C4000FB0371338770020E8FA0400E0FA0400DA
:10B6D400BD3706350024744914F50400A40405009C
:10B6E40000FB040014F60400D4F5040068FB040015
:10B6F4008CFB0400A8FB0400C4FB0400E0FB040072
:10B70400FCFB040018FC040034FC040050FC04009E
:10B714006CFC040088FC0400F8F5040034FB04000D
:10B724004CFB040018FB04007CFB040010B5084A21
:10B7340056235C21012002F02DFB044630B1054B59
:10B7440040F8043B0449582223F0D6F9204610BDA2
:10B75400E0FA04000FB03713240C050018B1074AAF
:10B764000168914205D0064B064A1B690649002030
:10B7740018470022026002F029BB00BF0FB0371344
:10B7840038770020E8FA0400E0FA040018B1064B08
:10B7940002689A4205D0054B054A1B6905490020F9
:10B7A400184780F8521070470FB0371338770020CD
:10B7B400E8FA0400E0FA040008B518B1074B02687F
:10B7C4009A4207D0064B074A1B690749002098474D
:10B7D400012008BD90F8520008BD00BF0FB0371318
:10B7E40038770020E8FA0400E0FA040070B520B1CC
:10B7F4000B4B04460068984207D00A4B0A4A1B695F
:10B804000A49BDE8704000201847032A0D46164631
:10B8140002D9FFF7C1FD10B104EB0614656070BDD9
:10B824000FB0371338770020E8FA0400E0FA040078
:10B8340038B520B10B4B02689A42044607D00A4B34
:10B844000A4A1B690A4900209847002038BD032989
:10B854000D4603D9FFF7A0FD0028F7D004EB05142B
:10B86400606838BD0FB0371338770020E8FA040059
:10B87400E0FA040070B520B10B4B0446006898420E
:10B8840007D00A4B0A4A1B690A49BDE870400020E8
:10B894001847032A0D46164602D9FFF77DFD10B15D
:10B8A40004EB0614258170BD0FB0371338770020E0
:10B8B400E8FA0400E0FA040038B520B10B4B026842
:10B8C4009A42044607D00A4B0A4A1B690A490020D7
:10B8D4009847002038BD03290D4603D9FFF75CFDC6
:10B8E4000028F7D004EB0514208938BD0FB03713B6
:10B8F40038770020E8FA0400E0FA040070B520B1BB
:10B904000B4B04460068984207D00A4B0A4A1B694D
:10B914000A49BDE8704000201847032A0D46164620
:10B9240002D9FFF739FD10B104EB0614658170BD2F
:10B934000FB0371338770020E8FA0400E0FA040067
:10B9440038B520B10B4B02689A42044607D00A4B23
:10B954000A4A1B690A4900209847002038BD032978
:10B964000D4603D9FFF718FD0028F7D004EB0514A2
:10B97400608938BD0FB0371338770020E8FA040027
:10B98400E0FA040070B520B10B4B044600689842FD
:10B9940007D00A4B0A4A1B690A49BDE870400020D7
:10B9A4001847032A0D46164602D9FFF7F5FC10B1D5
:10B9B40004EB0614E57470BD0FB03713387700201C
:10B9C400E8FA0400E0FA040038B520B10B4B026831
:10B9D4009A42044607D00A4B0A4A1B690A490020C6
:10B9E4009847022038BD03290D4603D9FFF7D4FC3C
:10B9F4000028F6D004EB0514E07C38BD0FB03713F3
:10BA040038770020E8FA0400E0FA040070B520B1A9
:10BA14000B4B04460068984207D00A4B0A4A1B693C
:10BA24000A49BDE8704000201847032A0D4616460F
:10BA340002D9FFF7B1FC10B104EB0614A58170BD67
:10BA44000FB0371338770020E8FA0400E0FA040056
:10BA54000022FFF7CBBE00BF0022FFF70BBF00BFE1
:10BA64000022FFF74BBF00BF0022FFF78BBF00BFD0
:10BA74000022FFF7CBBF00BF18B1064B02689A4201
:10BA840005D0054B054A1B69054900201847A0F855
:10BA94004C1070470FB0371338770020E8FA0400D1
:10BAA400E0FA040008B518B1074B02689A4207D0BF
:10BAB400064B074A1B69074900209847002008BD28
:10BAC400B0F84C0008BD00BF0FB037133877002022
:10BAD400E8FA0400E0FA040018B1064B02689A423E
:10BAE40005D0054B054A1B6905490020184780ED20
:10BAF400120A70470FB0371338770020E8FA0400B1
:10BB0400E0FA040018B1064B02689A4205D0054BCE
:10BB1400054A1B6905490020184780F853107047EF
:10BB24000FB0371338770020E8FA0400E0FA040075
:10BB340008B518B1064B02689A4207D0054B064A6D
:10BB44001B69064900209847002008BD043008BD41
:10BB54000FB0371338770020E8FA0400E0FA040045
:10BB640070B520B10B4B04460068984207D00A4BCD
:10BB74000A4A1B690A49BDE8704000201847032A95
:10BB84000D46164602D9FFF707FC10B104EB061464
:10BB9400A57470BD0FB0371338770020E8FA04009D
:10BBA400E0FA04000022FFF7DBBF00BF70B48C880A
:10BBB40093680E898D79CA799A70003C18BF012464
:10BBC4009E801C705D70986070BC704770B515469F
:10BBD4000E4620B1154B02689A42044608D0144C14
:10BBE400144A236914490020984776B1A5B170BD61
:10BBF40051B1C5B18560406802F094FA6368BDE84C
:10BC04007040D3E900021047094C23690B4A0A49E2
:10BC140000209847002DEAD12369094A0649BDE866
:10BC2400704000201847024CF6E700BF0DB03713F0
:10BC340038770020D8F90400BCFC0400C8FC0400D8
:10BC4400A4FC040010B520B10C4B02689A420446CF
:10BC540007D00B4B0B4A1B690B49BDE81040002071
:10BC64001847406818B1C3689847002363600023ED
:10BC740023602046BDE8104002F0A8B80DB0371389
:10BC840038770020D8F90400BCFC04002DE9F04109
:10BC940088B00C46FFF74CFF002850D0002C43D04E
:10BCA4002E4A064667231021012002F073F8054648
:10BCB400002844D02A4B03600DF10C08294B009650
:10BCC40041466846CDE9013502F0C6F8074668608A
:10BCD40000283ED00023638096F84E101A469C46F6
:10BCE400201DDFB2B9422FD938F8137002803A44CC
:10BCF40092B2628007810133042B00F10200F0D17B
:10BD0400B6F84830059961619DF81800BDF81A101D
:10BD1400207613FB02F2BDF81C302280A981EB814E
:10BD2400284608B0BDE8F0810F4B104A1B690B4947
:10BD3400204698472546284608B0BDE8F0810025EE
:10BD4400284608B0BDE8F081A0F800C0A0F808C0FB
:10BD5400D1E72846FFF776FF3D46E1E7BCFC040047
:10BD64000DB03713B1BB020038770020E0FC0400AB
:10BD740002F064BC10B520B10B4B02689A42044631
:10BD840007D00A4B0A4A1B690A49BDE81040002043
:10BD9400184700230360006902F0FCF92046BDE85F
:10BDA400104002F013B800BF0EB0371338770020EC
:10BDB400F8FC040010FD040070B5204A06463B233D
:10BDC4001421012001F0E6FF78B3044602F0D0F913
:10BDD4000546206160B31A4BA6600021C4E9003116
:10BDE4006173304602F080FA054668B1304602F0CD
:10BDF4007DFA054680B9A06802F022FCA0682946B5
:10BE040002F020FC204670BD2046FFF7B3FF304609
:10BE140002F06CFA48B12C460A4B0B4A1B690749DD
:10BE2400002098472046FFF7A5FF0024204670BD58
:10BE3400204601F0CBFF2C46F8E700BF10FD0400BC
:10BE44000EB037133877002018FD040030B583B0E6
:10BE540028B10D46044612490068884208D0114BA7
:10BE6400114A1B69114900209847002003B030BDD6
:10BE7400002DFAD0002AF8D0002BF6D000921946F3
:10BE8400069AA06804F10D0300F0D0F80028ECD065
:10BE9400637B0A2B0CBF012300232B70E6E700BF52
:10BEA4000EB0371338770020F8FC040010FD0400AE
:10BEB400F0B585B030B116461F460268224B9A424F
:10BEC400044608D0214B224A1B6922490020984786
:10BED400002005B0F0BDF6B130460D4600F042FC3E
:10BEE400C8B12846FFF724FE05460028F1D0A06813
:10BEF40002F0FCF9207388B100972369201DCDE975
:10BF04000130A21D0392A0680A9B3246294602F022
:10BF1400DBFA05B0F0BD0D4B0F4AD5E7A06802F07F
:10BF240093FB237B002BE7D10028E5D100972369FD
:10BF3400201DCDE90130A21D0392A0680A9B324660
:10BF4400294602F021FAC4E70EB0371338770020EF
:10BF5400F8FC040010FD040034FD040010B520B109
:10BF64000E4B02689A42044607D00D4B0D4A1B69DA
:10BF74000D4900209847002010BD037B3BB9806821
:10BF840002F00CF90028F7D00123237310BD0169D6
:10BF94008068BDE8104002F003B900BF0EB037134B
:10BFA40038770020F8FC040010FD040030B585B09B
:10BFB40028B1194B0D4601689942044608D0174B25
:10BFC400174A1B69174900209847002005B030BD67
:10BFD4008388C1880B44B2EB430F19D3016980688D
:10BFE40000230DF10F028DF80F3002F013F9002831
:10BFF400ECD09DF80F1020692A4602F04BF9009509
:10C00400E388A2882169A06802F0E2F805B030BD97
:10C01400024B054AD5E700BF0EB03713387700202E
:10C02400F8FC040010FD040048FD04002DE9F04F65
:10C034001C4691B01B781A9F0546884616460A2B63
:10C0440059D8DFE813F065009D00F2005D010B0094
:10C05400D301070266029B02D102650001F008FCCD
:10C06400002800F08B8008AA4146284601F052FCC3
:10C07400BD48DFF800B3294604F01AFDBB49BC48AB
:10C0840004F00EFD0898502104F022FD07F10A0A7D
:10C094004FF00009089805A900EB091000F0C8FC4E
:10C0A400034609F13002B34809F10109002B65D0B8
:10C0B400BDF814108BF80D2004F0FAFCBDF8143010
:10C0C4002AF8023FB9F10A0FE4D1AB4804F0E0FCCE
:10C0D400AA4B00936022019241463246002328462F
:10C0E40002F064FC002840F0F782A54BA54A1B69C6
:10C0F400A54998472378A249A44A0E69A249002079
:10C104000546B0472B462846237011B0BDE8F08F92
:10C114008C220021384622F021FD01F0E5FD07EED6
:10C12400900A07F1800AF8EE677A514608A8CDED27
:10C13400087A04F06FFB8146954804F0A9FC8A480C
:10C14400294604F0B5FCB7F88210924804F0B0FC1C
:10C15400B7F88410904804F0ABFCB7F886108F4809
:10C1640004F0A6FC8E48B7F8801004F0A1FC8D48BA
:10C1740004F08EFCB9F1000F40F0A2822378BAE7F4
:10C1840001F076FB0028F9D008AA05ABCDE900320E
:10C19400414603AB0DF10E02284601F08BFB7248B9
:10C1A400294604F085FCBDF814107F4804F080FC97
:10C1B4006E497E4804F074FC0898102104F080FC59
:10C1C400089ABDF81410BDF80E0004AB00F0D6FABE
:10C1D4000028D3D0BDF80C0000F04EFEBDF80C10C2
:10C1E4000646734804F064FCBDF80E10714804F070
:10C1F4005FFCBDF81010704804F05AFC6F483146DB
:10C2040004F056FCBDF80C30BDF810103B802846F5
:10C21400BE84798001F09CF905460223002DADD03F
:10C224002846237011B0BDE8F08F01F021FB0028EF
:10C23400A4D008AB05AA0093414604AB284601F0FC
:10C2440051FB4A495E4804F02BFC0598102104F088
:10C254003FFC059803A900F0CBFA00288ED0BDF866
:10C264000C10584804F024FCBDF80C30BB80564830
:10C2740004F00EFC3C48294604F01AFC3B495348A0
:10C2840004F00EFC0898302104F01AFCBDF81010DC
:10C294004F4804F00DFC0899BDF810000DF10E0292
:10C2A40000F0F0FA00283FF469AFBDF80E104948D9
:10C2B40004F0FEFBBDF80E3047487B8104F0E8FB38
:10C2C400012002ABCDE90030324641464FF47E56A0
:10C2D40000232846ADF8086002F068FB20B9284B1B
:10C2E4003E4A1B69284998472846BDF80C20BDF8EA
:10C2F4000E1001F04BF905460323002D90D13DE7C4
:10C304000023ADF8143001F0B3FA00283FF436AF3F
:10C3140008AA4146284601F0F5FA1348294604F0D4
:10C32400C7FB12492E4804F0BBFB0898202104F0F7
:10C33400CFFB089805A900F0F1FA00283FF41EAFDE
:10C34400BDF81410274804F0B3FBBDF81430FB808B
:10C35400254804F09DFB284601F046F905460423D0
:10C36400002D7FF45DAF09E760FD0400A40405001F
:10C374000CFF0400682B002024FF0400A426050001
:10C38400387700203CFF0400B4FE0400DC01050003
:10C39400F80A05006CFD04007CFD040088FD04001F
:10C3A40094FD0400A4FD0400B4FD0400C0FD0400D9
:10C3B400DCFD0400E8FD0400F0FD0400FCFD0400C5
:10C3C40008FE040028FE040034FE04004CFE0400B1
:10C3D40060FE04006CFE040078FE040090FE04007D
:10C3E400C8FE0400ECFE0400F8FE040001F040FA6C
:10C3F40000283FF4C3AE08AA4146284601F092FA49
:10C40400BB49BC4804F04CFB08984FF4407104F05D
:10C414005FFB089805A900F07BFB00283FF4AEAE53
:10C42400BDF81410B44804F043FBBDF814303B814C
:10C43400B24804F02DFB388908AA602104F0D0FA30
:10C44400284608A901F024F905460623002D7FF4A7
:10C45400E7AE93E64FF6FF73ADF8103001F008FA3B
:10C4640000283FF48BAE01F03FFCA54EB7F88030B6
:10C47400DFF8EC92A6FB0026414605AA2846B60939
:10C4840006FB03F601F058FA99499E4804F008FBAC
:10C4940005984FF4407104F01BFB04AB3046009345
:10C4A400994A059908AB00F027FDCB4682460DF169
:10C4B4001C08302689F80C60013658F8041F5846C9
:10C4C400F6B204F0F5FA382EF4D1BAF1000F3FF4C5
:10C4D40055AEBDF810108D4804F0EAFABDF81030DE
:10C4E4008B487B8404F0D4FABDF81010284601F080
:10C4F4005FF900283FF442AE07F158030598012282
:10C50400002100F0CDFB05460723002D7FF488AE03
:10C5140034E64FF6FF73ADF8143001F0A9F90028A2
:10C524003FF42CAE08AA4146284601F007FA7049A8
:10C53400784804F0B5FA0898102104F0C9FA08986C
:10C5440005AA07F1580100F055FC00283FF416AE87
:10C55400BDF81410704804F0ABFABDF814303B84F5
:10C564006E4804F095FA2846BDF8141001F03EF91F
:10C5740005460823002D7FF453AEFFE501F078F95A
:10C5840000283FF4FBAD08AA4146284601F0DEF935
:10C594005749634804F084FA07F126060898602195
:10C5A40004F096FA0898314607F1560200F034FD7B
:10C5B40000283FF4E3AD4E495A4804F071FA30467E
:10C5C400182104F085FAB7F95610574804F070FAA8
:10C5D400564804F05DFA284601F046F90546092359
:10C5E400002D7FF41DAEC9E501F042F900283FF4A7
:10C5F400C5AD08AA04AB4146284601F0AFF93C4951
:10C604004B4804F04DFA08984FF4C07104F058FAFE
:10C61400089805A900F058FE00283FF4AFADDDE905
:10C624000521079B7B66C7E91721424804F040FABD
:10C63400F96D414804F03CFA796E404804F038FA48
:10C644003F4804F025FA2A493E4804F029FA0498A0
:10C654004FF4587104F034FA049808A900F07CFEF1
:10C66400054600283FF48AADDDE908120A9BB96645
:10C67400FA660B990C9A3B670D9BFB67C7E91D1281
:10C6840038468C2103F0BEFDB96EC7F88C002E48E5
:10C6940004F00EFAF96E2D4804F00AFA396F2C48AA
:10C6A40004F006FA796F2B4804F002FAB96F2A48AD
:10C6B40004F0FEF9F96F294804F0FAF90A2322E597
:10C6C400534628463246414600F0CAFE0546012339
:10C6D400002D7FF4A5AD51E52846FA8807F10C0139
:10C6E40000F086FF05460523002D7FF499AD45E54E
:10C6F400A404050068FF04008CFF040098FF0400F4
:10C70400D34D6210B4FF040020289B03D8FF04001B
:10C71400E8FF0400040005002800050038000500B7
:10C724005800050084000500B0000500CC00050099
:10C73400E4000500F80005000C01050020010500D7
:10C7440030010500480105005C0105007001050089
:10C754008401050098010500AC010500C401050031
:10C76400782B002010B58C21044603F04BFDD4F83F
:10C774008C30181AB0FA80F0400910BDF0B40024CF
:10C78400A4464FF6FF7740FA04F5ED07A6B20AD5A2
:10C7940032F814506D1A002DB8BF6D42ADB2BD42CF
:10C7A4003CBF2F46B4460134102CECD10CF1FF31C0
:10C7B4000D290CD80CF10041013902EB410532F886
:10C7C4001120698841F28734521AA24202DC002007
:10C7D400F0BC7047AA88891AA142F8DD4FF6FF72AF
:10C7E4009042F4D00120F0BCA3F800C0704700BF11
:10C7F4002DE9F0470024A0F1020C254627464FF608
:10C80400FF761BE030F914803CF914A008F57A7225
:10C81400A8EB0A08984530DBC8452EDC82EAE273AF
:10C82400A3EBE2739BB2B34204D24FEA8E051E46D9
:10C83400ADB20127BEF10F0F18D00134631E03FB04
:10C8440003F3C3EBC3035A0002F51679C83B1FFA7E
:10C8540084FE002CD6D1B0F9003003F57A73002B96
:10C86400B8BF5B429BB2B342DFD3E6E717B185F0B2
:10C8740030050D803846BDE8F08700273846BDE80E
:10C88400F08700BF2DE9F04FB1F85E300C8883B01B
:10C894001B1BB3F5FA6F01923ADB1F4A4FEA0348B8
:10C8A400A2FB0838002581460E464FEA5818AB46CD
:10C8B400A24610224FF6FF7C012009E0013292B219
:10C8C4008E4538BF0020402A45441AD036F8024F1E
:10C8D400A4EB0903002BB8BF5B429BB20AEB1541E2
:10C8E400634501F548773CBF9C469346BC4204F53A
:10C8F400487EE3D9013292B2402A4FF00000454409
:10C90400E4D130B1019BA3F800B003B0BDE8F08FCF
:10C91400002003B0BDE8F08FABAAAAAAF0B5B0F925
:10C9240000200E46B1B0114605460124002708E058
:10C934008A42A8BF274604F10104A8BF1146202C4F
:10C944000CD0134635F9022FC3F5487313449BB238
:10C95400B3F5C86FECD9002031B0F0BD072F5FD814
:10C96400002307F10802D21A03AF0AB3D5183946D7
:10C9740000EB450500EB430434F9020B07EE100A03
:10C9840003FB03F006EE903A07EE900AB8EEC77A7E
:10C99400F8EE677AF8EE666AA54281ED007AC1ED99
:10C9A400017AC1ED026A03F1010301F10C01E3D143
:10C9B4003846694603F042FC0028CCD09DED006A5D
:10C9C400B5EE406AF1EE10FAC5D0DDED016AF5EE80
:10C9D400406AF1EE10FABED0DDED027AF1EE677A2C
:10C9E40087EEA67AB5EEC07AF1EE10FAB3DBF1EE7B
:10C9F400666AC6EE867AF5EEC07AF1EE10FAAAD52A
:10CA0400F7EE007A77EE277AFCEEE77A17EE903AA3
:10CA14009BB23F2B9FD85B0883F0100333809BE7C6
:10CA2400FB1F172F88BFC3F120029DD899E700BFD1
:10CA3400DFF8D8C02DE9F0414FF0000E47F6FF773C
:10CA4400B0F900406546F0463E466FF01B0214E024
:10CA5400A742C4BF274696461C2A034616D01B8805
:10CA640030F9024FE31A1BB29E4202F10802A8BF3A
:10CA74001E469D4212B2B8BF1D46002CE8DAA445FA
:10CA8400EADA1C2AA44690460346E8D1A5F51C55CB
:10CA9400103DADB244F620639D4200D816B100208B
:10CAA400BDE8F0811CF5004F47F6FF7311D09F429B
:10CAB40029D0AEEB080EBEF1080FF0D1A7EB0C079E
:10CAC4004FEACC0C9CFBF7F7A8EB070E0FFA8EFE8F
